{
  "abi": [
    {
      "inputs": [],
      "name": "AddressAndAmountLengthInvalid",
      "type": "error"
    },
    {
      "inputs": [],
      "name": "AlreadyAdded",
      "type": "error"
    },
    {
      "inputs": [],
      "name": "CannotBeAddressZero",
      "type": "error"
    },
    {
      "inputs": [],
      "name": "CannotSendToAddressZero",
      "type": "error"
    },
    {
      "inputs": [],
      "name": "NotEnoughBalance",
      "type": "error"
    },
    {
      "inputs": [],
      "name": "cannotBeContract",
      "type": "error"
    },
    {
      "inputs": [],
      "name": "valueCannotBeZero",
      "type": "error"
    },
    {
      "anonymous": false,
      "inputs": [
        {
          "indexed": true,
          "internalType": "address",
          "name": "owner",
          "type": "address"
        },
        {
          "indexed": true,
          "internalType": "address",
          "name": "spender",
          "type": "address"
        },
        {
          "indexed": false,
          "internalType": "uint256",
          "name": "value",
          "type": "uint256"
        }
      ],
      "name": "Approval",
      "type": "event"
    },
    {
      "anonymous": false,
      "inputs": [
        {
          "indexed": false,
          "internalType": "uint256",
          "name": "loyaltyPercentageBefore",
          "type": "uint256"
        },
        {
          "indexed": false,
          "internalType": "uint256",
          "name": "loyaltyPercentageAfter",
          "type": "uint256"
        }
      ],
      "name": "LoyaltyUpdated",
      "type": "event"
    },
    {
      "anonymous": false,
      "inputs": [
        {
          "indexed": true,
          "internalType": "address",
          "name": "previousOwner",
          "type": "address"
        },
        {
          "indexed": true,
          "internalType": "address",
          "name": "newOwner",
          "type": "address"
        }
      ],
      "name": "OwnershipTransferred",
      "type": "event"
    },
    {
      "anonymous": false,
      "inputs": [
        {
          "indexed": false,
          "internalType": "address",
          "name": "account",
          "type": "address"
        }
      ],
      "name": "Paused",
      "type": "event"
    },
    {
      "anonymous": false,
      "inputs": [
        {
          "indexed": false,
          "internalType": "address",
          "name": "to",
          "type": "address"
        },
        {
          "indexed": false,
          "internalType": "uint256",
          "name": "amount",
          "type": "uint256"
        }
      ],
      "name": "TokenRewarded",
      "type": "event"
    },
    {
      "anonymous": false,
      "inputs": [
        {
          "indexed": false,
          "internalType": "uint256",
          "name": "amount",
          "type": "uint256"
        },
        {
          "indexed": false,
          "internalType": "address",
          "name": "user",
          "type": "address"
        }
      ],
      "name": "TokensBurned",
      "type": "event"
    },
    {
      "anonymous": false,
      "inputs": [
        {
          "indexed": true,
          "internalType": "address",
          "name": "from",
          "type": "address"
        },
        {
          "indexed": true,
          "internalType": "address",
          "name": "to",
          "type": "address"
        },
        {
          "indexed": false,
          "internalType": "uint256",
          "name": "value",
          "type": "uint256"
        }
      ],
      "name": "Transfer",
      "type": "event"
    },
    {
      "anonymous": false,
      "inputs": [
        {
          "indexed": false,
          "internalType": "address",
          "name": "account",
          "type": "address"
        }
      ],
      "name": "Unpaused",
      "type": "event"
    },
    {
      "anonymous": false,
      "inputs": [
        {
          "indexed": false,
          "internalType": "uint256",
          "name": "feeBefore",
          "type": "uint256"
        },
        {
          "indexed": false,
          "internalType": "uint256",
          "name": "feeAfter",
          "type": "uint256"
        }
      ],
      "name": "feeUpdated",
      "type": "event"
    },
    {
      "inputs": [
        {
          "internalType": "address",
          "name": "_member",
          "type": "address"
        }
      ],
      "name": "addTeamAddress",
      "outputs": [],
      "stateMutability": "nonpayable",
      "type": "function"
    },
    {
      "inputs": [
        {
          "internalType": "address",
          "name": "owner",
          "type": "address"
        },
        {
          "internalType": "address",
          "name": "spender",
          "type": "address"
        }
      ],
      "name": "allowance",
      "outputs": [
        {
          "internalType": "uint256",
          "name": "",
          "type": "uint256"
        }
      ],
      "stateMutability": "view",
      "type": "function"
    },
    {
      "inputs": [
        {
          "internalType": "address",
          "name": "spender",
          "type": "address"
        },
        {
          "internalType": "uint256",
          "name": "amount",
          "type": "uint256"
        }
      ],
      "name": "approve",
      "outputs": [
        {
          "internalType": "bool",
          "name": "",
          "type": "bool"
        }
      ],
      "stateMutability": "nonpayable",
      "type": "function"
    },
    {
      "inputs": [
        {
          "internalType": "address",
          "name": "account",
          "type": "address"
        }
      ],
      "name": "balanceOf",
      "outputs": [
        {
          "internalType": "uint256",
          "name": "",
          "type": "uint256"
        }
      ],
      "stateMutability": "view",
      "type": "function"
    },
    {
      "inputs": [
        {
          "internalType": "address[]",
          "name": "_addresses",
          "type": "address[]"
        },
        {
          "internalType": "uint256[]",
          "name": "_amounts",
          "type": "uint256[]"
        }
      ],
      "name": "batchMinting",
      "outputs": [],
      "stateMutability": "nonpayable",
      "type": "function"
    },
    {
      "inputs": [
        {
          "internalType": "uint256",
          "name": "amount",
          "type": "uint256"
        }
      ],
      "name": "burn",
      "outputs": [],
      "stateMutability": "nonpayable",
      "type": "function"
    },
    {
      "inputs": [
        {
          "internalType": "address",
          "name": "account",
          "type": "address"
        },
        {
          "internalType": "uint256",
          "name": "amount",
          "type": "uint256"
        }
      ],
      "name": "burnFrom",
      "outputs": [],
      "stateMutability": "nonpayable",
      "type": "function"
    },
    {
      "inputs": [
        {
          "internalType": "uint256",
          "name": "_amount",
          "type": "uint256"
        },
        {
          "internalType": "address",
          "name": "_user",
          "type": "address"
        }
      ],
      "name": "burnOnPurchase",
      "outputs": [],
      "stateMutability": "nonpayable",
      "type": "function"
    },
    {
      "inputs": [],
      "name": "decimals",
      "outputs": [
        {
          "internalType": "uint8",
          "name": "",
          "type": "uint8"
        }
      ],
      "stateMutability": "view",
      "type": "function"
    },
    {
      "inputs": [
        {
          "internalType": "address",
          "name": "spender",
          "type": "address"
        },
        {
          "internalType": "uint256",
          "name": "subtractedValue",
          "type": "uint256"
        }
      ],
      "name": "decreaseAllowance",
      "outputs": [
        {
          "internalType": "bool",
          "name": "",
          "type": "bool"
        }
      ],
      "stateMutability": "nonpayable",
      "type": "function"
    },
    {
      "inputs": [
        {
          "internalType": "address",
          "name": "_team",
          "type": "address"
        }
      ],
      "name": "getIsTeamMember",
      "outputs": [
        {
          "internalType": "bool",
          "name": "",
          "type": "bool"
        }
      ],
      "stateMutability": "view",
      "type": "function"
    },
    {
      "inputs": [],
      "name": "getLoyaltyPercentage",
      "outputs": [
        {
          "internalType": "uint256",
          "name": "",
          "type": "uint256"
        }
      ],
      "stateMutability": "view",
      "type": "function"
    },
    {
      "inputs": [],
      "name": "getTaxCollectorAddress",
      "outputs": [
        {
          "internalType": "address",
          "name": "",
          "type": "address"
        }
      ],
      "stateMutability": "view",
      "type": "function"
    },
    {
      "inputs": [],
      "name": "getfee",
      "outputs": [
        {
          "internalType": "uint256",
          "name": "",
          "type": "uint256"
        }
      ],
      "stateMutability": "view",
      "type": "function"
    },
    {
      "inputs": [
        {
          "internalType": "address",
          "name": "spender",
          "type": "address"
        },
        {
          "internalType": "uint256",
          "name": "addedValue",
          "type": "uint256"
        }
      ],
      "name": "increaseAllowance",
      "outputs": [
        {
          "internalType": "bool",
          "name": "",
          "type": "bool"
        }
      ],
      "stateMutability": "nonpayable",
      "type": "function"
    },
    {
      "inputs": [],
      "name": "lockTIme",
      "outputs": [
        {
          "internalType": "uint256",
          "name": "",
          "type": "uint256"
        }
      ],
      "stateMutability": "view",
      "type": "function"
    },
    {
      "inputs": [
        {
          "internalType": "address",
          "name": "to",
          "type": "address"
        },
        {
          "internalType": "uint256",
          "name": "amount",
          "type": "uint256"
        }
      ],
      "name": "mint",
      "outputs": [],
      "stateMutability": "nonpayable",
      "type": "function"
    },
    {
      "inputs": [],
      "name": "name",
      "outputs": [
        {
          "internalType": "string",
          "name": "",
          "type": "string"
        }
      ],
      "stateMutability": "view",
      "type": "function"
    },
    {
      "inputs": [],
      "name": "owner",
      "outputs": [
        {
          "internalType": "address",
          "name": "",
          "type": "address"
        }
      ],
      "stateMutability": "view",
      "type": "function"
    },
    {
      "inputs": [],
      "name": "pause",
      "outputs": [],
      "stateMutability": "nonpayable",
      "type": "function"
    },
    {
      "inputs": [],
      "name": "paused",
      "outputs": [
        {
          "internalType": "bool",
          "name": "",
          "type": "bool"
        }
      ],
      "stateMutability": "view",
      "type": "function"
    },
    {
      "inputs": [
        {
          "internalType": "address",
          "name": "_member",
          "type": "address"
        }
      ],
      "name": "removeMemberAddress",
      "outputs": [],
      "stateMutability": "nonpayable",
      "type": "function"
    },
    {
      "inputs": [],
      "name": "renounceOwnership",
      "outputs": [],
      "stateMutability": "nonpayable",
      "type": "function"
    },
    {
      "inputs": [
        {
          "internalType": "uint256",
          "name": "_fee",
          "type": "uint256"
        }
      ],
      "name": "setFee",
      "outputs": [],
      "stateMutability": "nonpayable",
      "type": "function"
    },
    {
      "inputs": [
        {
          "internalType": "uint256",
          "name": "_loyaltyPercentage",
          "type": "uint256"
        }
      ],
      "name": "setLoyaltyPercentage",
      "outputs": [],
      "stateMutability": "nonpayable",
      "type": "function"
    },
    {
      "inputs": [
        {
          "internalType": "address",
          "name": "_taxCollector",
          "type": "address"
        }
      ],
      "name": "setTaxCollector",
      "outputs": [],
      "stateMutability": "nonpayable",
      "type": "function"
    },
    {
      "inputs": [],
      "name": "symbol",
      "outputs": [
        {
          "internalType": "string",
          "name": "",
          "type": "string"
        }
      ],
      "stateMutability": "view",
      "type": "function"
    },
    {
      "inputs": [],
      "name": "totalSupply",
      "outputs": [
        {
          "internalType": "uint256",
          "name": "",
          "type": "uint256"
        }
      ],
      "stateMutability": "view",
      "type": "function"
    },
    {
      "inputs": [
        {
          "internalType": "address",
          "name": "to",
          "type": "address"
        },
        {
          "internalType": "uint256",
          "name": "_amount",
          "type": "uint256"
        }
      ],
      "name": "transfer",
      "outputs": [
        {
          "internalType": "bool",
          "name": "",
          "type": "bool"
        }
      ],
      "stateMutability": "nonpayable",
      "type": "function"
    },
    {
      "inputs": [
        {
          "internalType": "address",
          "name": "from",
          "type": "address"
        },
        {
          "internalType": "address",
          "name": "to",
          "type": "address"
        },
        {
          "internalType": "address",
          "name": "amount",
          "type": "address"
        }
      ],
      "name": "transferFrom",
      "outputs": [
        {
          "internalType": "bool",
          "name": "",
          "type": "bool"
        }
      ],
      "stateMutability": "nonpayable",
      "type": "function"
    },
    {
      "inputs": [
        {
          "internalType": "address",
          "name": "from",
          "type": "address"
        },
        {
          "internalType": "address",
          "name": "to",
          "type": "address"
        },
        {
          "internalType": "uint256",
          "name": "amount",
          "type": "uint256"
        }
      ],
      "name": "transferFrom",
      "outputs": [
        {
          "internalType": "bool",
          "name": "",
          "type": "bool"
        }
      ],
      "stateMutability": "nonpayable",
      "type": "function"
    },
    {
      "inputs": [
        {
          "internalType": "address",
          "name": "newOwner",
          "type": "address"
        }
      ],
      "name": "transferOwnership",
      "outputs": [],
      "stateMutability": "nonpayable",
      "type": "function"
    },
    {
      "inputs": [
        {
          "internalType": "address",
          "name": "_to",
          "type": "address"
        },
        {
          "internalType": "uint256",
          "name": "_amount",
          "type": "uint256"
        }
      ],
      "name": "transferingTokensOutside",
      "outputs": [],
      "stateMutability": "nonpayable",
      "type": "function"
    },
    {
      "inputs": [],
      "name": "unpause",
      "outputs": [],
      "stateMutability": "nonpayable",
      "type": "function"
    }
  ],
  "bytecode": {
    "object": "0x60806040526107d06006556103e86007553480156200001d57600080fd5b506040518060400160405280600d81526020016c283437b732a137ba2a37b5b2b760991b8152506040518060400160405280600381526020016214109560ea1b81525081600390805190602001906200007892919062000294565b5080516200008e90600490602084019062000294565b50506005805460ff1916905550620000a633620000d2565b620000cc33620000b96012600a6200044f565b620000c690606462000467565b6200012c565b620004e0565b600580546001600160a01b03838116610100818102610100600160a81b031985161790945560405193909204169182907f8be0079c531659141344cd1fd0a4f28419497f9722a3daafe3b4186f6b6457e090600090a35050565b6001600160a01b038216620001885760405162461bcd60e51b815260206004820152601f60248201527f45524332303a206d696e7420746f20746865207a65726f20616464726573730060448201526064015b60405180910390fd5b620001966000838362000223565b8060026000828254620001aa919062000489565b90915550506001600160a01b03821660009081526020819052604081208054839290620001d990849062000489565b90915550506040518181526001600160a01b038316906000907fddf252ad1be2c89b69c2b068fc378daa952ba7f163c4a11628f55a4df523b3ef9060200160405180910390a35050565b6200022d6200024a565b620002458383836200024560201b620008471760201c565b505050565b60055460ff1615620002925760405162461bcd60e51b815260206004820152601060248201526f14185d5cd8589b194e881c185d5cd95960821b60448201526064016200017f565b565b828054620002a290620004a4565b90600052602060002090601f016020900481019282620002c6576000855562000311565b82601f10620002e157805160ff191683800117855562000311565b8280016001018555821562000311579182015b8281111562000311578251825591602001919060010190620002f4565b506200031f92915062000323565b5090565b5b808211156200031f576000815560010162000324565b634e487b7160e01b600052601160045260246000fd5b600181815b80851115620003915781600019048211156200037557620003756200033a565b808516156200038357918102915b93841c939080029062000355565b509250929050565b600082620003aa5750600162000449565b81620003b95750600062000449565b8160018114620003d25760028114620003dd57620003fd565b600191505062000449565b60ff841115620003f157620003f16200033a565b50506001821b62000449565b5060208310610133831016604e8410600b841016171562000422575081810a62000449565b6200042e838362000350565b80600019048211156200044557620004456200033a565b0290505b92915050565b60006200046060ff84168362000399565b9392505050565b60008160001904831182151516156200048457620004846200033a565b500290565b600082198211156200049f576200049f6200033a565b500190565b600181811c90821680620004b957607f821691505b602082108103620004da57634e487b7160e01b600052602260045260246000fd5b50919050565b6118ba80620004f06000396000f3fe608060405234801561001057600080fd5b50600436106102065760003560e01c8063715018a61161011a57806395d89b41116100ad578063c79f474b1161007c578063c79f474b14610422578063d7992d4d1461044e578063dd62ed3e14610461578063ead7a1dc14610474578063f2fde38b1461047d57600080fd5b806395d89b41146103e1578063a457c2d7146103e9578063a9059cbb146103fc578063b54dd7101461040f57600080fd5b80637f422669116100e95780637f422669146103a85780638456cb59146103b0578063864879bb146103b85780638da5cb5b146103cb57600080fd5b8063715018a61461035a578063765dd7a01461036257806379cc6790146103755780637f1bee231461038857600080fd5b8063313ce5671161019d57806340c10f191161016c57806340c10f19146102ed57806342966c68146103005780635c975abb1461031357806369fe0e2d1461031e57806370a082311461033157600080fd5b8063313ce567146102b057806336b59bc4146102bf57806339509351146102d25780633f4ba83a146102e557600080fd5b80630cda45c8116101d95780630cda45c81461027057806318160ddd146102825780631b2903691461028a57806323b872dd1461029d57600080fd5b8063056e31c11461020b57806306fdde031461023357806308695b4114610248578063095ea7b31461025d575b600080fd5b61021e610219366004611440565b610490565b60405190151581526020015b60405180910390f35b61023b6104ec565b60405161022a9190611483565b61025b6102563660046114d8565b61057e565b005b61021e61026b3660046114f3565b6105c8565b6006545b60405190815260200161022a565b600254610274565b61025b61029836600461151d565b6105e0565b61021e6102ab366004611549565b6106a5565b6040516012815260200161022a565b61025b6102cd36600461165b565b6106c9565b61021e6102e03660046114f3565b61084c565b61025b61086e565b61025b6102fb3660046114f3565b610880565b61025b61030e36600461171b565b6108bd565b60055460ff1661021e565b61025b61032c36600461171b565b6108ca565b61027461033f3660046114d8565b6001600160a01b031660009081526020819052604090205490565b61025b610914565b61025b6103703660046114d8565b610926565b61025b6103833660046114f3565b61098c565b6103906109a1565b6040516001600160a01b03909116815260200161022a565b600754610274565b61025b6109bb565b61025b6103c636600461171b565b6109cb565b60055461010090046001600160a01b0316610390565b61023b610a0e565b61021e6103f73660046114f3565b610a1d565b61021e61040a3660046114f3565b610a98565b61025b61041d3660046114f3565b610ad9565b61021e6104303660046114d8565b6001600160a01b031660009081526008602052604090205460ff1690565b61025b61045c3660046114d8565b610b68565b61027461046f366004611734565b610b91565b61027460095481565b61025b61048b3660046114d8565b610bbc565b60405162461bcd60e51b815260206004820152602360248201527f4e696365205472792c205374696c6c206e6f206d6f6e6b65792062757373696e60448201526265737360e81b60648201526000906084015b60405180910390fd5b6060600380546104fb9061175e565b80601f01602080910402602001604051908101604052809291908181526020018280546105279061175e565b80156105745780601f1061054957610100808354040283529160200191610574565b820191906000526020600020905b81548152906001019060200180831161055757829003601f168201915b5050505050905090565b610586610c32565b803b156105a657604051632111dc4760e01b815260040160405180910390fd5b600a80546001600160a01b0319166001600160a01b0392909216919091179055565b6000336105d6818585610c92565b5060019392505050565b3360009081526008602052604090205460ff1661060f5760405162461bcd60e51b81526004016104e390611798565b610617610db6565b81610637826001600160a01b031660009081526020819052604090205490565b10156106565760405163569d45cf60e11b815260040160405180910390fd5b610660818361098c565b604080518381526001600160a01b03831660208201527f63706707d038997d2210eb026bb1339397deab463921538a81bb98e69ee54ca8910160405180910390a15050565b6000336106b3858285610dfc565b6106be858585610e76565b506001949350505050565b3360009081526008602052604090205460ff166106f85760405162461bcd60e51b81526004016104e390611798565b610700610db6565b805182511461072257604051630c17582360e31b815260040160405180910390fd5b60005b82518110156108475760006001600160a01b031683828151811061074b5761074b6117cf565b60200260200101516001600160a01b03160361077a576040516309f9845360e01b815260040160405180910390fd5b6107b683828151811061078f5761078f6117cf565b60200260200101518383815181106107a9576107a96117cf565b602002602001015161104f565b7fe6b392a485300aed5d0afd949a6e7bbb13d3dc1a15efa0a0c1630b48ae54ca468382815181106107e9576107e96117cf565b6020026020010151838381518110610803576108036117cf565b602002602001015160405161082d9291906001600160a01b03929092168252602082015260400190565b60405180910390a18061083f816117fb565b915050610725565b505050565b6000336105d681858561085f8383610b91565b6108699190611814565b610c92565b610876610c32565b61087e61113a565b565b3360009081526008602052604090205460ff166108af5760405162461bcd60e51b81526004016104e390611798565b6108b9828261104f565b5050565b6108c7338261118c565b50565b6108d2610c32565b600681905560408051828152602081018390527fed28c14db89870da08d76b69e3f96d95cbb779778f62a9ea4d4d41dc082d088a91015b60405180910390a150565b61091c610c32565b61087e60006112e6565b61092e610c32565b6001600160a01b03811660009081526008602052604090205460ff16156109685760405163f411c32760e01b815260040160405180910390fd5b6001600160a01b03166000908152600860205260409020805460ff19166001179055565b610997823383610dfc565b6108b9828261118c565b60006109ab610c32565b50600a546001600160a01b031690565b6109c3610c32565b61087e611340565b6109d3610c32565b600781905560408051828152602081018390527f6a83cc218b6e35f4b68868b8cf2a7968201acfd91f619cd387fb092745e5b8dc9101610909565b6060600480546104fb9061175e565b60003381610a2b8286610b91565b905083811015610a8b5760405162461bcd60e51b815260206004820152602560248201527f45524332303a2064656372656173656420616c6c6f77616e63652062656c6f77604482015264207a65726f60d81b60648201526084016104e3565b6106be8286868403610c92565b60405162461bcd60e51b81526020600482015260136024820152724e6f204d6f6e6b65792042757373696e65737360681b60448201526000906064016104e3565b6001600160a01b038216610b0057604051633415fd6160e11b815260040160405180910390fd5b60008111610b215760405163114617e760e21b815260040160405180910390fd5b6000610b2c8261137d565b90506000610b39836113b0565b600a549091503390610b569082906001600160a01b031684610e76565b610b61818685610e76565b5050505050565b610b70610c32565b6001600160a01b03166000908152600860205260409020805460ff19169055565b6001600160a01b03918216600090815260016020908152604080832093909416825291909152205490565b610bc4610c32565b6001600160a01b038116610c295760405162461bcd60e51b815260206004820152602660248201527f4f776e61626c653a206e6577206f776e657220697320746865207a65726f206160448201526564647265737360d01b60648201526084016104e3565b6108c7816112e6565b6005546001600160a01b0361010090910416331461087e5760405162461bcd60e51b815260206004820181905260248201527f4f776e61626c653a2063616c6c6572206973206e6f7420746865206f776e657260448201526064016104e3565b6001600160a01b038316610cf45760405162461bcd60e51b8152602060048201526024808201527f45524332303a20617070726f76652066726f6d20746865207a65726f206164646044820152637265737360e01b60648201526084016104e3565b6001600160a01b038216610d555760405162461bcd60e51b815260206004820152602260248201527f45524332303a20617070726f766520746f20746865207a65726f206164647265604482015261737360f01b60648201526084016104e3565b6001600160a01b0383811660008181526001602090815260408083209487168084529482529182902085905590518481527f8c5be1e5ebec7d5bd14f71427d1e84f3dd0314c0f7b2291e5b200ac8c7c3b925910160405180910390a3505050565b60055460ff161561087e5760405162461bcd60e51b815260206004820152601060248201526f14185d5cd8589b194e881c185d5cd95960821b60448201526064016104e3565b6000610e088484610b91565b90506000198114610e705781811015610e635760405162461bcd60e51b815260206004820152601d60248201527f45524332303a20696e73756666696369656e7420616c6c6f77616e636500000060448201526064016104e3565b610e708484848403610c92565b50505050565b6001600160a01b038316610eda5760405162461bcd60e51b815260206004820152602560248201527f45524332303a207472616e736665722066726f6d20746865207a65726f206164604482015264647265737360d81b60648201526084016104e3565b6001600160a01b038216610f3c5760405162461bcd60e51b815260206004820152602360248201527f45524332303a207472616e7366657220746f20746865207a65726f206164647260448201526265737360e81b60648201526084016104e3565b610f478383836113d3565b6001600160a01b03831660009081526020819052604090205481811015610fbf5760405162461bcd60e51b815260206004820152602660248201527f45524332303a207472616e7366657220616d6f756e7420657863656564732062604482015265616c616e636560d01b60648201526084016104e3565b6001600160a01b03808516600090815260208190526040808220858503905591851681529081208054849290610ff6908490611814565b92505081905550826001600160a01b0316846001600160a01b03167fddf252ad1be2c89b69c2b068fc378daa952ba7f163c4a11628f55a4df523b3ef8460405161104291815260200190565b60405180910390a3610e70565b6001600160a01b0382166110a55760405162461bcd60e51b815260206004820152601f60248201527f45524332303a206d696e7420746f20746865207a65726f20616464726573730060448201526064016104e3565b6110b1600083836113d3565b80600260008282546110c39190611814565b90915550506001600160a01b038216600090815260208190526040812080548392906110f0908490611814565b90915550506040518181526001600160a01b038316906000907fddf252ad1be2c89b69c2b068fc378daa952ba7f163c4a11628f55a4df523b3ef9060200160405180910390a35050565b6111426113db565b6005805460ff191690557f5db9ee0a495bf2e6ff9c91a7834c1ba4fdd244a5e8aa4e537bd38aeae4b073aa335b6040516001600160a01b03909116815260200160405180910390a1565b6001600160a01b0382166111ec5760405162461bcd60e51b815260206004820152602160248201527f45524332303a206275726e2066726f6d20746865207a65726f206164647265736044820152607360f81b60648201526084016104e3565b6111f8826000836113d3565b6001600160a01b0382166000908152602081905260409020548181101561126c5760405162461bcd60e51b815260206004820152602260248201527f45524332303a206275726e20616d6f756e7420657863656564732062616c616e604482015261636560f01b60648201526084016104e3565b6001600160a01b038316600090815260208190526040812083830390556002805484929061129b90849061182c565b90915550506040518281526000906001600160a01b038516907fddf252ad1be2c89b69c2b068fc378daa952ba7f163c4a11628f55a4df523b3ef9060200160405180910390a3505050565b600580546001600160a01b03838116610100818102610100600160a81b031985161790945560405193909204169182907f8be0079c531659141344cd1fd0a4f28419497f9722a3daafe3b4186f6b6457e090600090a35050565b611348610db6565b6005805460ff191660011790557f62e78cea01bee320cd4e420270b5ea74000d11b0c9f74754ebdbfc544b05a25861116f3390565b600080600654612710611390919061182c565b905061271061139f8285611843565b6113a99190611862565b9392505050565b6000612710600654836113c39190611843565b6113cd9190611862565b92915050565b610847610db6565b60055460ff1661087e5760405162461bcd60e51b815260206004820152601460248201527314185d5cd8589b194e881b9bdd081c185d5cd95960621b60448201526064016104e3565b80356001600160a01b038116811461143b57600080fd5b919050565b60008060006060848603121561145557600080fd5b61145e84611424565b925061146c60208501611424565b915061147a60408501611424565b90509250925092565b600060208083528351808285015260005b818110156114b057858101830151858201604001528201611494565b818111156114c2576000604083870101525b50601f01601f1916929092016040019392505050565b6000602082840312156114ea57600080fd5b6113a982611424565b6000806040838503121561150657600080fd5b61150f83611424565b946020939093013593505050565b6000806040838503121561153057600080fd5b8235915061154060208401611424565b90509250929050565b60008060006060848603121561155e57600080fd5b61156784611424565b925061157560208501611424565b9150604084013590509250925092565b634e487b7160e01b600052604160045260246000fd5b604051601f8201601f1916810167ffffffffffffffff811182821017156115c4576115c4611585565b604052919050565b600067ffffffffffffffff8211156115e6576115e6611585565b5060051b60200190565b600082601f83011261160157600080fd5b81356020611616611611836115cc565b61159b565b82815260059290921b8401810191818101908684111561163557600080fd5b8286015b848110156116505780358352918301918301611639565b509695505050505050565b6000806040838503121561166e57600080fd5b823567ffffffffffffffff8082111561168657600080fd5b818501915085601f83011261169a57600080fd5b813560206116aa611611836115cc565b82815260059290921b840181019181810190898411156116c957600080fd5b948201945b838610156116ee576116df86611424565b825294820194908201906116ce565b9650508601359250508082111561170457600080fd5b50611711858286016115f0565b9150509250929050565b60006020828403121561172d57600080fd5b5035919050565b6000806040838503121561174757600080fd5b61175083611424565b915061154060208401611424565b600181811c9082168061177257607f821691505b60208210810361179257634e487b7160e01b600052602260045260246000fd5b50919050565b60208082526018908201527f596f7520617265206e6f742070617274206f66207465616d0000000000000000604082015260600190565b634e487b7160e01b600052603260045260246000fd5b634e487b7160e01b600052601160045260246000fd5b60006001820161180d5761180d6117e5565b5060010190565b60008219821115611827576118276117e5565b500190565b60008282101561183e5761183e6117e5565b500390565b600081600019048311821515161561185d5761185d6117e5565b500290565b60008261187f57634e487b7160e01b600052601260045260246000fd5b50049056fea26469706673582212206fe4b497ce8a6c3f2cdb7efd82ab3b88bb42efe0b2019be6d32124a4ed10043364736f6c634300080e0033",
    "linkReferences": {}
  },
  "methodIdentifiers": {
    "addTeamAddress(address)": "765dd7a0",
    "allowance(address,address)": "dd62ed3e",
    "approve(address,uint256)": "095ea7b3",
    "balanceOf(address)": "70a08231",
    "batchMinting(address[],uint256[])": "36b59bc4",
    "burn(uint256)": "42966c68",
    "burnFrom(address,uint256)": "79cc6790",
    "burnOnPurchase(uint256,address)": "1b290369",
    "decimals()": "313ce567",
    "decreaseAllowance(address,uint256)": "a457c2d7",
    "getIsTeamMember(address)": "c79f474b",
    "getLoyaltyPercentage()": "7f422669",
    "getTaxCollectorAddress()": "7f1bee23",
    "getfee()": "0cda45c8",
    "increaseAllowance(address,uint256)": "39509351",
    "lockTIme()": "ead7a1dc",
    "mint(address,uint256)": "40c10f19",
    "name()": "06fdde03",
    "owner()": "8da5cb5b",
    "pause()": "8456cb59",
    "paused()": "5c975abb",
    "removeMemberAddress(address)": "d7992d4d",
    "renounceOwnership()": "715018a6",
    "setFee(uint256)": "69fe0e2d",
    "setLoyaltyPercentage(uint256)": "864879bb",
    "setTaxCollector(address)": "08695b41",
    "symbol()": "95d89b41",
    "totalSupply()": "18160ddd",
    "transfer(address,uint256)": "a9059cbb",
    "transferFrom(address,address,address)": "056e31c1",
    "transferFrom(address,address,uint256)": "23b872dd",
    "transferOwnership(address)": "f2fde38b",
    "transferingTokensOutside(address,uint256)": "b54dd710",
    "unpause()": "3f4ba83a"
  },
  "id": 18
}