{
  "abi": [
    {
      "inputs": [],
      "stateMutability": "nonpayable",
      "type": "constructor"
    },
    {
      "anonymous": false,
      "inputs": [
        {
          "indexed": true,
          "internalType": "address",
          "name": "owner",
          "type": "address"
        },
        {
          "indexed": true,
          "internalType": "address",
          "name": "spender",
          "type": "address"
        },
        {
          "indexed": false,
          "internalType": "uint256",
          "name": "value",
          "type": "uint256"
        }
      ],
      "name": "Approval",
      "type": "event"
    },
    {
      "anonymous": false,
      "inputs": [
        {
          "indexed": true,
          "internalType": "address",
          "name": "previousOwner",
          "type": "address"
        },
        {
          "indexed": true,
          "internalType": "address",
          "name": "newOwner",
          "type": "address"
        }
      ],
      "name": "OwnershipTransferred",
      "type": "event"
    },
    {
      "anonymous": false,
      "inputs": [
        {
          "indexed": false,
          "internalType": "address",
          "name": "account",
          "type": "address"
        }
      ],
      "name": "Paused",
      "type": "event"
    },
    {
      "anonymous": false,
      "inputs": [
        {
          "indexed": true,
          "internalType": "address",
          "name": "from",
          "type": "address"
        },
        {
          "indexed": true,
          "internalType": "address",
          "name": "to",
          "type": "address"
        },
        {
          "indexed": false,
          "internalType": "uint256",
          "name": "value",
          "type": "uint256"
        }
      ],
      "name": "Transfer",
      "type": "event"
    },
    {
      "anonymous": false,
      "inputs": [
        {
          "indexed": false,
          "internalType": "address",
          "name": "account",
          "type": "address"
        }
      ],
      "name": "Unpaused",
      "type": "event"
    },
    {
      "inputs": [
        {
          "internalType": "address",
          "name": "owner",
          "type": "address"
        },
        {
          "internalType": "address",
          "name": "spender",
          "type": "address"
        }
      ],
      "name": "allowance",
      "outputs": [
        {
          "internalType": "uint256",
          "name": "",
          "type": "uint256"
        }
      ],
      "stateMutability": "view",
      "type": "function"
    },
    {
      "inputs": [
        {
          "internalType": "address",
          "name": "spender",
          "type": "address"
        },
        {
          "internalType": "uint256",
          "name": "amount",
          "type": "uint256"
        }
      ],
      "name": "approve",
      "outputs": [
        {
          "internalType": "bool",
          "name": "",
          "type": "bool"
        }
      ],
      "stateMutability": "nonpayable",
      "type": "function"
    },
    {
      "inputs": [
        {
          "internalType": "address",
          "name": "account",
          "type": "address"
        }
      ],
      "name": "balanceOf",
      "outputs": [
        {
          "internalType": "uint256",
          "name": "",
          "type": "uint256"
        }
      ],
      "stateMutability": "view",
      "type": "function"
    },
    {
      "inputs": [
        {
          "internalType": "uint256",
          "name": "amount",
          "type": "uint256"
        }
      ],
      "name": "burn",
      "outputs": [],
      "stateMutability": "nonpayable",
      "type": "function"
    },
    {
      "inputs": [
        {
          "internalType": "address",
          "name": "account",
          "type": "address"
        },
        {
          "internalType": "uint256",
          "name": "amount",
          "type": "uint256"
        }
      ],
      "name": "burnFrom",
      "outputs": [],
      "stateMutability": "nonpayable",
      "type": "function"
    },
    {
      "inputs": [],
      "name": "decimals",
      "outputs": [
        {
          "internalType": "uint8",
          "name": "",
          "type": "uint8"
        }
      ],
      "stateMutability": "view",
      "type": "function"
    },
    {
      "inputs": [
        {
          "internalType": "address",
          "name": "spender",
          "type": "address"
        },
        {
          "internalType": "uint256",
          "name": "subtractedValue",
          "type": "uint256"
        }
      ],
      "name": "decreaseAllowance",
      "outputs": [
        {
          "internalType": "bool",
          "name": "",
          "type": "bool"
        }
      ],
      "stateMutability": "nonpayable",
      "type": "function"
    },
    {
      "inputs": [
        {
          "internalType": "address",
          "name": "spender",
          "type": "address"
        },
        {
          "internalType": "uint256",
          "name": "addedValue",
          "type": "uint256"
        }
      ],
      "name": "increaseAllowance",
      "outputs": [
        {
          "internalType": "bool",
          "name": "",
          "type": "bool"
        }
      ],
      "stateMutability": "nonpayable",
      "type": "function"
    },
    {
      "inputs": [
        {
          "internalType": "address",
          "name": "to",
          "type": "address"
        },
        {
          "internalType": "uint256",
          "name": "amount",
          "type": "uint256"
        }
      ],
      "name": "mint",
      "outputs": [],
      "stateMutability": "nonpayable",
      "type": "function"
    },
    {
      "inputs": [],
      "name": "name",
      "outputs": [
        {
          "internalType": "string",
          "name": "",
          "type": "string"
        }
      ],
      "stateMutability": "view",
      "type": "function"
    },
    {
      "inputs": [],
      "name": "owner",
      "outputs": [
        {
          "internalType": "address",
          "name": "",
          "type": "address"
        }
      ],
      "stateMutability": "view",
      "type": "function"
    },
    {
      "inputs": [],
      "name": "pause",
      "outputs": [],
      "stateMutability": "nonpayable",
      "type": "function"
    },
    {
      "inputs": [],
      "name": "paused",
      "outputs": [
        {
          "internalType": "bool",
          "name": "",
          "type": "bool"
        }
      ],
      "stateMutability": "view",
      "type": "function"
    },
    {
      "inputs": [],
      "name": "renounceOwnership",
      "outputs": [],
      "stateMutability": "nonpayable",
      "type": "function"
    },
    {
      "inputs": [],
      "name": "symbol",
      "outputs": [
        {
          "internalType": "string",
          "name": "",
          "type": "string"
        }
      ],
      "stateMutability": "view",
      "type": "function"
    },
    {
      "inputs": [],
      "name": "totalSupply",
      "outputs": [
        {
          "internalType": "uint256",
          "name": "",
          "type": "uint256"
        }
      ],
      "stateMutability": "view",
      "type": "function"
    },
    {
      "inputs": [
        {
          "internalType": "address",
          "name": "to",
          "type": "address"
        },
        {
          "internalType": "uint256",
          "name": "_amount",
          "type": "uint256"
        }
      ],
      "name": "transfer",
      "outputs": [
        {
          "internalType": "bool",
          "name": "",
          "type": "bool"
        }
      ],
      "stateMutability": "nonpayable",
      "type": "function"
    },
    {
      "inputs": [
        {
          "internalType": "address",
          "name": "from",
          "type": "address"
        },
        {
          "internalType": "address",
          "name": "to",
          "type": "address"
        },
        {
          "internalType": "address",
          "name": "amount",
          "type": "address"
        }
      ],
      "name": "transferFrom",
      "outputs": [
        {
          "internalType": "bool",
          "name": "",
          "type": "bool"
        }
      ],
      "stateMutability": "nonpayable",
      "type": "function"
    },
    {
      "inputs": [
        {
          "internalType": "address",
          "name": "from",
          "type": "address"
        },
        {
          "internalType": "address",
          "name": "to",
          "type": "address"
        },
        {
          "internalType": "uint256",
          "name": "amount",
          "type": "uint256"
        }
      ],
      "name": "transferFrom",
      "outputs": [
        {
          "internalType": "bool",
          "name": "",
          "type": "bool"
        }
      ],
      "stateMutability": "nonpayable",
      "type": "function"
    },
    {
      "inputs": [
        {
          "internalType": "address",
          "name": "newOwner",
          "type": "address"
        }
      ],
      "name": "transferOwnership",
      "outputs": [],
      "stateMutability": "nonpayable",
      "type": "function"
    },
    {
      "inputs": [],
      "name": "unpause",
      "outputs": [],
      "stateMutability": "nonpayable",
      "type": "function"
    }
  ],
  "bytecode": {
    "object": "0x60806040523480156200001157600080fd5b506040518060400160405280600d81526020016c283437b732a137ba2a37b5b2b760991b8152506040518060400160405280600381526020016214109560ea1b81525081600390805190602001906200006c92919062000288565b5080516200008290600490602084019062000288565b50506005805460ff19169055506200009a33620000c6565b620000c033620000ad6012600a62000443565b620000ba9060646200045b565b62000120565b620004d4565b600580546001600160a01b03838116610100818102610100600160a81b031985161790945560405193909204169182907f8be0079c531659141344cd1fd0a4f28419497f9722a3daafe3b4186f6b6457e090600090a35050565b6001600160a01b0382166200017c5760405162461bcd60e51b815260206004820152601f60248201527f45524332303a206d696e7420746f20746865207a65726f20616464726573730060448201526064015b60405180910390fd5b6200018a6000838362000217565b80600260008282546200019e91906200047d565b90915550506001600160a01b03821660009081526020819052604081208054839290620001cd9084906200047d565b90915550506040518181526001600160a01b038316906000907fddf252ad1be2c89b69c2b068fc378daa952ba7f163c4a11628f55a4df523b3ef9060200160405180910390a35050565b620002216200023e565b620002398383836200023960201b620006521760201c565b505050565b60055460ff1615620002865760405162461bcd60e51b815260206004820152601060248201526f14185d5cd8589b194e881c185d5cd95960821b604482015260640162000173565b565b828054620002969062000498565b90600052602060002090601f016020900481019282620002ba576000855562000305565b82601f10620002d557805160ff191683800117855562000305565b8280016001018555821562000305579182015b8281111562000305578251825591602001919060010190620002e8565b506200031392915062000317565b5090565b5b8082111562000313576000815560010162000318565b634e487b7160e01b600052601160045260246000fd5b600181815b80851115620003855781600019048211156200036957620003696200032e565b808516156200037757918102915b93841c939080029062000349565b509250929050565b6000826200039e575060016200043d565b81620003ad575060006200043d565b8160018114620003c65760028114620003d157620003f1565b60019150506200043d565b60ff841115620003e557620003e56200032e565b50506001821b6200043d565b5060208310610133831016604e8410600b841016171562000416575081810a6200043d565b62000422838362000344565b80600019048211156200043957620004396200032e565b0290505b92915050565b60006200045460ff8416836200038d565b9392505050565b60008160001904831182151516156200047857620004786200032e565b500290565b600082198211156200049357620004936200032e565b500190565b600181811c90821680620004ad57607f821691505b602082108103620004ce57634e487b7160e01b600052602260045260246000fd5b50919050565b61103080620004e46000396000f3fe608060405234801561001057600080fd5b50600436106101375760003560e01c80635c975abb116100b85780638da5cb5b1161007c5780638da5cb5b1461025a57806395d89b4114610283578063a457c2d71461028b578063a9059cbb1461029e578063dd62ed3e146102b1578063f2fde38b146102c457600080fd5b80635c975abb1461020357806370a082311461020e578063715018a61461023757806379cc67901461023f5780638456cb591461025257600080fd5b8063313ce567116100ff578063313ce567146101b157806339509351146101c05780633f4ba83a146101d357806340c10f19146101dd57806342966c68146101f057600080fd5b8063056e31c11461013c57806306fdde0314610164578063095ea7b31461017957806318160ddd1461018c57806323b872dd1461019e575b600080fd5b61014f61014a366004610e0f565b6102d7565b60405190151581526020015b60405180910390f35b61016c610333565b60405161015b9190610e52565b61014f610187366004610ea7565b6103c5565b6002545b60405190815260200161015b565b61014f6101ac366004610ed1565b6103dd565b6040516012815260200161015b565b61014f6101ce366004610ea7565b610401565b6101db610423565b005b6101db6101eb366004610ea7565b610435565b6101db6101fe366004610f0d565b6104a2565b60055460ff1661014f565b61019061021c366004610f26565b6001600160a01b031660009081526020819052604090205490565b6101db6104af565b6101db61024d366004610ea7565b6104c1565b6101db6104d6565b60055461010090046001600160a01b03166040516001600160a01b03909116815260200161015b565b61016c6104e6565b61014f610299366004610ea7565b6104f5565b61014f6102ac366004610ea7565b610570565b6101906102bf366004610f48565b6105b1565b6101db6102d2366004610f26565b6105dc565b60405162461bcd60e51b815260206004820152602360248201527f4e696365205472792c205374696c6c206e6f206d6f6e6b65792062757373696e60448201526265737360e81b60648201526000906084015b60405180910390fd5b60606003805461034290610f7b565b80601f016020809104026020016040519081016040528092919081815260200182805461036e90610f7b565b80156103bb5780601f10610390576101008083540402835291602001916103bb565b820191906000526020600020905b81548152906001019060200180831161039e57829003601f168201915b5050505050905090565b6000336103d3818585610657565b5060019392505050565b6000336103eb85828561077b565b6103f68585856107f5565b506001949350505050565b6000336103d381858561041483836105b1565b61041e9190610fcb565b610657565b61042b6109ce565b610433610a2e565b565b3360009081526006602052604090205460ff166104945760405162461bcd60e51b815260206004820152601860248201527f596f7520617265206e6f742070617274206f66207465616d0000000000000000604482015260640161032a565b61049e8282610a80565b5050565b6104ac3382610b6b565b50565b6104b76109ce565b6104336000610cc5565b6104cc82338361077b565b61049e8282610b6b565b6104de6109ce565b610433610d1f565b60606004805461034290610f7b565b6000338161050382866105b1565b9050838110156105635760405162461bcd60e51b815260206004820152602560248201527f45524332303a2064656372656173656420616c6c6f77616e63652062656c6f77604482015264207a65726f60d81b606482015260840161032a565b6103f68286868403610657565b60405162461bcd60e51b81526020600482015260136024820152724e6f204d6f6e6b65792042757373696e65737360681b604482015260009060640161032a565b6001600160a01b03918216600090815260016020908152604080832093909416825291909152205490565b6105e46109ce565b6001600160a01b0381166106495760405162461bcd60e51b815260206004820152602660248201527f4f776e61626c653a206e6577206f776e657220697320746865207a65726f206160448201526564647265737360d01b606482015260840161032a565b6104ac81610cc5565b505050565b6001600160a01b0383166106b95760405162461bcd60e51b8152602060048201526024808201527f45524332303a20617070726f76652066726f6d20746865207a65726f206164646044820152637265737360e01b606482015260840161032a565b6001600160a01b03821661071a5760405162461bcd60e51b815260206004820152602260248201527f45524332303a20617070726f766520746f20746865207a65726f206164647265604482015261737360f01b606482015260840161032a565b6001600160a01b0383811660008181526001602090815260408083209487168084529482529182902085905590518481527f8c5be1e5ebec7d5bd14f71427d1e84f3dd0314c0f7b2291e5b200ac8c7c3b925910160405180910390a3505050565b600061078784846105b1565b905060001981146107ef57818110156107e25760405162461bcd60e51b815260206004820152601d60248201527f45524332303a20696e73756666696369656e7420616c6c6f77616e6365000000604482015260640161032a565b6107ef8484848403610657565b50505050565b6001600160a01b0383166108595760405162461bcd60e51b815260206004820152602560248201527f45524332303a207472616e736665722066726f6d20746865207a65726f206164604482015264647265737360d81b606482015260840161032a565b6001600160a01b0382166108bb5760405162461bcd60e51b815260206004820152602360248201527f45524332303a207472616e7366657220746f20746865207a65726f206164647260448201526265737360e81b606482015260840161032a565b6108c6838383610d5c565b6001600160a01b0383166000908152602081905260409020548181101561093e5760405162461bcd60e51b815260206004820152602660248201527f45524332303a207472616e7366657220616d6f756e7420657863656564732062604482015265616c616e636560d01b606482015260840161032a565b6001600160a01b03808516600090815260208190526040808220858503905591851681529081208054849290610975908490610fcb565b92505081905550826001600160a01b0316846001600160a01b03167fddf252ad1be2c89b69c2b068fc378daa952ba7f163c4a11628f55a4df523b3ef846040516109c191815260200190565b60405180910390a36107ef565b6005546001600160a01b036101009091041633146104335760405162461bcd60e51b815260206004820181905260248201527f4f776e61626c653a2063616c6c6572206973206e6f7420746865206f776e6572604482015260640161032a565b610a36610d64565b6005805460ff191690557f5db9ee0a495bf2e6ff9c91a7834c1ba4fdd244a5e8aa4e537bd38aeae4b073aa335b6040516001600160a01b03909116815260200160405180910390a1565b6001600160a01b038216610ad65760405162461bcd60e51b815260206004820152601f60248201527f45524332303a206d696e7420746f20746865207a65726f206164647265737300604482015260640161032a565b610ae260008383610d5c565b8060026000828254610af49190610fcb565b90915550506001600160a01b03821660009081526020819052604081208054839290610b21908490610fcb565b90915550506040518181526001600160a01b038316906000907fddf252ad1be2c89b69c2b068fc378daa952ba7f163c4a11628f55a4df523b3ef9060200160405180910390a35050565b6001600160a01b038216610bcb5760405162461bcd60e51b815260206004820152602160248201527f45524332303a206275726e2066726f6d20746865207a65726f206164647265736044820152607360f81b606482015260840161032a565b610bd782600083610d5c565b6001600160a01b03821660009081526020819052604090205481811015610c4b5760405162461bcd60e51b815260206004820152602260248201527f45524332303a206275726e20616d6f756e7420657863656564732062616c616e604482015261636560f01b606482015260840161032a565b6001600160a01b0383166000908152602081905260408120838303905560028054849290610c7a908490610fe3565b90915550506040518281526000906001600160a01b038516907fddf252ad1be2c89b69c2b068fc378daa952ba7f163c4a11628f55a4df523b3ef9060200160405180910390a3505050565b600580546001600160a01b03838116610100818102610100600160a81b031985161790945560405193909204169182907f8be0079c531659141344cd1fd0a4f28419497f9722a3daafe3b4186f6b6457e090600090a35050565b610d27610dad565b6005805460ff191660011790557f62e78cea01bee320cd4e420270b5ea74000d11b0c9f74754ebdbfc544b05a258610a633390565b610652610dad565b60055460ff166104335760405162461bcd60e51b815260206004820152601460248201527314185d5cd8589b194e881b9bdd081c185d5cd95960621b604482015260640161032a565b60055460ff16156104335760405162461bcd60e51b815260206004820152601060248201526f14185d5cd8589b194e881c185d5cd95960821b604482015260640161032a565b80356001600160a01b0381168114610e0a57600080fd5b919050565b600080600060608486031215610e2457600080fd5b610e2d84610df3565b9250610e3b60208501610df3565b9150610e4960408501610df3565b90509250925092565b600060208083528351808285015260005b81811015610e7f57858101830151858201604001528201610e63565b81811115610e91576000604083870101525b50601f01601f1916929092016040019392505050565b60008060408385031215610eba57600080fd5b610ec383610df3565b946020939093013593505050565b600080600060608486031215610ee657600080fd5b610eef84610df3565b9250610efd60208501610df3565b9150604084013590509250925092565b600060208284031215610f1f57600080fd5b5035919050565b600060208284031215610f3857600080fd5b610f4182610df3565b9392505050565b60008060408385031215610f5b57600080fd5b610f6483610df3565b9150610f7260208401610df3565b90509250929050565b600181811c90821680610f8f57607f821691505b602082108103610faf57634e487b7160e01b600052602260045260246000fd5b50919050565b634e487b7160e01b600052601160045260246000fd5b60008219821115610fde57610fde610fb5565b500190565b600082821015610ff557610ff5610fb5565b50039056fea2646970667358221220bce69c475c09fa234b898dd4484705d53f067953580e1aa55afbc1e64a8c7b1e64736f6c634300080e0033",
    "linkReferences": {}
  },
  "methodIdentifiers": {
    "allowance(address,address)": "dd62ed3e",
    "approve(address,uint256)": "095ea7b3",
    "balanceOf(address)": "70a08231",
    "burn(uint256)": "42966c68",
    "burnFrom(address,uint256)": "79cc6790",
    "decimals()": "313ce567",
    "decreaseAllowance(address,uint256)": "a457c2d7",
    "increaseAllowance(address,uint256)": "39509351",
    "mint(address,uint256)": "40c10f19",
    "name()": "06fdde03",
    "owner()": "8da5cb5b",
    "pause()": "8456cb59",
    "paused()": "5c975abb",
    "renounceOwnership()": "715018a6",
    "symbol()": "95d89b41",
    "totalSupply()": "18160ddd",
    "transfer(address,uint256)": "a9059cbb",
    "transferFrom(address,address,address)": "056e31c1",
    "transferFrom(address,address,uint256)": "23b872dd",
    "transferOwnership(address)": "f2fde38b",
    "unpause()": "3f4ba83a"
  },
  "id": 19
}