{
  "abi": [
    {
      "inputs": [],
      "stateMutability": "nonpayable",
      "type": "constructor"
    },
    {
      "inputs": [],
      "name": "AlreadyAdded",
      "type": "error"
    },
    {
      "inputs": [],
      "name": "AlreadyRemoved",
      "type": "error"
    },
    {
      "inputs": [],
      "name": "CannotBeAddressZero",
      "type": "error"
    },
    {
      "inputs": [],
      "name": "Insufficient_Balance",
      "type": "error"
    },
    {
      "anonymous": false,
      "inputs": [
        {
          "indexed": true,
          "internalType": "address",
          "name": "owner",
          "type": "address"
        },
        {
          "indexed": true,
          "internalType": "address",
          "name": "spender",
          "type": "address"
        },
        {
          "indexed": false,
          "internalType": "uint256",
          "name": "value",
          "type": "uint256"
        }
      ],
      "name": "Approval",
      "type": "event"
    },
    {
      "anonymous": false,
      "inputs": [
        {
          "indexed": true,
          "internalType": "address",
          "name": "previousOwner",
          "type": "address"
        },
        {
          "indexed": true,
          "internalType": "address",
          "name": "newOwner",
          "type": "address"
        }
      ],
      "name": "OwnershipTransferred",
      "type": "event"
    },
    {
      "anonymous": false,
      "inputs": [
        {
          "indexed": false,
          "internalType": "address",
          "name": "account",
          "type": "address"
        }
      ],
      "name": "Paused",
      "type": "event"
    },
    {
      "anonymous": false,
      "inputs": [
        {
          "indexed": true,
          "internalType": "address",
          "name": "from",
          "type": "address"
        },
        {
          "indexed": true,
          "internalType": "address",
          "name": "to",
          "type": "address"
        },
        {
          "indexed": false,
          "internalType": "uint256",
          "name": "value",
          "type": "uint256"
        }
      ],
      "name": "Transfer",
      "type": "event"
    },
    {
      "anonymous": false,
      "inputs": [
        {
          "indexed": false,
          "internalType": "address",
          "name": "account",
          "type": "address"
        }
      ],
      "name": "Unpaused",
      "type": "event"
    },
    {
      "inputs": [
        {
          "internalType": "address",
          "name": "_contract",
          "type": "address"
        }
      ],
      "name": "addContractAddress",
      "outputs": [],
      "stateMutability": "nonpayable",
      "type": "function"
    },
    {
      "inputs": [
        {
          "internalType": "address",
          "name": "_member",
          "type": "address"
        }
      ],
      "name": "addTeamAddress",
      "outputs": [],
      "stateMutability": "nonpayable",
      "type": "function"
    },
    {
      "inputs": [],
      "name": "allowNativeFunctionality",
      "outputs": [
        {
          "internalType": "bool",
          "name": "",
          "type": "bool"
        }
      ],
      "stateMutability": "view",
      "type": "function"
    },
    {
      "inputs": [
        {
          "internalType": "address",
          "name": "owner",
          "type": "address"
        },
        {
          "internalType": "address",
          "name": "spender",
          "type": "address"
        }
      ],
      "name": "allowance",
      "outputs": [
        {
          "internalType": "uint256",
          "name": "",
          "type": "uint256"
        }
      ],
      "stateMutability": "view",
      "type": "function"
    },
    {
      "inputs": [
        {
          "internalType": "address",
          "name": "spender",
          "type": "address"
        },
        {
          "internalType": "uint256",
          "name": "amount",
          "type": "uint256"
        }
      ],
      "name": "approve",
      "outputs": [
        {
          "internalType": "bool",
          "name": "",
          "type": "bool"
        }
      ],
      "stateMutability": "nonpayable",
      "type": "function"
    },
    {
      "inputs": [
        {
          "internalType": "address",
          "name": "account",
          "type": "address"
        }
      ],
      "name": "balanceOf",
      "outputs": [
        {
          "internalType": "uint256",
          "name": "",
          "type": "uint256"
        }
      ],
      "stateMutability": "view",
      "type": "function"
    },
    {
      "inputs": [
        {
          "internalType": "uint256",
          "name": "amount",
          "type": "uint256"
        }
      ],
      "name": "burn",
      "outputs": [],
      "stateMutability": "nonpayable",
      "type": "function"
    },
    {
      "inputs": [
        {
          "internalType": "address",
          "name": "account",
          "type": "address"
        },
        {
          "internalType": "uint256",
          "name": "amount",
          "type": "uint256"
        }
      ],
      "name": "burnFrom",
      "outputs": [],
      "stateMutability": "nonpayable",
      "type": "function"
    },
    {
      "inputs": [
        {
          "internalType": "address",
          "name": "",
          "type": "address"
        }
      ],
      "name": "contractAccess",
      "outputs": [
        {
          "internalType": "bool",
          "name": "",
          "type": "bool"
        }
      ],
      "stateMutability": "view",
      "type": "function"
    },
    {
      "inputs": [],
      "name": "decimals",
      "outputs": [
        {
          "internalType": "uint8",
          "name": "",
          "type": "uint8"
        }
      ],
      "stateMutability": "view",
      "type": "function"
    },
    {
      "inputs": [
        {
          "internalType": "address",
          "name": "spender",
          "type": "address"
        },
        {
          "internalType": "uint256",
          "name": "subtractedValue",
          "type": "uint256"
        }
      ],
      "name": "decreaseAllowance",
      "outputs": [
        {
          "internalType": "bool",
          "name": "",
          "type": "bool"
        }
      ],
      "stateMutability": "nonpayable",
      "type": "function"
    },
    {
      "inputs": [
        {
          "internalType": "address",
          "name": "spender",
          "type": "address"
        },
        {
          "internalType": "uint256",
          "name": "addedValue",
          "type": "uint256"
        }
      ],
      "name": "increaseAllowance",
      "outputs": [
        {
          "internalType": "bool",
          "name": "",
          "type": "bool"
        }
      ],
      "stateMutability": "nonpayable",
      "type": "function"
    },
    {
      "inputs": [
        {
          "internalType": "address",
          "name": "to",
          "type": "address"
        },
        {
          "internalType": "uint256",
          "name": "amount",
          "type": "uint256"
        }
      ],
      "name": "mint",
      "outputs": [],
      "stateMutability": "nonpayable",
      "type": "function"
    },
    {
      "inputs": [
        {
          "internalType": "address",
          "name": "to",
          "type": "address"
        },
        {
          "internalType": "uint256",
          "name": "amount",
          "type": "uint256"
        }
      ],
      "name": "mintForContract",
      "outputs": [],
      "stateMutability": "nonpayable",
      "type": "function"
    },
    {
      "inputs": [],
      "name": "name",
      "outputs": [
        {
          "internalType": "string",
          "name": "",
          "type": "string"
        }
      ],
      "stateMutability": "view",
      "type": "function"
    },
    {
      "inputs": [],
      "name": "owner",
      "outputs": [
        {
          "internalType": "address",
          "name": "",
          "type": "address"
        }
      ],
      "stateMutability": "view",
      "type": "function"
    },
    {
      "inputs": [],
      "name": "pause",
      "outputs": [],
      "stateMutability": "nonpayable",
      "type": "function"
    },
    {
      "inputs": [],
      "name": "paused",
      "outputs": [
        {
          "internalType": "bool",
          "name": "",
          "type": "bool"
        }
      ],
      "stateMutability": "view",
      "type": "function"
    },
    {
      "inputs": [
        {
          "internalType": "address",
          "name": "_contract",
          "type": "address"
        }
      ],
      "name": "removeContractAddress",
      "outputs": [],
      "stateMutability": "nonpayable",
      "type": "function"
    },
    {
      "inputs": [
        {
          "internalType": "address",
          "name": "_member",
          "type": "address"
        }
      ],
      "name": "removeMemberAddress",
      "outputs": [],
      "stateMutability": "nonpayable",
      "type": "function"
    },
    {
      "inputs": [],
      "name": "renounceOwnership",
      "outputs": [],
      "stateMutability": "nonpayable",
      "type": "function"
    },
    {
      "inputs": [
        {
          "internalType": "bool",
          "name": "_permission",
          "type": "bool"
        }
      ],
      "name": "setNativeFunctionality",
      "outputs": [],
      "stateMutability": "nonpayable",
      "type": "function"
    },
    {
      "inputs": [],
      "name": "symbol",
      "outputs": [
        {
          "internalType": "string",
          "name": "",
          "type": "string"
        }
      ],
      "stateMutability": "view",
      "type": "function"
    },
    {
      "inputs": [
        {
          "internalType": "address",
          "name": "",
          "type": "address"
        }
      ],
      "name": "teamAccessRecord",
      "outputs": [
        {
          "internalType": "bool",
          "name": "",
          "type": "bool"
        }
      ],
      "stateMutability": "view",
      "type": "function"
    },
    {
      "inputs": [],
      "name": "totalSupply",
      "outputs": [
        {
          "internalType": "uint256",
          "name": "",
          "type": "uint256"
        }
      ],
      "stateMutability": "view",
      "type": "function"
    },
    {
      "inputs": [
        {
          "internalType": "address",
          "name": "to",
          "type": "address"
        },
        {
          "internalType": "uint256",
          "name": "amount",
          "type": "uint256"
        }
      ],
      "name": "transfer",
      "outputs": [
        {
          "internalType": "bool",
          "name": "",
          "type": "bool"
        }
      ],
      "stateMutability": "nonpayable",
      "type": "function"
    },
    {
      "inputs": [
        {
          "internalType": "address",
          "name": "from",
          "type": "address"
        },
        {
          "internalType": "address",
          "name": "to",
          "type": "address"
        },
        {
          "internalType": "uint256",
          "name": "amount",
          "type": "uint256"
        }
      ],
      "name": "transferFrom",
      "outputs": [
        {
          "internalType": "bool",
          "name": "",
          "type": "bool"
        }
      ],
      "stateMutability": "nonpayable",
      "type": "function"
    },
    {
      "inputs": [
        {
          "internalType": "address",
          "name": "from",
          "type": "address"
        },
        {
          "internalType": "address",
          "name": "to",
          "type": "address"
        },
        {
          "internalType": "uint256",
          "name": "amount",
          "type": "uint256"
        }
      ],
      "name": "transferFunds",
      "outputs": [],
      "stateMutability": "nonpayable",
      "type": "function"
    },
    {
      "inputs": [
        {
          "internalType": "address",
          "name": "newOwner",
          "type": "address"
        }
      ],
      "name": "transferOwnership",
      "outputs": [],
      "stateMutability": "nonpayable",
      "type": "function"
    },
    {
      "inputs": [],
      "name": "unpause",
      "outputs": [],
      "stateMutability": "nonpayable",
      "type": "function"
    }
  ],
  "bytecode": {
    "object": "0x60806040526005805460ff60a81b191690553480156200001e57600080fd5b506040518060400160405280600d81526020016c283437b732a137ba2a37b5b2b760991b8152506040518060400160405280600381526020016214109560ea1b81525081600390805190602001906200007992919062000295565b5080516200008f90600490602084019062000295565b50506005805460ff1916905550620000a733620000d3565b620000cd33620000ba6012600a62000450565b620000c790606462000468565b6200012d565b620004e1565b600580546001600160a01b03838116610100818102610100600160a81b031985161790945560405193909204169182907f8be0079c531659141344cd1fd0a4f28419497f9722a3daafe3b4186f6b6457e090600090a35050565b6001600160a01b038216620001895760405162461bcd60e51b815260206004820152601f60248201527f45524332303a206d696e7420746f20746865207a65726f20616464726573730060448201526064015b60405180910390fd5b620001976000838362000224565b8060026000828254620001ab91906200048a565b90915550506001600160a01b03821660009081526020819052604081208054839290620001da9084906200048a565b90915550506040518181526001600160a01b038316906000907fddf252ad1be2c89b69c2b068fc378daa952ba7f163c4a11628f55a4df523b3ef9060200160405180910390a35050565b6200022e6200024b565b620002468383836200024660201b620005b11760201c565b505050565b60055460ff1615620002935760405162461bcd60e51b815260206004820152601060248201526f14185d5cd8589b194e881c185d5cd95960821b604482015260640162000180565b565b828054620002a390620004a5565b90600052602060002090601f016020900481019282620002c7576000855562000312565b82601f10620002e257805160ff191683800117855562000312565b8280016001018555821562000312579182015b8281111562000312578251825591602001919060010190620002f5565b506200032092915062000324565b5090565b5b8082111562000320576000815560010162000325565b634e487b7160e01b600052601160045260246000fd5b600181815b80851115620003925781600019048211156200037657620003766200033b565b808516156200038457918102915b93841c939080029062000356565b509250929050565b600082620003ab575060016200044a565b81620003ba575060006200044a565b8160018114620003d35760028114620003de57620003fe565b60019150506200044a565b60ff841115620003f257620003f26200033b565b50506001821b6200044a565b5060208310610133831016604e8410600b841016171562000423575081810a6200044a565b6200042f838362000351565b80600019048211156200044657620004466200033b565b0290505b92915050565b60006200046160ff8416836200039a565b9392505050565b60008160001904831182151516156200048557620004856200033b565b500290565b60008219821115620004a057620004a06200033b565b500190565b600181811c90821680620004ba57607f821691505b602082108103620004db57634e487b7160e01b600052602260045260246000fd5b50919050565b6114ab80620004f16000396000f3fe608060405234801561001057600080fd5b50600436106101da5760003560e01c806370a0823111610104578063a457c2d7116100a2578063cd748abb11610071578063cd748abb146103fe578063d7992d4d14610411578063dd62ed3e14610424578063f2fde38b1461043757600080fd5b8063a457c2d7146103a2578063a6c75fa2146103b5578063a9059cbb146103d8578063b11ce2db146103eb57600080fd5b806379cc6790116100de57806379cc6790146103565780638456cb59146103695780638da5cb5b1461037157806395d89b411461039a57600080fd5b806370a0823114610312578063715018a61461033b578063765dd7a01461034357600080fd5b8063313ce5671161017c57806342966c681161014b57806342966c68146102cd5780635c975abb146102e05780636c797bfd146102eb5780636e695ef5146102fe57600080fd5b8063313ce56714610290578063395093511461029f5780633f4ba83a146102b257806340c10f19146102ba57600080fd5b806318160ddd116101b857806318160ddd1461023557806323b872dd1461024757806324a380631461025a5780632955323c1461026d57600080fd5b806306fdde03146101df578063095ea7b3146101fd5780631501bf0314610220575b600080fd5b6101e761044a565b6040516101f49190611258565b60405180910390f35b61021061020b3660046112c9565b6104dc565b60405190151581526020016101f4565b61023361022e3660046112f3565b6104f4565b005b6002545b6040519081526020016101f4565b6102106102553660046112f3565b6105b6565b61023361026836600461132f565b61065d565b61021061027b366004611358565b60076020526000908152604090205460ff1681565b604051601281526020016101f4565b6102106102ad3660046112c9565b610683565b6102336106a5565b6102336102c83660046112c9565b6106b7565b6102336102db366004611373565b61072c565b60055460ff16610210565b6102336102f9366004611358565b610768565b60055461021090600160a81b900460ff1681565b610239610320366004611358565b6001600160a01b031660009081526020819052604090205490565b6102336107cd565b610233610351366004611358565b6107df565b6102336103643660046112c9565b610845565b61023361085a565b60055461010090046001600160a01b03166040516001600160a01b0390911681526020016101f4565b6101e761086a565b6102106103b03660046112c9565b610879565b6102106103c3366004611358565b60066020526000908152604090205460ff1681565b6102106103e63660046112c9565b6108f4565b6102336103f9366004611358565b610985565b61023361040c3660046112c9565b6109c7565b61023361041f366004611358565b6109f6565b61023961043236600461138c565b610a1f565b610233610445366004611358565b610a4a565b606060038054610459906113bf565b80601f0160208091040260200160405190810160405280929190818152602001828054610485906113bf565b80156104d25780601f106104a7576101008083540402835291602001916104d2565b820191906000526020600020905b8154815290600101906020018083116104b557829003601f168201915b5050505050905090565b6000336104ea818585610ac0565b5060019392505050565b3360009081526007602052604090205460ff1661052c5760405162461bcd60e51b8152600401610523906113f9565b60405180910390fd5b8061054c846001600160a01b031660009081526020819052604090205490565b101561056b57604051633bf1830560e21b815260040160405180910390fd5b6001600160a01b038316158061058857506001600160a01b038216155b156105a6576040516309f9845360e01b815260040160405180910390fd5b6105b1838383610be4565b505050565b600554600090600160a81b900460ff1661060c5760405162461bcd60e51b8152602060048201526017602482015276151a1a5cc81a5cc81b9bdd08185b1b1bddd959081e595d604a1b6044820152606401610523565b3360009081526007602052604090205460ff1661063b5760405162461bcd60e51b8152600401610523906113f9565b33610647858285610dbf565b610652858585610be4565b506001949350505050565b610665610e33565b60058054911515600160a81b0260ff60a81b19909216919091179055565b6000336104ea8185856106968383610a1f565b6106a09190611446565b610ac0565b6106ad610e33565b6106b5610e93565b565b3360009081526006602052604090205460ff166107165760405162461bcd60e51b815260206004820152601860248201527f596f7520617265206e6f742070617274206f66207465616d00000000000000006044820152606401610523565b61071e610ee5565b6107288282610f2b565b5050565b3360009081526007602052604090205460ff1661075b5760405162461bcd60e51b8152600401610523906113f9565b6107653382611016565b50565b610770610e33565b6001600160a01b03811660009081526007602052604090205460ff166107a95760405163f411c32760e01b815260040160405180910390fd5b6001600160a01b03166000908152600760205260409020805460ff19166001179055565b6107d5610e33565b6106b56000611170565b6107e7610e33565b6001600160a01b03811660009081526006602052604090205460ff1615610821576040516355adf54760e11b815260040160405180910390fd5b6001600160a01b03166000908152600660205260409020805460ff19166001179055565b610850823383610dbf565b6107288282611016565b610862610e33565b6106b56111ca565b606060048054610459906113bf565b600033816108878286610a1f565b9050838110156108e75760405162461bcd60e51b815260206004820152602560248201527f45524332303a2064656372656173656420616c6c6f77616e63652062656c6f77604482015264207a65726f60d81b6064820152608401610523565b6106528286868403610ac0565b600554600090600160a81b900460ff1661094a5760405162461bcd60e51b8152602060048201526017602482015276151a1a5cc81a5cc81b9bdd08185b1b1bddd959081e595d604a1b6044820152606401610523565b3360009081526007602052604090205460ff166109795760405162461bcd60e51b8152600401610523906113f9565b336104ea818585610be4565b61098d610e33565b6001600160a01b03811660009081526007602052604090205460ff16156107a95760405163f411c32760e01b815260040160405180910390fd5b3360009081526007602052604090205460ff166107165760405162461bcd60e51b8152600401610523906113f9565b6109fe610e33565b6001600160a01b03166000908152600660205260409020805460ff19169055565b6001600160a01b03918216600090815260016020908152604080832093909416825291909152205490565b610a52610e33565b6001600160a01b038116610ab75760405162461bcd60e51b815260206004820152602660248201527f4f776e61626c653a206e6577206f776e657220697320746865207a65726f206160448201526564647265737360d01b6064820152608401610523565b61076581611170565b6001600160a01b038316610b225760405162461bcd60e51b8152602060048201526024808201527f45524332303a20617070726f76652066726f6d20746865207a65726f206164646044820152637265737360e01b6064820152608401610523565b6001600160a01b038216610b835760405162461bcd60e51b815260206004820152602260248201527f45524332303a20617070726f766520746f20746865207a65726f206164647265604482015261737360f01b6064820152608401610523565b6001600160a01b0383811660008181526001602090815260408083209487168084529482529182902085905590518481527f8c5be1e5ebec7d5bd14f71427d1e84f3dd0314c0f7b2291e5b200ac8c7c3b925910160405180910390a3505050565b6001600160a01b038316610c485760405162461bcd60e51b815260206004820152602560248201527f45524332303a207472616e736665722066726f6d20746865207a65726f206164604482015264647265737360d81b6064820152608401610523565b6001600160a01b038216610caa5760405162461bcd60e51b815260206004820152602360248201527f45524332303a207472616e7366657220746f20746865207a65726f206164647260448201526265737360e81b6064820152608401610523565b610cb5838383611207565b6001600160a01b03831660009081526020819052604090205481811015610d2d5760405162461bcd60e51b815260206004820152602660248201527f45524332303a207472616e7366657220616d6f756e7420657863656564732062604482015265616c616e636560d01b6064820152608401610523565b6001600160a01b03808516600090815260208190526040808220858503905591851681529081208054849290610d64908490611446565b92505081905550826001600160a01b0316846001600160a01b03167fddf252ad1be2c89b69c2b068fc378daa952ba7f163c4a11628f55a4df523b3ef84604051610db091815260200190565b60405180910390a35b50505050565b6000610dcb8484610a1f565b90506000198114610db95781811015610e265760405162461bcd60e51b815260206004820152601d60248201527f45524332303a20696e73756666696369656e7420616c6c6f77616e63650000006044820152606401610523565b610db98484848403610ac0565b6005546001600160a01b036101009091041633146106b55760405162461bcd60e51b815260206004820181905260248201527f4f776e61626c653a2063616c6c6572206973206e6f7420746865206f776e65726044820152606401610523565b610e9b61120f565b6005805460ff191690557f5db9ee0a495bf2e6ff9c91a7834c1ba4fdd244a5e8aa4e537bd38aeae4b073aa335b6040516001600160a01b03909116815260200160405180910390a1565b60055460ff16156106b55760405162461bcd60e51b815260206004820152601060248201526f14185d5cd8589b194e881c185d5cd95960821b6044820152606401610523565b6001600160a01b038216610f815760405162461bcd60e51b815260206004820152601f60248201527f45524332303a206d696e7420746f20746865207a65726f2061646472657373006044820152606401610523565b610f8d60008383611207565b8060026000828254610f9f9190611446565b90915550506001600160a01b03821660009081526020819052604081208054839290610fcc908490611446565b90915550506040518181526001600160a01b038316906000907fddf252ad1be2c89b69c2b068fc378daa952ba7f163c4a11628f55a4df523b3ef9060200160405180910390a35050565b6001600160a01b0382166110765760405162461bcd60e51b815260206004820152602160248201527f45524332303a206275726e2066726f6d20746865207a65726f206164647265736044820152607360f81b6064820152608401610523565b61108282600083611207565b6001600160a01b038216600090815260208190526040902054818110156110f65760405162461bcd60e51b815260206004820152602260248201527f45524332303a206275726e20616d6f756e7420657863656564732062616c616e604482015261636560f01b6064820152608401610523565b6001600160a01b038316600090815260208190526040812083830390556002805484929061112590849061145e565b90915550506040518281526000906001600160a01b038516907fddf252ad1be2c89b69c2b068fc378daa952ba7f163c4a11628f55a4df523b3ef9060200160405180910390a3505050565b600580546001600160a01b03838116610100818102610100600160a81b031985161790945560405193909204169182907f8be0079c531659141344cd1fd0a4f28419497f9722a3daafe3b4186f6b6457e090600090a35050565b6111d2610ee5565b6005805460ff191660011790557f62e78cea01bee320cd4e420270b5ea74000d11b0c9f74754ebdbfc544b05a258610ec83390565b6105b1610ee5565b60055460ff166106b55760405162461bcd60e51b815260206004820152601460248201527314185d5cd8589b194e881b9bdd081c185d5cd95960621b6044820152606401610523565b600060208083528351808285015260005b8181101561128557858101830151858201604001528201611269565b81811115611297576000604083870101525b50601f01601f1916929092016040019392505050565b80356001600160a01b03811681146112c457600080fd5b919050565b600080604083850312156112dc57600080fd5b6112e5836112ad565b946020939093013593505050565b60008060006060848603121561130857600080fd5b611311846112ad565b925061131f602085016112ad565b9150604084013590509250925092565b60006020828403121561134157600080fd5b8135801515811461135157600080fd5b9392505050565b60006020828403121561136a57600080fd5b611351826112ad565b60006020828403121561138557600080fd5b5035919050565b6000806040838503121561139f57600080fd5b6113a8836112ad565b91506113b6602084016112ad565b90509250929050565b600181811c908216806113d357607f821691505b6020821081036113f357634e487b7160e01b600052602260045260246000fd5b50919050565b60208082526019908201527f5468697320636f6e7472616374204e6f7420416c6c6f77656400000000000000604082015260600190565b634e487b7160e01b600052601160045260246000fd5b6000821982111561145957611459611430565b500190565b60008282101561147057611470611430565b50039056fea2646970667358221220a9387779d2e403a5fba906a2400f71b3fddff6e50cbe567258548251c55a343564736f6c634300080e0033",
    "linkReferences": {}
  },
  "methodIdentifiers": {
    "addContractAddress(address)": "b11ce2db",
    "addTeamAddress(address)": "765dd7a0",
    "allowNativeFunctionality()": "6e695ef5",
    "allowance(address,address)": "dd62ed3e",
    "approve(address,uint256)": "095ea7b3",
    "balanceOf(address)": "70a08231",
    "burn(uint256)": "42966c68",
    "burnFrom(address,uint256)": "79cc6790",
    "contractAccess(address)": "2955323c",
    "decimals()": "313ce567",
    "decreaseAllowance(address,uint256)": "a457c2d7",
    "increaseAllowance(address,uint256)": "39509351",
    "mint(address,uint256)": "40c10f19",
    "mintForContract(address,uint256)": "cd748abb",
    "name()": "06fdde03",
    "owner()": "8da5cb5b",
    "pause()": "8456cb59",
    "paused()": "5c975abb",
    "removeContractAddress(address)": "6c797bfd",
    "removeMemberAddress(address)": "d7992d4d",
    "renounceOwnership()": "715018a6",
    "setNativeFunctionality(bool)": "24a38063",
    "symbol()": "95d89b41",
    "teamAccessRecord(address)": "a6c75fa2",
    "totalSupply()": "18160ddd",
    "transfer(address,uint256)": "a9059cbb",
    "transferFrom(address,address,uint256)": "23b872dd",
    "transferFunds(address,address,uint256)": "1501bf03",
    "transferOwnership(address)": "f2fde38b",
    "unpause()": "3f4ba83a"
  },
  "id": 18
}