{
  "abi": [
    {
      "inputs": [],
      "stateMutability": "nonpayable",
      "type": "constructor"
    },
    {
      "inputs": [],
      "name": "AlreadyAdded",
      "type": "error"
    },
    {
      "inputs": [],
      "name": "AlreadyRemoved",
      "type": "error"
    },
    {
      "inputs": [],
      "name": "CannotBeAddressZero",
      "type": "error"
    },
    {
      "inputs": [],
      "name": "Insufficient_Balance",
      "type": "error"
    },
    {
      "anonymous": false,
      "inputs": [
        {
          "indexed": true,
          "internalType": "address",
          "name": "owner",
          "type": "address"
        },
        {
          "indexed": true,
          "internalType": "address",
          "name": "spender",
          "type": "address"
        },
        {
          "indexed": false,
          "internalType": "uint256",
          "name": "value",
          "type": "uint256"
        }
      ],
      "name": "Approval",
      "type": "event"
    },
    {
      "anonymous": false,
      "inputs": [
        {
          "indexed": true,
          "internalType": "address",
          "name": "previousOwner",
          "type": "address"
        },
        {
          "indexed": true,
          "internalType": "address",
          "name": "newOwner",
          "type": "address"
        }
      ],
      "name": "OwnershipTransferred",
      "type": "event"
    },
    {
      "anonymous": false,
      "inputs": [
        {
          "indexed": false,
          "internalType": "address",
          "name": "account",
          "type": "address"
        }
      ],
      "name": "Paused",
      "type": "event"
    },
    {
      "anonymous": false,
      "inputs": [
        {
          "indexed": true,
          "internalType": "address",
          "name": "from",
          "type": "address"
        },
        {
          "indexed": true,
          "internalType": "address",
          "name": "to",
          "type": "address"
        },
        {
          "indexed": false,
          "internalType": "uint256",
          "name": "value",
          "type": "uint256"
        }
      ],
      "name": "Transfer",
      "type": "event"
    },
    {
      "anonymous": false,
      "inputs": [
        {
          "indexed": false,
          "internalType": "address",
          "name": "account",
          "type": "address"
        }
      ],
      "name": "Unpaused",
      "type": "event"
    },
    {
      "inputs": [
        {
          "internalType": "address",
          "name": "_contract",
          "type": "address"
        }
      ],
      "name": "addContractAddress",
      "outputs": [],
      "stateMutability": "nonpayable",
      "type": "function"
    },
    {
      "inputs": [
        {
          "internalType": "address",
          "name": "_member",
          "type": "address"
        }
      ],
      "name": "addTeamAddress",
      "outputs": [],
      "stateMutability": "nonpayable",
      "type": "function"
    },
    {
      "inputs": [
        {
          "internalType": "address",
          "name": "owner",
          "type": "address"
        },
        {
          "internalType": "address",
          "name": "spender",
          "type": "address"
        }
      ],
      "name": "allowance",
      "outputs": [
        {
          "internalType": "uint256",
          "name": "",
          "type": "uint256"
        }
      ],
      "stateMutability": "view",
      "type": "function"
    },
    {
      "inputs": [
        {
          "internalType": "address",
          "name": "spender",
          "type": "address"
        },
        {
          "internalType": "uint256",
          "name": "amount",
          "type": "uint256"
        }
      ],
      "name": "approve",
      "outputs": [
        {
          "internalType": "bool",
          "name": "",
          "type": "bool"
        }
      ],
      "stateMutability": "nonpayable",
      "type": "function"
    },
    {
      "inputs": [
        {
          "internalType": "address",
          "name": "account",
          "type": "address"
        }
      ],
      "name": "balanceOf",
      "outputs": [
        {
          "internalType": "uint256",
          "name": "",
          "type": "uint256"
        }
      ],
      "stateMutability": "view",
      "type": "function"
    },
    {
      "inputs": [
        {
          "internalType": "uint256",
          "name": "amount",
          "type": "uint256"
        }
      ],
      "name": "burn",
      "outputs": [],
      "stateMutability": "nonpayable",
      "type": "function"
    },
    {
      "inputs": [
        {
          "internalType": "address",
          "name": "account",
          "type": "address"
        },
        {
          "internalType": "uint256",
          "name": "amount",
          "type": "uint256"
        }
      ],
      "name": "burnFrom",
      "outputs": [],
      "stateMutability": "nonpayable",
      "type": "function"
    },
    {
      "inputs": [
        {
          "internalType": "address",
          "name": "",
          "type": "address"
        }
      ],
      "name": "contractAccess",
      "outputs": [
        {
          "internalType": "bool",
          "name": "",
          "type": "bool"
        }
      ],
      "stateMutability": "view",
      "type": "function"
    },
    {
      "inputs": [],
      "name": "decimals",
      "outputs": [
        {
          "internalType": "uint8",
          "name": "",
          "type": "uint8"
        }
      ],
      "stateMutability": "view",
      "type": "function"
    },
    {
      "inputs": [
        {
          "internalType": "address",
          "name": "spender",
          "type": "address"
        },
        {
          "internalType": "uint256",
          "name": "subtractedValue",
          "type": "uint256"
        }
      ],
      "name": "decreaseAllowance",
      "outputs": [
        {
          "internalType": "bool",
          "name": "",
          "type": "bool"
        }
      ],
      "stateMutability": "nonpayable",
      "type": "function"
    },
    {
      "inputs": [
        {
          "internalType": "address",
          "name": "spender",
          "type": "address"
        },
        {
          "internalType": "uint256",
          "name": "addedValue",
          "type": "uint256"
        }
      ],
      "name": "increaseAllowance",
      "outputs": [
        {
          "internalType": "bool",
          "name": "",
          "type": "bool"
        }
      ],
      "stateMutability": "nonpayable",
      "type": "function"
    },
    {
      "inputs": [
        {
          "internalType": "address",
          "name": "to",
          "type": "address"
        },
        {
          "internalType": "uint256",
          "name": "amount",
          "type": "uint256"
        }
      ],
      "name": "mint",
      "outputs": [],
      "stateMutability": "nonpayable",
      "type": "function"
    },
    {
      "inputs": [
        {
          "internalType": "address",
          "name": "to",
          "type": "address"
        },
        {
          "internalType": "uint256",
          "name": "amount",
          "type": "uint256"
        }
      ],
      "name": "mintForContract",
      "outputs": [],
      "stateMutability": "nonpayable",
      "type": "function"
    },
    {
      "inputs": [],
      "name": "name",
      "outputs": [
        {
          "internalType": "string",
          "name": "",
          "type": "string"
        }
      ],
      "stateMutability": "view",
      "type": "function"
    },
    {
      "inputs": [],
      "name": "owner",
      "outputs": [
        {
          "internalType": "address",
          "name": "",
          "type": "address"
        }
      ],
      "stateMutability": "view",
      "type": "function"
    },
    {
      "inputs": [],
      "name": "pause",
      "outputs": [],
      "stateMutability": "nonpayable",
      "type": "function"
    },
    {
      "inputs": [],
      "name": "paused",
      "outputs": [
        {
          "internalType": "bool",
          "name": "",
          "type": "bool"
        }
      ],
      "stateMutability": "view",
      "type": "function"
    },
    {
      "inputs": [
        {
          "internalType": "address",
          "name": "_contract",
          "type": "address"
        }
      ],
      "name": "removeContractAddress",
      "outputs": [],
      "stateMutability": "nonpayable",
      "type": "function"
    },
    {
      "inputs": [
        {
          "internalType": "address",
          "name": "_member",
          "type": "address"
        }
      ],
      "name": "removeMemberAddress",
      "outputs": [],
      "stateMutability": "nonpayable",
      "type": "function"
    },
    {
      "inputs": [],
      "name": "renounceOwnership",
      "outputs": [],
      "stateMutability": "nonpayable",
      "type": "function"
    },
    {
      "inputs": [
        {
          "internalType": "bool",
          "name": "_permission",
          "type": "bool"
        }
      ],
      "name": "setNativeFunctionality",
      "outputs": [],
      "stateMutability": "nonpayable",
      "type": "function"
    },
    {
      "inputs": [],
      "name": "symbol",
      "outputs": [
        {
          "internalType": "string",
          "name": "",
          "type": "string"
        }
      ],
      "stateMutability": "view",
      "type": "function"
    },
    {
      "inputs": [
        {
          "internalType": "address",
          "name": "",
          "type": "address"
        }
      ],
      "name": "teamAccessRecord",
      "outputs": [
        {
          "internalType": "bool",
          "name": "",
          "type": "bool"
        }
      ],
      "stateMutability": "view",
      "type": "function"
    },
    {
      "inputs": [],
      "name": "totalSupply",
      "outputs": [
        {
          "internalType": "uint256",
          "name": "",
          "type": "uint256"
        }
      ],
      "stateMutability": "view",
      "type": "function"
    },
    {
      "inputs": [
        {
          "internalType": "address",
          "name": "to",
          "type": "address"
        },
        {
          "internalType": "uint256",
          "name": "amount",
          "type": "uint256"
        }
      ],
      "name": "transfer",
      "outputs": [
        {
          "internalType": "bool",
          "name": "",
          "type": "bool"
        }
      ],
      "stateMutability": "nonpayable",
      "type": "function"
    },
    {
      "inputs": [
        {
          "internalType": "address",
          "name": "from",
          "type": "address"
        },
        {
          "internalType": "address",
          "name": "to",
          "type": "address"
        },
        {
          "internalType": "uint256",
          "name": "amount",
          "type": "uint256"
        }
      ],
      "name": "transferFrom",
      "outputs": [
        {
          "internalType": "bool",
          "name": "",
          "type": "bool"
        }
      ],
      "stateMutability": "nonpayable",
      "type": "function"
    },
    {
      "inputs": [
        {
          "internalType": "address",
          "name": "from",
          "type": "address"
        },
        {
          "internalType": "address",
          "name": "to",
          "type": "address"
        },
        {
          "internalType": "uint256",
          "name": "amount",
          "type": "uint256"
        }
      ],
      "name": "transferFunds",
      "outputs": [],
      "stateMutability": "nonpayable",
      "type": "function"
    },
    {
      "inputs": [
        {
          "internalType": "address",
          "name": "newOwner",
          "type": "address"
        }
      ],
      "name": "transferOwnership",
      "outputs": [],
      "stateMutability": "nonpayable",
      "type": "function"
    },
    {
      "inputs": [],
      "name": "unpause",
      "outputs": [],
      "stateMutability": "nonpayable",
      "type": "function"
    }
  ],
  "bytecode": {
    "object": "0x60806040526005805460ff60a81b191690553480156200001e57600080fd5b506040518060400160405280600d81526020016c283437b732a137ba2a37b5b2b760991b8152506040518060400160405280600381526020016214109560ea1b81525081600390805190602001906200007992919062000295565b5080516200008f90600490602084019062000295565b50506005805460ff1916905550620000a733620000d3565b620000cd33620000ba6012600a62000450565b620000c790606462000468565b6200012d565b620004e1565b600580546001600160a01b03838116610100818102610100600160a81b031985161790945560405193909204169182907f8be0079c531659141344cd1fd0a4f28419497f9722a3daafe3b4186f6b6457e090600090a35050565b6001600160a01b038216620001895760405162461bcd60e51b815260206004820152601f60248201527f45524332303a206d696e7420746f20746865207a65726f20616464726573730060448201526064015b60405180910390fd5b620001976000838362000224565b8060026000828254620001ab91906200048a565b90915550506001600160a01b03821660009081526020819052604081208054839290620001da9084906200048a565b90915550506040518181526001600160a01b038316906000907fddf252ad1be2c89b69c2b068fc378daa952ba7f163c4a11628f55a4df523b3ef9060200160405180910390a35050565b6200022e6200024b565b620002468383836200024660201b620005ba1760201c565b505050565b60055460ff1615620002935760405162461bcd60e51b815260206004820152601060248201526f14185d5cd8589b194e881c185d5cd95960821b604482015260640162000180565b565b828054620002a390620004a5565b90600052602060002090601f016020900481019282620002c7576000855562000312565b82601f10620002e257805160ff191683800117855562000312565b8280016001018555821562000312579182015b8281111562000312578251825591602001919060010190620002f5565b506200032092915062000324565b5090565b5b8082111562000320576000815560010162000325565b634e487b7160e01b600052601160045260246000fd5b600181815b80851115620003925781600019048211156200037657620003766200033b565b808516156200038457918102915b93841c939080029062000356565b509250929050565b600082620003ab575060016200044a565b81620003ba575060006200044a565b8160018114620003d35760028114620003de57620003fe565b60019150506200044a565b60ff841115620003f257620003f26200033b565b50506001821b6200044a565b5060208310610133831016604e8410600b841016171562000423575081810a6200044a565b6200042f838362000351565b80600019048211156200044657620004466200033b565b0290505b92915050565b60006200046160ff8416836200039a565b9392505050565b60008160001904831182151516156200048557620004856200033b565b500290565b60008219821115620004a057620004a06200033b565b500190565b600181811c90821680620004ba57607f821691505b602082108103620004db57634e487b7160e01b600052602260045260246000fd5b50919050565b61141c80620004f16000396000f3fe608060405234801561001057600080fd5b50600436106101cf5760003560e01c806370a0823111610104578063a457c2d7116100a2578063cd748abb11610071578063cd748abb146103df578063d7992d4d146103f2578063dd62ed3e14610405578063f2fde38b1461041857600080fd5b8063a457c2d714610383578063a6c75fa214610396578063a9059cbb146103b9578063b11ce2db146103cc57600080fd5b806379cc6790116100de57806379cc6790146103375780638456cb591461034a5780638da5cb5b1461035257806395d89b411461037b57600080fd5b806370a08231146102f3578063715018a61461031c578063765dd7a01461032457600080fd5b8063313ce5671161017157806340c10f191161014b57806340c10f19146102af57806342966c68146102c25780635c975abb146102d55780636c797bfd146102e057600080fd5b8063313ce5671461028557806339509351146102945780633f4ba83a146102a757600080fd5b806318160ddd116101ad57806318160ddd1461022a57806323b872dd1461023c57806324a380631461024f5780632955323c1461026257600080fd5b806306fdde03146101d4578063095ea7b3146101f25780631501bf0314610215575b600080fd5b6101dc61042b565b6040516101e99190611200565b60405180910390f35b610205610200366004611271565b6104bd565b60405190151581526020016101e9565b61022861022336600461129b565b6104d5565b005b6002545b6040519081526020016101e9565b61020561024a36600461129b565b6105bf565b61022861025d3660046112d7565b610637565b610205610270366004611300565b60076020526000908152604090205460ff1681565b604051601281526020016101e9565b6102056102a2366004611271565b61065d565b61022861067f565b6102286102bd366004611271565b610691565b6102286102d036600461131b565b610706565b60055460ff16610205565b6102286102ee366004611300565b610713565b61022e610301366004611300565b6001600160a01b031660009081526020819052604090205490565b610228610778565b610228610332366004611300565b61078a565b610228610345366004611271565b6107f0565b610228610805565b60055461010090046001600160a01b03166040516001600160a01b0390911681526020016101e9565b6101dc610815565b610205610391366004611271565b610824565b6102056103a4366004611300565b60066020526000908152604090205460ff1681565b6102056103c7366004611271565b61089f565b6102286103da366004611300565b610901565b6102286103ed366004611271565b610943565b610228610400366004611300565b61099e565b61022e610413366004611334565b6109c7565b610228610426366004611300565b6109f2565b60606003805461043a90611367565b80601f016020809104026020016040519081016040528092919081815260200182805461046690611367565b80156104b35780601f10610488576101008083540402835291602001916104b3565b820191906000526020600020905b81548152906001019060200180831161049657829003601f168201915b5050505050905090565b6000336104cb818585610a68565b5060019392505050565b3360009081526007602052604090205460ff166105355760405162461bcd60e51b8152602060048201526019602482015278151a1a5cc818dbdb9d1c9858dd08139bdd08105b1b1bddd959603a1b60448201526064015b60405180910390fd5b80610555846001600160a01b031660009081526020819052604090205490565b101561057457604051633bf1830560e21b815260040160405180910390fd5b6001600160a01b038316158061059157506001600160a01b038216155b156105af576040516309f9845360e01b815260040160405180910390fd5b6105ba838383610b8c565b505050565b600554600090600160a81b900460ff166106155760405162461bcd60e51b8152602060048201526017602482015276151a1a5cc81a5cc81b9bdd08185b1b1bddd959081e595d604a1b604482015260640161052c565b33610621858285610d67565b61062c858585610b8c565b506001949350505050565b61063f610ddb565b60058054911515600160a81b0260ff60a81b19909216919091179055565b6000336104cb81858561067083836109c7565b61067a91906113b7565b610a68565b610687610ddb565b61068f610e3b565b565b3360009081526006602052604090205460ff166106f05760405162461bcd60e51b815260206004820152601860248201527f596f7520617265206e6f742070617274206f66207465616d0000000000000000604482015260640161052c565b6106f8610e8d565b6107028282610ed3565b5050565b6107103382610fbe565b50565b61071b610ddb565b6001600160a01b03811660009081526007602052604090205460ff166107545760405163f411c32760e01b815260040160405180910390fd5b6001600160a01b03166000908152600760205260409020805460ff19166001179055565b610780610ddb565b61068f6000611118565b610792610ddb565b6001600160a01b03811660009081526006602052604090205460ff16156107cc576040516355adf54760e11b815260040160405180910390fd5b6001600160a01b03166000908152600660205260409020805460ff19166001179055565b6107fb823383610d67565b6107028282610fbe565b61080d610ddb565b61068f611172565b60606004805461043a90611367565b6000338161083282866109c7565b9050838110156108925760405162461bcd60e51b815260206004820152602560248201527f45524332303a2064656372656173656420616c6c6f77616e63652062656c6f77604482015264207a65726f60d81b606482015260840161052c565b61062c8286868403610a68565b600554600090600160a81b900460ff166108f55760405162461bcd60e51b8152602060048201526017602482015276151a1a5cc81a5cc81b9bdd08185b1b1bddd959081e595d604a1b604482015260640161052c565b336104cb818585610b8c565b610909610ddb565b6001600160a01b03811660009081526007602052604090205460ff16156107545760405163f411c32760e01b815260040160405180910390fd5b3360009081526007602052604090205460ff166106f05760405162461bcd60e51b8152602060048201526019602482015278151a1a5cc818dbdb9d1c9858dd08139bdd08105b1b1bddd959603a1b604482015260640161052c565b6109a6610ddb565b6001600160a01b03166000908152600660205260409020805460ff19169055565b6001600160a01b03918216600090815260016020908152604080832093909416825291909152205490565b6109fa610ddb565b6001600160a01b038116610a5f5760405162461bcd60e51b815260206004820152602660248201527f4f776e61626c653a206e6577206f776e657220697320746865207a65726f206160448201526564647265737360d01b606482015260840161052c565b61071081611118565b6001600160a01b038316610aca5760405162461bcd60e51b8152602060048201526024808201527f45524332303a20617070726f76652066726f6d20746865207a65726f206164646044820152637265737360e01b606482015260840161052c565b6001600160a01b038216610b2b5760405162461bcd60e51b815260206004820152602260248201527f45524332303a20617070726f766520746f20746865207a65726f206164647265604482015261737360f01b606482015260840161052c565b6001600160a01b0383811660008181526001602090815260408083209487168084529482529182902085905590518481527f8c5be1e5ebec7d5bd14f71427d1e84f3dd0314c0f7b2291e5b200ac8c7c3b925910160405180910390a3505050565b6001600160a01b038316610bf05760405162461bcd60e51b815260206004820152602560248201527f45524332303a207472616e736665722066726f6d20746865207a65726f206164604482015264647265737360d81b606482015260840161052c565b6001600160a01b038216610c525760405162461bcd60e51b815260206004820152602360248201527f45524332303a207472616e7366657220746f20746865207a65726f206164647260448201526265737360e81b606482015260840161052c565b610c5d8383836111af565b6001600160a01b03831660009081526020819052604090205481811015610cd55760405162461bcd60e51b815260206004820152602660248201527f45524332303a207472616e7366657220616d6f756e7420657863656564732062604482015265616c616e636560d01b606482015260840161052c565b6001600160a01b03808516600090815260208190526040808220858503905591851681529081208054849290610d0c9084906113b7565b92505081905550826001600160a01b0316846001600160a01b03167fddf252ad1be2c89b69c2b068fc378daa952ba7f163c4a11628f55a4df523b3ef84604051610d5891815260200190565b60405180910390a35b50505050565b6000610d7384846109c7565b90506000198114610d615781811015610dce5760405162461bcd60e51b815260206004820152601d60248201527f45524332303a20696e73756666696369656e7420616c6c6f77616e6365000000604482015260640161052c565b610d618484848403610a68565b6005546001600160a01b0361010090910416331461068f5760405162461bcd60e51b815260206004820181905260248201527f4f776e61626c653a2063616c6c6572206973206e6f7420746865206f776e6572604482015260640161052c565b610e436111b7565b6005805460ff191690557f5db9ee0a495bf2e6ff9c91a7834c1ba4fdd244a5e8aa4e537bd38aeae4b073aa335b6040516001600160a01b03909116815260200160405180910390a1565b60055460ff161561068f5760405162461bcd60e51b815260206004820152601060248201526f14185d5cd8589b194e881c185d5cd95960821b604482015260640161052c565b6001600160a01b038216610f295760405162461bcd60e51b815260206004820152601f60248201527f45524332303a206d696e7420746f20746865207a65726f206164647265737300604482015260640161052c565b610f35600083836111af565b8060026000828254610f4791906113b7565b90915550506001600160a01b03821660009081526020819052604081208054839290610f749084906113b7565b90915550506040518181526001600160a01b038316906000907fddf252ad1be2c89b69c2b068fc378daa952ba7f163c4a11628f55a4df523b3ef9060200160405180910390a35050565b6001600160a01b03821661101e5760405162461bcd60e51b815260206004820152602160248201527f45524332303a206275726e2066726f6d20746865207a65726f206164647265736044820152607360f81b606482015260840161052c565b61102a826000836111af565b6001600160a01b0382166000908152602081905260409020548181101561109e5760405162461bcd60e51b815260206004820152602260248201527f45524332303a206275726e20616d6f756e7420657863656564732062616c616e604482015261636560f01b606482015260840161052c565b6001600160a01b03831660009081526020819052604081208383039055600280548492906110cd9084906113cf565b90915550506040518281526000906001600160a01b038516907fddf252ad1be2c89b69c2b068fc378daa952ba7f163c4a11628f55a4df523b3ef9060200160405180910390a3505050565b600580546001600160a01b03838116610100818102610100600160a81b031985161790945560405193909204169182907f8be0079c531659141344cd1fd0a4f28419497f9722a3daafe3b4186f6b6457e090600090a35050565b61117a610e8d565b6005805460ff191660011790557f62e78cea01bee320cd4e420270b5ea74000d11b0c9f74754ebdbfc544b05a258610e703390565b6105ba610e8d565b60055460ff1661068f5760405162461bcd60e51b815260206004820152601460248201527314185d5cd8589b194e881b9bdd081c185d5cd95960621b604482015260640161052c565b600060208083528351808285015260005b8181101561122d57858101830151858201604001528201611211565b8181111561123f576000604083870101525b50601f01601f1916929092016040019392505050565b80356001600160a01b038116811461126c57600080fd5b919050565b6000806040838503121561128457600080fd5b61128d83611255565b946020939093013593505050565b6000806000606084860312156112b057600080fd5b6112b984611255565b92506112c760208501611255565b9150604084013590509250925092565b6000602082840312156112e957600080fd5b813580151581146112f957600080fd5b9392505050565b60006020828403121561131257600080fd5b6112f982611255565b60006020828403121561132d57600080fd5b5035919050565b6000806040838503121561134757600080fd5b61135083611255565b915061135e60208401611255565b90509250929050565b600181811c9082168061137b57607f821691505b60208210810361139b57634e487b7160e01b600052602260045260246000fd5b50919050565b634e487b7160e01b600052601160045260246000fd5b600082198211156113ca576113ca6113a1565b500190565b6000828210156113e1576113e16113a1565b50039056fea26469706673582212209fac50757f48b0f0033003f138b0e581f4f48ec21ff58e8dfdb9ed5b83fa3e7e64736f6c634300080e0033",
    "linkReferences": {}
  },
  "methodIdentifiers": {
    "addContractAddress(address)": "b11ce2db",
    "addTeamAddress(address)": "765dd7a0",
    "allowance(address,address)": "dd62ed3e",
    "approve(address,uint256)": "095ea7b3",
    "balanceOf(address)": "70a08231",
    "burn(uint256)": "42966c68",
    "burnFrom(address,uint256)": "79cc6790",
    "contractAccess(address)": "2955323c",
    "decimals()": "313ce567",
    "decreaseAllowance(address,uint256)": "a457c2d7",
    "increaseAllowance(address,uint256)": "39509351",
    "mint(address,uint256)": "40c10f19",
    "mintForContract(address,uint256)": "cd748abb",
    "name()": "06fdde03",
    "owner()": "8da5cb5b",
    "pause()": "8456cb59",
    "paused()": "5c975abb",
    "removeContractAddress(address)": "6c797bfd",
    "removeMemberAddress(address)": "d7992d4d",
    "renounceOwnership()": "715018a6",
    "setNativeFunctionality(bool)": "24a38063",
    "symbol()": "95d89b41",
    "teamAccessRecord(address)": "a6c75fa2",
    "totalSupply()": "18160ddd",
    "transfer(address,uint256)": "a9059cbb",
    "transferFrom(address,address,uint256)": "23b872dd",
    "transferFunds(address,address,uint256)": "1501bf03",
    "transferOwnership(address)": "f2fde38b",
    "unpause()": "3f4ba83a"
  },
  "id": 18
}