{
  "abi": [
    {
      "inputs": [],
      "stateMutability": "nonpayable",
      "type": "constructor"
    },
    {
      "inputs": [],
      "name": "AlreadyAdded",
      "type": "error"
    },
    {
      "inputs": [],
      "name": "AlreadyRemoved",
      "type": "error"
    },
    {
      "inputs": [],
      "name": "CannotBeAddressZero",
      "type": "error"
    },
    {
      "inputs": [],
      "name": "Insufficient_Balance",
      "type": "error"
    },
    {
      "anonymous": false,
      "inputs": [
        {
          "indexed": true,
          "internalType": "address",
          "name": "owner",
          "type": "address"
        },
        {
          "indexed": true,
          "internalType": "address",
          "name": "spender",
          "type": "address"
        },
        {
          "indexed": false,
          "internalType": "uint256",
          "name": "value",
          "type": "uint256"
        }
      ],
      "name": "Approval",
      "type": "event"
    },
    {
      "anonymous": false,
      "inputs": [
        {
          "indexed": true,
          "internalType": "address",
          "name": "previousOwner",
          "type": "address"
        },
        {
          "indexed": true,
          "internalType": "address",
          "name": "newOwner",
          "type": "address"
        }
      ],
      "name": "OwnershipTransferred",
      "type": "event"
    },
    {
      "anonymous": false,
      "inputs": [
        {
          "indexed": false,
          "internalType": "address",
          "name": "account",
          "type": "address"
        }
      ],
      "name": "Paused",
      "type": "event"
    },
    {
      "anonymous": false,
      "inputs": [
        {
          "indexed": true,
          "internalType": "address",
          "name": "from",
          "type": "address"
        },
        {
          "indexed": true,
          "internalType": "address",
          "name": "to",
          "type": "address"
        },
        {
          "indexed": false,
          "internalType": "uint256",
          "name": "value",
          "type": "uint256"
        }
      ],
      "name": "Transfer",
      "type": "event"
    },
    {
      "anonymous": false,
      "inputs": [
        {
          "indexed": false,
          "internalType": "address",
          "name": "account",
          "type": "address"
        }
      ],
      "name": "Unpaused",
      "type": "event"
    },
    {
      "inputs": [
        {
          "internalType": "address",
          "name": "_contract",
          "type": "address"
        }
      ],
      "name": "addContractAddress",
      "outputs": [],
      "stateMutability": "nonpayable",
      "type": "function"
    },
    {
      "inputs": [
        {
          "internalType": "address",
          "name": "_member",
          "type": "address"
        }
      ],
      "name": "addTeamAddress",
      "outputs": [],
      "stateMutability": "nonpayable",
      "type": "function"
    },
    {
      "inputs": [],
      "name": "allowNativeFunctionality",
      "outputs": [
        {
          "internalType": "bool",
          "name": "",
          "type": "bool"
        }
      ],
      "stateMutability": "view",
      "type": "function"
    },
    {
      "inputs": [],
      "name": "allowPurchaseToken",
      "outputs": [
        {
          "internalType": "bool",
          "name": "",
          "type": "bool"
        }
      ],
      "stateMutability": "view",
      "type": "function"
    },
    {
      "inputs": [
        {
          "internalType": "address",
          "name": "owner",
          "type": "address"
        },
        {
          "internalType": "address",
          "name": "spender",
          "type": "address"
        }
      ],
      "name": "allowance",
      "outputs": [
        {
          "internalType": "uint256",
          "name": "",
          "type": "uint256"
        }
      ],
      "stateMutability": "view",
      "type": "function"
    },
    {
      "inputs": [
        {
          "internalType": "address",
          "name": "spender",
          "type": "address"
        },
        {
          "internalType": "uint256",
          "name": "amount",
          "type": "uint256"
        }
      ],
      "name": "approve",
      "outputs": [
        {
          "internalType": "bool",
          "name": "",
          "type": "bool"
        }
      ],
      "stateMutability": "nonpayable",
      "type": "function"
    },
    {
      "inputs": [
        {
          "internalType": "address",
          "name": "account",
          "type": "address"
        }
      ],
      "name": "balanceOf",
      "outputs": [
        {
          "internalType": "uint256",
          "name": "",
          "type": "uint256"
        }
      ],
      "stateMutability": "view",
      "type": "function"
    },
    {
      "inputs": [
        {
          "internalType": "uint256",
          "name": "amount",
          "type": "uint256"
        }
      ],
      "name": "burn",
      "outputs": [],
      "stateMutability": "nonpayable",
      "type": "function"
    },
    {
      "inputs": [
        {
          "internalType": "address",
          "name": "account",
          "type": "address"
        },
        {
          "internalType": "uint256",
          "name": "amount",
          "type": "uint256"
        }
      ],
      "name": "burnFrom",
      "outputs": [],
      "stateMutability": "nonpayable",
      "type": "function"
    },
    {
      "inputs": [
        {
          "internalType": "address",
          "name": "to",
          "type": "address"
        },
        {
          "internalType": "uint256",
          "name": "amount",
          "type": "uint256"
        }
      ],
      "name": "buyToken",
      "outputs": [],
      "stateMutability": "payable",
      "type": "function"
    },
    {
      "inputs": [
        {
          "internalType": "address",
          "name": "",
          "type": "address"
        }
      ],
      "name": "contractAccess",
      "outputs": [
        {
          "internalType": "bool",
          "name": "",
          "type": "bool"
        }
      ],
      "stateMutability": "view",
      "type": "function"
    },
    {
      "inputs": [],
      "name": "decimals",
      "outputs": [
        {
          "internalType": "uint8",
          "name": "",
          "type": "uint8"
        }
      ],
      "stateMutability": "view",
      "type": "function"
    },
    {
      "inputs": [
        {
          "internalType": "address",
          "name": "spender",
          "type": "address"
        },
        {
          "internalType": "uint256",
          "name": "subtractedValue",
          "type": "uint256"
        }
      ],
      "name": "decreaseAllowance",
      "outputs": [
        {
          "internalType": "bool",
          "name": "",
          "type": "bool"
        }
      ],
      "stateMutability": "nonpayable",
      "type": "function"
    },
    {
      "inputs": [],
      "name": "disableNativeFunctionality",
      "outputs": [],
      "stateMutability": "nonpayable",
      "type": "function"
    },
    {
      "inputs": [],
      "name": "disablePurchaseToken",
      "outputs": [],
      "stateMutability": "nonpayable",
      "type": "function"
    },
    {
      "inputs": [],
      "name": "enableNativeFunctionality",
      "outputs": [],
      "stateMutability": "nonpayable",
      "type": "function"
    },
    {
      "inputs": [],
      "name": "enablePurchaseToken",
      "outputs": [],
      "stateMutability": "nonpayable",
      "type": "function"
    },
    {
      "inputs": [
        {
          "internalType": "address",
          "name": "spender",
          "type": "address"
        },
        {
          "internalType": "uint256",
          "name": "addedValue",
          "type": "uint256"
        }
      ],
      "name": "increaseAllowance",
      "outputs": [
        {
          "internalType": "bool",
          "name": "",
          "type": "bool"
        }
      ],
      "stateMutability": "nonpayable",
      "type": "function"
    },
    {
      "inputs": [
        {
          "internalType": "address",
          "name": "to",
          "type": "address"
        },
        {
          "internalType": "uint256",
          "name": "amount",
          "type": "uint256"
        }
      ],
      "name": "mint",
      "outputs": [],
      "stateMutability": "nonpayable",
      "type": "function"
    },
    {
      "inputs": [
        {
          "internalType": "address",
          "name": "to",
          "type": "address"
        },
        {
          "internalType": "uint256",
          "name": "amount",
          "type": "uint256"
        }
      ],
      "name": "mintForContract",
      "outputs": [],
      "stateMutability": "nonpayable",
      "type": "function"
    },
    {
      "inputs": [],
      "name": "name",
      "outputs": [
        {
          "internalType": "string",
          "name": "",
          "type": "string"
        }
      ],
      "stateMutability": "view",
      "type": "function"
    },
    {
      "inputs": [],
      "name": "owner",
      "outputs": [
        {
          "internalType": "address",
          "name": "",
          "type": "address"
        }
      ],
      "stateMutability": "view",
      "type": "function"
    },
    {
      "inputs": [],
      "name": "pause",
      "outputs": [],
      "stateMutability": "nonpayable",
      "type": "function"
    },
    {
      "inputs": [],
      "name": "paused",
      "outputs": [
        {
          "internalType": "bool",
          "name": "",
          "type": "bool"
        }
      ],
      "stateMutability": "view",
      "type": "function"
    },
    {
      "inputs": [
        {
          "internalType": "address",
          "name": "_contract",
          "type": "address"
        }
      ],
      "name": "removeContractAddress",
      "outputs": [],
      "stateMutability": "nonpayable",
      "type": "function"
    },
    {
      "inputs": [
        {
          "internalType": "address",
          "name": "_member",
          "type": "address"
        }
      ],
      "name": "removeMemberAddress",
      "outputs": [],
      "stateMutability": "nonpayable",
      "type": "function"
    },
    {
      "inputs": [],
      "name": "renounceOwnership",
      "outputs": [],
      "stateMutability": "nonpayable",
      "type": "function"
    },
    {
      "inputs": [],
      "name": "symbol",
      "outputs": [
        {
          "internalType": "string",
          "name": "",
          "type": "string"
        }
      ],
      "stateMutability": "view",
      "type": "function"
    },
    {
      "inputs": [
        {
          "internalType": "address",
          "name": "",
          "type": "address"
        }
      ],
      "name": "teamAccessRecord",
      "outputs": [
        {
          "internalType": "bool",
          "name": "",
          "type": "bool"
        }
      ],
      "stateMutability": "view",
      "type": "function"
    },
    {
      "inputs": [],
      "name": "tokenPrice",
      "outputs": [
        {
          "internalType": "uint256",
          "name": "",
          "type": "uint256"
        }
      ],
      "stateMutability": "view",
      "type": "function"
    },
    {
      "inputs": [],
      "name": "totalSupply",
      "outputs": [
        {
          "internalType": "uint256",
          "name": "",
          "type": "uint256"
        }
      ],
      "stateMutability": "view",
      "type": "function"
    },
    {
      "inputs": [
        {
          "internalType": "address",
          "name": "to",
          "type": "address"
        },
        {
          "internalType": "uint256",
          "name": "amount",
          "type": "uint256"
        }
      ],
      "name": "transfer",
      "outputs": [
        {
          "internalType": "bool",
          "name": "",
          "type": "bool"
        }
      ],
      "stateMutability": "nonpayable",
      "type": "function"
    },
    {
      "inputs": [
        {
          "internalType": "address",
          "name": "from",
          "type": "address"
        },
        {
          "internalType": "address",
          "name": "to",
          "type": "address"
        },
        {
          "internalType": "uint256",
          "name": "amount",
          "type": "uint256"
        }
      ],
      "name": "transferFrom",
      "outputs": [
        {
          "internalType": "bool",
          "name": "",
          "type": "bool"
        }
      ],
      "stateMutability": "nonpayable",
      "type": "function"
    },
    {
      "inputs": [
        {
          "internalType": "address",
          "name": "from",
          "type": "address"
        },
        {
          "internalType": "address",
          "name": "to",
          "type": "address"
        },
        {
          "internalType": "uint256",
          "name": "amount",
          "type": "uint256"
        }
      ],
      "name": "transferFunds",
      "outputs": [],
      "stateMutability": "nonpayable",
      "type": "function"
    },
    {
      "inputs": [
        {
          "internalType": "address",
          "name": "newOwner",
          "type": "address"
        }
      ],
      "name": "transferOwnership",
      "outputs": [],
      "stateMutability": "nonpayable",
      "type": "function"
    },
    {
      "inputs": [],
      "name": "unpause",
      "outputs": [],
      "stateMutability": "nonpayable",
      "type": "function"
    }
  ],
  "bytecode": {
    "object": "0x60806040526005805461ffff60a81b191690556103e86006553480156200002557600080fd5b506040518060400160405280600d81526020016c283437b732a137ba2a37b5b2b760991b8152506040518060400160405280600381526020016214109560ea1b8152508160039080519060200190620000809291906200029c565b508051620000969060049060208401906200029c565b50506005805460ff1916905550620000ae33620000da565b620000d433620000c16012600a62000457565b620000ce9060646200046f565b62000134565b620004e8565b600580546001600160a01b03838116610100818102610100600160a81b031985161790945560405193909204169182907f8be0079c531659141344cd1fd0a4f28419497f9722a3daafe3b4186f6b6457e090600090a35050565b6001600160a01b038216620001905760405162461bcd60e51b815260206004820152601f60248201527f45524332303a206d696e7420746f20746865207a65726f20616464726573730060448201526064015b60405180910390fd5b6200019e600083836200022b565b8060026000828254620001b2919062000491565b90915550506001600160a01b03821660009081526020819052604081208054839290620001e190849062000491565b90915550506040518181526001600160a01b038316906000907fddf252ad1be2c89b69c2b068fc378daa952ba7f163c4a11628f55a4df523b3ef9060200160405180910390a35050565b6200023562000252565b6200024d8383836200024d60201b620007ea1760201c565b505050565b60055460ff16156200029a5760405162461bcd60e51b815260206004820152601060248201526f14185d5cd8589b194e881c185d5cd95960821b604482015260640162000187565b565b828054620002aa90620004ac565b90600052602060002090601f016020900481019282620002ce576000855562000319565b82601f10620002e957805160ff191683800117855562000319565b8280016001018555821562000319579182015b8281111562000319578251825591602001919060010190620002fc565b50620003279291506200032b565b5090565b5b808211156200032757600081556001016200032c565b634e487b7160e01b600052601160045260246000fd5b600181815b80851115620003995781600019048211156200037d576200037d62000342565b808516156200038b57918102915b93841c93908002906200035d565b509250929050565b600082620003b25750600162000451565b81620003c15750600062000451565b8160018114620003da5760028114620003e55762000405565b600191505062000451565b60ff841115620003f957620003f962000342565b50506001821b62000451565b5060208310610133831016604e8410600b84101617156200042a575081810a62000451565b62000436838362000358565b80600019048211156200044d576200044d62000342565b0290505b92915050565b60006200046860ff841683620003a1565b9392505050565b60008160001904831182151516156200048c576200048c62000342565b500290565b60008219821115620004a757620004a762000342565b500190565b600181811c90821680620004c157607f821691505b602082108103620004e257634e487b7160e01b600052602260045260246000fd5b50919050565b61178580620004f86000396000f3fe60806040526004361061020f5760003560e01c8063715018a6116101185780639c1eb1a1116100a0578063b11ce2db1161006f578063b11ce2db146105e3578063cd748abb14610603578063d7992d4d14610623578063dd62ed3e14610643578063f2fde38b1461066357600080fd5b80639c1eb1a11461055e578063a457c2d714610573578063a6c75fa214610593578063a9059cbb146105c357600080fd5b80637ff9b596116100e75780637ff9b596146104d35780638456cb59146104e9578063895c843d146104fe5780638da5cb5b1461051357806395d89b411461054957600080fd5b8063715018a61461045d578063765dd7a01461047257806379266e6e1461049257806379cc6790146104b357600080fd5b80633f4ba83a1161019b578063683880091161016a57806368388009146103be57806368f8fc10146103d35780636c797bfd146103e65780636e695ef51461040657806370a082311461042757600080fd5b80633f4ba83a1461035157806340c10f191461036657806342966c68146103865780635c975abb146103a657600080fd5b806323b872dd116101e257806323b872dd146102b057806328c9dfc9146102d05780632955323c146102e5578063313ce56714610315578063395093511461033157600080fd5b806306fdde0314610214578063095ea7b31461023f5780631501bf031461026f57806318160ddd14610291575b600080fd5b34801561022057600080fd5b50610229610683565b6040516102369190611554565b60405180910390f35b34801561024b57600080fd5b5061025f61025a3660046115c5565b610715565b6040519015158152602001610236565b34801561027b57600080fd5b5061028f61028a3660046115ef565b61072d565b005b34801561029d57600080fd5b506002545b604051908152602001610236565b3480156102bc57600080fd5b5061025f6102cb3660046115ef565b6107ef565b3480156102dc57600080fd5b5061028f610896565b3480156102f157600080fd5b5061025f61030036600461162b565b60086020526000908152604090205460ff1681565b34801561032157600080fd5b5060405160128152602001610236565b34801561033d57600080fd5b5061025f61034c3660046115c5565b6108ad565b34801561035d57600080fd5b5061028f6108cf565b34801561037257600080fd5b5061028f6103813660046115c5565b6108e1565b34801561039257600080fd5b5061028f6103a136600461164d565b610956565b3480156103b257600080fd5b5060055460ff1661025f565b3480156103ca57600080fd5b5061028f610992565b61028f6103e13660046115c5565b6109af565b3480156103f257600080fd5b5061028f61040136600461162b565b610a30565b34801561041257600080fd5b5060055461025f90600160a81b900460ff1681565b34801561043357600080fd5b506102a261044236600461162b565b6001600160a01b031660009081526020819052604090205490565b34801561046957600080fd5b5061028f610a95565b34801561047e57600080fd5b5061028f61048d36600461162b565b610aa7565b34801561049e57600080fd5b5060055461025f90600160b01b900460ff1681565b3480156104bf57600080fd5b5061028f6104ce3660046115c5565b610b0d565b3480156104df57600080fd5b506102a260065481565b3480156104f557600080fd5b5061028f610b22565b34801561050a57600080fd5b5061028f610b32565b34801561051f57600080fd5b5060055461010090046001600160a01b03166040516001600160a01b039091168152602001610236565b34801561055557600080fd5b50610229610b4f565b34801561056a57600080fd5b5061028f610b5e565b34801561057f57600080fd5b5061025f61058e3660046115c5565b610b75565b34801561059f57600080fd5b5061025f6105ae36600461162b565b60076020526000908152604090205460ff1681565b3480156105cf57600080fd5b5061025f6105de3660046115c5565b610bf0565b3480156105ef57600080fd5b5061028f6105fe36600461162b565b610c81565b34801561060f57600080fd5b5061028f61061e3660046115c5565b610cc3565b34801561062f57600080fd5b5061028f61063e36600461162b565b610cf2565b34801561064f57600080fd5b506102a261065e366004611666565b610d1b565b34801561066f57600080fd5b5061028f61067e36600461162b565b610d46565b60606003805461069290611699565b80601f01602080910402602001604051908101604052809291908181526020018280546106be90611699565b801561070b5780601f106106e05761010080835404028352916020019161070b565b820191906000526020600020905b8154815290600101906020018083116106ee57829003601f168201915b5050505050905090565b600033610723818585610dbc565b5060019392505050565b3360009081526008602052604090205460ff166107655760405162461bcd60e51b815260040161075c906116d3565b60405180910390fd5b80610785846001600160a01b031660009081526020819052604090205490565b10156107a457604051633bf1830560e21b815260040160405180910390fd5b6001600160a01b03831615806107c157506001600160a01b038216155b156107df576040516309f9845360e01b815260040160405180910390fd5b6107ea838383610ee0565b505050565b600554600090600160a81b900460ff166108455760405162461bcd60e51b8152602060048201526017602482015276151a1a5cc81a5cc81b9bdd08185b1b1bddd959081e595d604a1b604482015260640161075c565b3360009081526008602052604090205460ff166108745760405162461bcd60e51b815260040161075c906116d3565b336108808582856110bb565b61088b858585610ee0565b506001949350505050565b61089e61112f565b6005805460ff60a81b19169055565b6000336107238185856108c08383610d1b565b6108ca9190611720565b610dbc565b6108d761112f565b6108df61118f565b565b3360009081526007602052604090205460ff166109405760405162461bcd60e51b815260206004820152601860248201527f596f7520617265206e6f742070617274206f66207465616d0000000000000000604482015260640161075c565b6109486111e1565b6109528282611227565b5050565b3360009081526008602052604090205460ff166109855760405162461bcd60e51b815260040161075c906116d3565b61098f3382611312565b50565b61099a61112f565b6005805460ff60b01b1916600160b01b179055565b600554600160b01b900460ff16610a015760405162461bcd60e51b8152602060048201526016602482015275151a1a5cc81a5cdb89dd08195b98589b1959081e595d60521b604482015260640161075c565b3360009081526008602052604090205460ff166109485760405162461bcd60e51b815260040161075c906116d3565b610a3861112f565b6001600160a01b03811660009081526008602052604090205460ff16610a715760405163f411c32760e01b815260040160405180910390fd5b6001600160a01b03166000908152600860205260409020805460ff19166001179055565b610a9d61112f565b6108df600061146c565b610aaf61112f565b6001600160a01b03811660009081526007602052604090205460ff1615610ae9576040516355adf54760e11b815260040160405180910390fd5b6001600160a01b03166000908152600760205260409020805460ff19166001179055565b610b188233836110bb565b6109528282611312565b610b2a61112f565b6108df6114c6565b610b3a61112f565b6005805460ff60a81b1916600160a81b179055565b60606004805461069290611699565b610b6661112f565b6005805460ff60b01b19169055565b60003381610b838286610d1b565b905083811015610be35760405162461bcd60e51b815260206004820152602560248201527f45524332303a2064656372656173656420616c6c6f77616e63652062656c6f77604482015264207a65726f60d81b606482015260840161075c565b61088b8286868403610dbc565b600554600090600160a81b900460ff16610c465760405162461bcd60e51b8152602060048201526017602482015276151a1a5cc81a5cc81b9bdd08185b1b1bddd959081e595d604a1b604482015260640161075c565b3360009081526008602052604090205460ff16610c755760405162461bcd60e51b815260040161075c906116d3565b33610723818585610ee0565b610c8961112f565b6001600160a01b03811660009081526008602052604090205460ff1615610a715760405163f411c32760e01b815260040160405180910390fd5b3360009081526008602052604090205460ff166109405760405162461bcd60e51b815260040161075c906116d3565b610cfa61112f565b6001600160a01b03166000908152600760205260409020805460ff19169055565b6001600160a01b03918216600090815260016020908152604080832093909416825291909152205490565b610d4e61112f565b6001600160a01b038116610db35760405162461bcd60e51b815260206004820152602660248201527f4f776e61626c653a206e6577206f776e657220697320746865207a65726f206160448201526564647265737360d01b606482015260840161075c565b61098f8161146c565b6001600160a01b038316610e1e5760405162461bcd60e51b8152602060048201526024808201527f45524332303a20617070726f76652066726f6d20746865207a65726f206164646044820152637265737360e01b606482015260840161075c565b6001600160a01b038216610e7f5760405162461bcd60e51b815260206004820152602260248201527f45524332303a20617070726f766520746f20746865207a65726f206164647265604482015261737360f01b606482015260840161075c565b6001600160a01b0383811660008181526001602090815260408083209487168084529482529182902085905590518481527f8c5be1e5ebec7d5bd14f71427d1e84f3dd0314c0f7b2291e5b200ac8c7c3b925910160405180910390a3505050565b6001600160a01b038316610f445760405162461bcd60e51b815260206004820152602560248201527f45524332303a207472616e736665722066726f6d20746865207a65726f206164604482015264647265737360d81b606482015260840161075c565b6001600160a01b038216610fa65760405162461bcd60e51b815260206004820152602360248201527f45524332303a207472616e7366657220746f20746865207a65726f206164647260448201526265737360e81b606482015260840161075c565b610fb1838383611503565b6001600160a01b038316600090815260208190526040902054818110156110295760405162461bcd60e51b815260206004820152602660248201527f45524332303a207472616e7366657220616d6f756e7420657863656564732062604482015265616c616e636560d01b606482015260840161075c565b6001600160a01b03808516600090815260208190526040808220858503905591851681529081208054849290611060908490611720565b92505081905550826001600160a01b0316846001600160a01b03167fddf252ad1be2c89b69c2b068fc378daa952ba7f163c4a11628f55a4df523b3ef846040516110ac91815260200190565b60405180910390a35b50505050565b60006110c78484610d1b565b905060001981146110b557818110156111225760405162461bcd60e51b815260206004820152601d60248201527f45524332303a20696e73756666696369656e7420616c6c6f77616e6365000000604482015260640161075c565b6110b58484848403610dbc565b6005546001600160a01b036101009091041633146108df5760405162461bcd60e51b815260206004820181905260248201527f4f776e61626c653a2063616c6c6572206973206e6f7420746865206f776e6572604482015260640161075c565b61119761150b565b6005805460ff191690557f5db9ee0a495bf2e6ff9c91a7834c1ba4fdd244a5e8aa4e537bd38aeae4b073aa335b6040516001600160a01b03909116815260200160405180910390a1565b60055460ff16156108df5760405162461bcd60e51b815260206004820152601060248201526f14185d5cd8589b194e881c185d5cd95960821b604482015260640161075c565b6001600160a01b03821661127d5760405162461bcd60e51b815260206004820152601f60248201527f45524332303a206d696e7420746f20746865207a65726f206164647265737300604482015260640161075c565b61128960008383611503565b806002600082825461129b9190611720565b90915550506001600160a01b038216600090815260208190526040812080548392906112c8908490611720565b90915550506040518181526001600160a01b038316906000907fddf252ad1be2c89b69c2b068fc378daa952ba7f163c4a11628f55a4df523b3ef9060200160405180910390a35050565b6001600160a01b0382166113725760405162461bcd60e51b815260206004820152602160248201527f45524332303a206275726e2066726f6d20746865207a65726f206164647265736044820152607360f81b606482015260840161075c565b61137e82600083611503565b6001600160a01b038216600090815260208190526040902054818110156113f25760405162461bcd60e51b815260206004820152602260248201527f45524332303a206275726e20616d6f756e7420657863656564732062616c616e604482015261636560f01b606482015260840161075c565b6001600160a01b0383166000908152602081905260408120838303905560028054849290611421908490611738565b90915550506040518281526000906001600160a01b038516907fddf252ad1be2c89b69c2b068fc378daa952ba7f163c4a11628f55a4df523b3ef9060200160405180910390a3505050565b600580546001600160a01b03838116610100818102610100600160a81b031985161790945560405193909204169182907f8be0079c531659141344cd1fd0a4f28419497f9722a3daafe3b4186f6b6457e090600090a35050565b6114ce6111e1565b6005805460ff191660011790557f62e78cea01bee320cd4e420270b5ea74000d11b0c9f74754ebdbfc544b05a2586111c43390565b6107ea6111e1565b60055460ff166108df5760405162461bcd60e51b815260206004820152601460248201527314185d5cd8589b194e881b9bdd081c185d5cd95960621b604482015260640161075c565b600060208083528351808285015260005b8181101561158157858101830151858201604001528201611565565b81811115611593576000604083870101525b50601f01601f1916929092016040019392505050565b80356001600160a01b03811681146115c057600080fd5b919050565b600080604083850312156115d857600080fd5b6115e1836115a9565b946020939093013593505050565b60008060006060848603121561160457600080fd5b61160d846115a9565b925061161b602085016115a9565b9150604084013590509250925092565b60006020828403121561163d57600080fd5b611646826115a9565b9392505050565b60006020828403121561165f57600080fd5b5035919050565b6000806040838503121561167957600080fd5b611682836115a9565b9150611690602084016115a9565b90509250929050565b600181811c908216806116ad57607f821691505b6020821081036116cd57634e487b7160e01b600052602260045260246000fd5b50919050565b60208082526019908201527f5468697320636f6e7472616374204e6f7420416c6c6f77656400000000000000604082015260600190565b634e487b7160e01b600052601160045260246000fd5b600082198211156117335761173361170a565b500190565b60008282101561174a5761174a61170a565b50039056fea26469706673582212205aca08001afcb6af89526b2464b3472a5c921f554d774fed08516bb4b773c57e64736f6c634300080e0033",
    "linkReferences": {}
  },
  "methodIdentifiers": {
    "addContractAddress(address)": "b11ce2db",
    "addTeamAddress(address)": "765dd7a0",
    "allowNativeFunctionality()": "6e695ef5",
    "allowPurchaseToken()": "79266e6e",
    "allowance(address,address)": "dd62ed3e",
    "approve(address,uint256)": "095ea7b3",
    "balanceOf(address)": "70a08231",
    "burn(uint256)": "42966c68",
    "burnFrom(address,uint256)": "79cc6790",
    "buyToken(address,uint256)": "68f8fc10",
    "contractAccess(address)": "2955323c",
    "decimals()": "313ce567",
    "decreaseAllowance(address,uint256)": "a457c2d7",
    "disableNativeFunctionality()": "28c9dfc9",
    "disablePurchaseToken()": "9c1eb1a1",
    "enableNativeFunctionality()": "895c843d",
    "enablePurchaseToken()": "68388009",
    "increaseAllowance(address,uint256)": "39509351",
    "mint(address,uint256)": "40c10f19",
    "mintForContract(address,uint256)": "cd748abb",
    "name()": "06fdde03",
    "owner()": "8da5cb5b",
    "pause()": "8456cb59",
    "paused()": "5c975abb",
    "removeContractAddress(address)": "6c797bfd",
    "removeMemberAddress(address)": "d7992d4d",
    "renounceOwnership()": "715018a6",
    "symbol()": "95d89b41",
    "teamAccessRecord(address)": "a6c75fa2",
    "tokenPrice()": "7ff9b596",
    "totalSupply()": "18160ddd",
    "transfer(address,uint256)": "a9059cbb",
    "transferFrom(address,address,uint256)": "23b872dd",
    "transferFunds(address,address,uint256)": "1501bf03",
    "transferOwnership(address)": "f2fde38b",
    "unpause()": "3f4ba83a"
  },
  "id": 18
}