{
  "abi": [
    {
      "inputs": [],
      "stateMutability": "nonpayable",
      "type": "constructor"
    },
    {
      "inputs": [],
      "name": "AlreadyAdded",
      "type": "error"
    },
    {
      "inputs": [],
      "name": "CannotBeAddressZero",
      "type": "error"
    },
    {
      "inputs": [],
      "name": "Insufficient_Balance",
      "type": "error"
    },
    {
      "anonymous": false,
      "inputs": [
        {
          "indexed": true,
          "internalType": "address",
          "name": "owner",
          "type": "address"
        },
        {
          "indexed": true,
          "internalType": "address",
          "name": "spender",
          "type": "address"
        },
        {
          "indexed": false,
          "internalType": "uint256",
          "name": "value",
          "type": "uint256"
        }
      ],
      "name": "Approval",
      "type": "event"
    },
    {
      "anonymous": false,
      "inputs": [
        {
          "indexed": true,
          "internalType": "address",
          "name": "previousOwner",
          "type": "address"
        },
        {
          "indexed": true,
          "internalType": "address",
          "name": "newOwner",
          "type": "address"
        }
      ],
      "name": "OwnershipTransferred",
      "type": "event"
    },
    {
      "anonymous": false,
      "inputs": [
        {
          "indexed": false,
          "internalType": "address",
          "name": "account",
          "type": "address"
        }
      ],
      "name": "Paused",
      "type": "event"
    },
    {
      "anonymous": false,
      "inputs": [
        {
          "indexed": true,
          "internalType": "address",
          "name": "from",
          "type": "address"
        },
        {
          "indexed": true,
          "internalType": "address",
          "name": "to",
          "type": "address"
        },
        {
          "indexed": false,
          "internalType": "uint256",
          "name": "value",
          "type": "uint256"
        }
      ],
      "name": "Transfer",
      "type": "event"
    },
    {
      "anonymous": false,
      "inputs": [
        {
          "indexed": false,
          "internalType": "address",
          "name": "account",
          "type": "address"
        }
      ],
      "name": "Unpaused",
      "type": "event"
    },
    {
      "inputs": [
        {
          "internalType": "address",
          "name": "_contract",
          "type": "address"
        }
      ],
      "name": "addContractAddress",
      "outputs": [],
      "stateMutability": "nonpayable",
      "type": "function"
    },
    {
      "inputs": [
        {
          "internalType": "address",
          "name": "_member",
          "type": "address"
        }
      ],
      "name": "addTeamAddress",
      "outputs": [],
      "stateMutability": "nonpayable",
      "type": "function"
    },
    {
      "inputs": [
        {
          "internalType": "address",
          "name": "owner",
          "type": "address"
        },
        {
          "internalType": "address",
          "name": "spender",
          "type": "address"
        }
      ],
      "name": "allowance",
      "outputs": [
        {
          "internalType": "uint256",
          "name": "",
          "type": "uint256"
        }
      ],
      "stateMutability": "view",
      "type": "function"
    },
    {
      "inputs": [
        {
          "internalType": "address",
          "name": "spender",
          "type": "address"
        },
        {
          "internalType": "uint256",
          "name": "amount",
          "type": "uint256"
        }
      ],
      "name": "approve",
      "outputs": [
        {
          "internalType": "bool",
          "name": "",
          "type": "bool"
        }
      ],
      "stateMutability": "nonpayable",
      "type": "function"
    },
    {
      "inputs": [
        {
          "internalType": "address",
          "name": "account",
          "type": "address"
        }
      ],
      "name": "balanceOf",
      "outputs": [
        {
          "internalType": "uint256",
          "name": "",
          "type": "uint256"
        }
      ],
      "stateMutability": "view",
      "type": "function"
    },
    {
      "inputs": [
        {
          "internalType": "uint256",
          "name": "amount",
          "type": "uint256"
        }
      ],
      "name": "burn",
      "outputs": [],
      "stateMutability": "nonpayable",
      "type": "function"
    },
    {
      "inputs": [
        {
          "internalType": "address",
          "name": "account",
          "type": "address"
        },
        {
          "internalType": "uint256",
          "name": "amount",
          "type": "uint256"
        }
      ],
      "name": "burnFrom",
      "outputs": [],
      "stateMutability": "nonpayable",
      "type": "function"
    },
    {
      "inputs": [
        {
          "internalType": "address",
          "name": "",
          "type": "address"
        }
      ],
      "name": "contractAccess",
      "outputs": [
        {
          "internalType": "bool",
          "name": "",
          "type": "bool"
        }
      ],
      "stateMutability": "view",
      "type": "function"
    },
    {
      "inputs": [],
      "name": "decimals",
      "outputs": [
        {
          "internalType": "uint8",
          "name": "",
          "type": "uint8"
        }
      ],
      "stateMutability": "view",
      "type": "function"
    },
    {
      "inputs": [
        {
          "internalType": "address",
          "name": "spender",
          "type": "address"
        },
        {
          "internalType": "uint256",
          "name": "subtractedValue",
          "type": "uint256"
        }
      ],
      "name": "decreaseAllowance",
      "outputs": [
        {
          "internalType": "bool",
          "name": "",
          "type": "bool"
        }
      ],
      "stateMutability": "nonpayable",
      "type": "function"
    },
    {
      "inputs": [
        {
          "internalType": "address",
          "name": "spender",
          "type": "address"
        },
        {
          "internalType": "uint256",
          "name": "addedValue",
          "type": "uint256"
        }
      ],
      "name": "increaseAllowance",
      "outputs": [
        {
          "internalType": "bool",
          "name": "",
          "type": "bool"
        }
      ],
      "stateMutability": "nonpayable",
      "type": "function"
    },
    {
      "inputs": [
        {
          "internalType": "address",
          "name": "to",
          "type": "address"
        },
        {
          "internalType": "uint256",
          "name": "amount",
          "type": "uint256"
        }
      ],
      "name": "mint",
      "outputs": [],
      "stateMutability": "nonpayable",
      "type": "function"
    },
    {
      "inputs": [
        {
          "internalType": "address",
          "name": "to",
          "type": "address"
        },
        {
          "internalType": "uint256",
          "name": "amount",
          "type": "uint256"
        }
      ],
      "name": "mintForContract",
      "outputs": [],
      "stateMutability": "nonpayable",
      "type": "function"
    },
    {
      "inputs": [],
      "name": "name",
      "outputs": [
        {
          "internalType": "string",
          "name": "",
          "type": "string"
        }
      ],
      "stateMutability": "view",
      "type": "function"
    },
    {
      "inputs": [],
      "name": "owner",
      "outputs": [
        {
          "internalType": "address",
          "name": "",
          "type": "address"
        }
      ],
      "stateMutability": "view",
      "type": "function"
    },
    {
      "inputs": [],
      "name": "pause",
      "outputs": [],
      "stateMutability": "nonpayable",
      "type": "function"
    },
    {
      "inputs": [],
      "name": "paused",
      "outputs": [
        {
          "internalType": "bool",
          "name": "",
          "type": "bool"
        }
      ],
      "stateMutability": "view",
      "type": "function"
    },
    {
      "inputs": [
        {
          "internalType": "address",
          "name": "_member",
          "type": "address"
        }
      ],
      "name": "removeMemberAddress",
      "outputs": [],
      "stateMutability": "nonpayable",
      "type": "function"
    },
    {
      "inputs": [],
      "name": "renounceOwnership",
      "outputs": [],
      "stateMutability": "nonpayable",
      "type": "function"
    },
    {
      "inputs": [
        {
          "internalType": "bool",
          "name": "_permission",
          "type": "bool"
        }
      ],
      "name": "setNativeFunctionality",
      "outputs": [],
      "stateMutability": "nonpayable",
      "type": "function"
    },
    {
      "inputs": [],
      "name": "symbol",
      "outputs": [
        {
          "internalType": "string",
          "name": "",
          "type": "string"
        }
      ],
      "stateMutability": "view",
      "type": "function"
    },
    {
      "inputs": [
        {
          "internalType": "address",
          "name": "",
          "type": "address"
        }
      ],
      "name": "teamAccessRecord",
      "outputs": [
        {
          "internalType": "bool",
          "name": "",
          "type": "bool"
        }
      ],
      "stateMutability": "view",
      "type": "function"
    },
    {
      "inputs": [],
      "name": "totalSupply",
      "outputs": [
        {
          "internalType": "uint256",
          "name": "",
          "type": "uint256"
        }
      ],
      "stateMutability": "view",
      "type": "function"
    },
    {
      "inputs": [
        {
          "internalType": "address",
          "name": "to",
          "type": "address"
        },
        {
          "internalType": "uint256",
          "name": "amount",
          "type": "uint256"
        }
      ],
      "name": "transfer",
      "outputs": [
        {
          "internalType": "bool",
          "name": "",
          "type": "bool"
        }
      ],
      "stateMutability": "nonpayable",
      "type": "function"
    },
    {
      "inputs": [
        {
          "internalType": "address",
          "name": "from",
          "type": "address"
        },
        {
          "internalType": "address",
          "name": "to",
          "type": "address"
        },
        {
          "internalType": "uint256",
          "name": "amount",
          "type": "uint256"
        }
      ],
      "name": "transferFrom",
      "outputs": [
        {
          "internalType": "bool",
          "name": "",
          "type": "bool"
        }
      ],
      "stateMutability": "nonpayable",
      "type": "function"
    },
    {
      "inputs": [
        {
          "internalType": "address",
          "name": "from",
          "type": "address"
        },
        {
          "internalType": "address",
          "name": "to",
          "type": "address"
        },
        {
          "internalType": "uint256",
          "name": "amount",
          "type": "uint256"
        }
      ],
      "name": "transferFunds",
      "outputs": [],
      "stateMutability": "nonpayable",
      "type": "function"
    },
    {
      "inputs": [
        {
          "internalType": "address",
          "name": "newOwner",
          "type": "address"
        }
      ],
      "name": "transferOwnership",
      "outputs": [],
      "stateMutability": "nonpayable",
      "type": "function"
    },
    {
      "inputs": [],
      "name": "unpause",
      "outputs": [],
      "stateMutability": "nonpayable",
      "type": "function"
    }
  ],
  "bytecode": {
    "object": "0x60806040526005805460ff60a81b191690553480156200001e57600080fd5b506040518060400160405280600d81526020016c283437b732a137ba2a37b5b2b760991b8152506040518060400160405280600381526020016214109560ea1b81525081600390805190602001906200007992919062000295565b5080516200008f90600490602084019062000295565b50506005805460ff1916905550620000a733620000d3565b620000cd33620000ba6012600a62000450565b620000c790606462000468565b6200012d565b620004e1565b600580546001600160a01b03838116610100818102610100600160a81b031985161790945560405193909204169182907f8be0079c531659141344cd1fd0a4f28419497f9722a3daafe3b4186f6b6457e090600090a35050565b6001600160a01b038216620001895760405162461bcd60e51b815260206004820152601f60248201527f45524332303a206d696e7420746f20746865207a65726f20616464726573730060448201526064015b60405180910390fd5b620001976000838362000224565b8060026000828254620001ab91906200048a565b90915550506001600160a01b03821660009081526020819052604081208054839290620001da9084906200048a565b90915550506040518181526001600160a01b038316906000907fddf252ad1be2c89b69c2b068fc378daa952ba7f163c4a11628f55a4df523b3ef9060200160405180910390a35050565b6200022e6200024b565b620002468383836200024660201b6200059b1760201c565b505050565b60055460ff1615620002935760405162461bcd60e51b815260206004820152601060248201526f14185d5cd8589b194e881c185d5cd95960821b604482015260640162000180565b565b828054620002a390620004a5565b90600052602060002090601f016020900481019282620002c7576000855562000312565b82601f10620002e257805160ff191683800117855562000312565b8280016001018555821562000312579182015b8281111562000312578251825591602001919060010190620002f5565b506200032092915062000324565b5090565b5b8082111562000320576000815560010162000325565b634e487b7160e01b600052601160045260246000fd5b600181815b80851115620003925781600019048211156200037657620003766200033b565b808516156200038457918102915b93841c939080029062000356565b509250929050565b600082620003ab575060016200044a565b81620003ba575060006200044a565b8160018114620003d35760028114620003de57620003fe565b60019150506200044a565b60ff841115620003f257620003f26200033b565b50506001821b6200044a565b5060208310610133831016604e8410600b841016171562000423575081810a6200044a565b6200042f838362000351565b80600019048211156200044657620004466200033b565b0290505b92915050565b60006200046160ff8416836200039a565b9392505050565b60008160001904831182151516156200048557620004856200033b565b500290565b60008219821115620004a057620004a06200033b565b500190565b600181811c90821680620004ba57607f821691505b602082108103620004db57634e487b7160e01b600052602260045260246000fd5b50919050565b6113bb80620004f16000396000f3fe608060405234801561001057600080fd5b50600436106101c45760003560e01c8063715018a6116100f9578063a6c75fa211610097578063cd748abb11610071578063cd748abb146103c1578063d7992d4d146103d4578063dd62ed3e146103e7578063f2fde38b146103fa57600080fd5b8063a6c75fa214610378578063a9059cbb1461039b578063b11ce2db146103ae57600080fd5b80638456cb59116100d35780638456cb591461032c5780638da5cb5b1461033457806395d89b411461035d578063a457c2d71461036557600080fd5b8063715018a6146102fe578063765dd7a01461030657806379cc67901461031957600080fd5b8063313ce5671161016657806340c10f191161014057806340c10f19146102a457806342966c68146102b75780635c975abb146102ca57806370a08231146102d557600080fd5b8063313ce5671461027a57806339509351146102895780633f4ba83a1461029c57600080fd5b806318160ddd116101a257806318160ddd1461021f57806323b872dd1461023157806324a38063146102445780632955323c1461025757600080fd5b806306fdde03146101c9578063095ea7b3146101e75780631501bf031461020a575b600080fd5b6101d161040d565b6040516101de919061119f565b60405180910390f35b6101fa6101f5366004611210565b61049f565b60405190151581526020016101de565b61021d61021836600461123a565b6104b7565b005b6002545b6040519081526020016101de565b6101fa61023f36600461123a565b6105a0565b61021d610252366004611276565b610618565b6101fa61026536600461129f565b60076020526000908152604090205460ff1681565b604051601281526020016101de565b6101fa610297366004611210565b61063e565b61021d610660565b61021d6102b2366004611210565b610672565b61021d6102c53660046112ba565b6106e2565b60055460ff166101fa565b6102236102e336600461129f565b6001600160a01b031660009081526020819052604090205490565b61021d6106ef565b61021d61031436600461129f565b610701565b61021d610327366004611210565b610767565b61021d61077c565b60055461010090046001600160a01b03166040516001600160a01b0390911681526020016101de565b6101d161078c565b6101fa610373366004611210565b61079b565b6101fa61038636600461129f565b60066020526000908152604090205460ff1681565b6101fa6103a9366004611210565b610816565b61021d6103bc36600461129f565b610878565b61021d6103cf366004611210565b6108de565b61021d6103e236600461129f565b61093d565b6102236103f53660046112d3565b610966565b61021d61040836600461129f565b610991565b60606003805461041c90611306565b80601f016020809104026020016040519081016040528092919081815260200182805461044890611306565b80156104955780601f1061046a57610100808354040283529160200191610495565b820191906000526020600020905b81548152906001019060200180831161047857829003601f168201915b5050505050905090565b6000336104ad818585610a07565b5060019392505050565b3360009081526006602052604090205460ff166105165760405162461bcd60e51b8152602060048201526018602482015277596f7520617265206e6f742070617274206f66207465616d60401b60448201526064015b60405180910390fd5b80610536846001600160a01b031660009081526020819052604090205490565b101561055557604051633bf1830560e21b815260040160405180910390fd5b6001600160a01b038316158061057257506001600160a01b038216155b15610590576040516309f9845360e01b815260040160405180910390fd5b61059b838383610b2b565b505050565b600554600090600160a81b900460ff166105f65760405162461bcd60e51b8152602060048201526017602482015276151a1a5cc81a5cc81b9bdd08185b1b1bddd959081e595d604a1b604482015260640161050d565b33610602858285610d06565b61060d858585610b2b565b506001949350505050565b610620610d7a565b60058054911515600160a81b0260ff60a81b19909216919091179055565b6000336104ad8185856106518383610966565b61065b9190611356565b610a07565b610668610d7a565b610670610dda565b565b3360009081526006602052604090205460ff166106cc5760405162461bcd60e51b8152602060048201526018602482015277596f7520617265206e6f742070617274206f66207465616d60401b604482015260640161050d565b6106d4610e2c565b6106de8282610e72565b5050565b6106ec3382610f5d565b50565b6106f7610d7a565b61067060006110b7565b610709610d7a565b6001600160a01b03811660009081526006602052604090205460ff16156107435760405163f411c32760e01b815260040160405180910390fd5b6001600160a01b03166000908152600660205260409020805460ff19166001179055565b610772823383610d06565b6106de8282610f5d565b610784610d7a565b610670611111565b60606004805461041c90611306565b600033816107a98286610966565b9050838110156108095760405162461bcd60e51b815260206004820152602560248201527f45524332303a2064656372656173656420616c6c6f77616e63652062656c6f77604482015264207a65726f60d81b606482015260840161050d565b61060d8286868403610a07565b600554600090600160a81b900460ff1661086c5760405162461bcd60e51b8152602060048201526017602482015276151a1a5cc81a5cc81b9bdd08185b1b1bddd959081e595d604a1b604482015260640161050d565b336104ad818585610b2b565b610880610d7a565b6001600160a01b03811660009081526007602052604090205460ff16156108ba5760405163f411c32760e01b815260040160405180910390fd5b6001600160a01b03166000908152600760205260409020805460ff19166001179055565b3360009081526007602052604090205460ff166106cc5760405162461bcd60e51b815260206004820152601960248201527f5468697320636f6e7472616374204e6f7420416c6c6f77656400000000000000604482015260640161050d565b610945610d7a565b6001600160a01b03166000908152600660205260409020805460ff19169055565b6001600160a01b03918216600090815260016020908152604080832093909416825291909152205490565b610999610d7a565b6001600160a01b0381166109fe5760405162461bcd60e51b815260206004820152602660248201527f4f776e61626c653a206e6577206f776e657220697320746865207a65726f206160448201526564647265737360d01b606482015260840161050d565b6106ec816110b7565b6001600160a01b038316610a695760405162461bcd60e51b8152602060048201526024808201527f45524332303a20617070726f76652066726f6d20746865207a65726f206164646044820152637265737360e01b606482015260840161050d565b6001600160a01b038216610aca5760405162461bcd60e51b815260206004820152602260248201527f45524332303a20617070726f766520746f20746865207a65726f206164647265604482015261737360f01b606482015260840161050d565b6001600160a01b0383811660008181526001602090815260408083209487168084529482529182902085905590518481527f8c5be1e5ebec7d5bd14f71427d1e84f3dd0314c0f7b2291e5b200ac8c7c3b925910160405180910390a3505050565b6001600160a01b038316610b8f5760405162461bcd60e51b815260206004820152602560248201527f45524332303a207472616e736665722066726f6d20746865207a65726f206164604482015264647265737360d81b606482015260840161050d565b6001600160a01b038216610bf15760405162461bcd60e51b815260206004820152602360248201527f45524332303a207472616e7366657220746f20746865207a65726f206164647260448201526265737360e81b606482015260840161050d565b610bfc83838361114e565b6001600160a01b03831660009081526020819052604090205481811015610c745760405162461bcd60e51b815260206004820152602660248201527f45524332303a207472616e7366657220616d6f756e7420657863656564732062604482015265616c616e636560d01b606482015260840161050d565b6001600160a01b03808516600090815260208190526040808220858503905591851681529081208054849290610cab908490611356565b92505081905550826001600160a01b0316846001600160a01b03167fddf252ad1be2c89b69c2b068fc378daa952ba7f163c4a11628f55a4df523b3ef84604051610cf791815260200190565b60405180910390a35b50505050565b6000610d128484610966565b90506000198114610d005781811015610d6d5760405162461bcd60e51b815260206004820152601d60248201527f45524332303a20696e73756666696369656e7420616c6c6f77616e6365000000604482015260640161050d565b610d008484848403610a07565b6005546001600160a01b036101009091041633146106705760405162461bcd60e51b815260206004820181905260248201527f4f776e61626c653a2063616c6c6572206973206e6f7420746865206f776e6572604482015260640161050d565b610de2611156565b6005805460ff191690557f5db9ee0a495bf2e6ff9c91a7834c1ba4fdd244a5e8aa4e537bd38aeae4b073aa335b6040516001600160a01b03909116815260200160405180910390a1565b60055460ff16156106705760405162461bcd60e51b815260206004820152601060248201526f14185d5cd8589b194e881c185d5cd95960821b604482015260640161050d565b6001600160a01b038216610ec85760405162461bcd60e51b815260206004820152601f60248201527f45524332303a206d696e7420746f20746865207a65726f206164647265737300604482015260640161050d565b610ed46000838361114e565b8060026000828254610ee69190611356565b90915550506001600160a01b03821660009081526020819052604081208054839290610f13908490611356565b90915550506040518181526001600160a01b038316906000907fddf252ad1be2c89b69c2b068fc378daa952ba7f163c4a11628f55a4df523b3ef9060200160405180910390a35050565b6001600160a01b038216610fbd5760405162461bcd60e51b815260206004820152602160248201527f45524332303a206275726e2066726f6d20746865207a65726f206164647265736044820152607360f81b606482015260840161050d565b610fc98260008361114e565b6001600160a01b0382166000908152602081905260409020548181101561103d5760405162461bcd60e51b815260206004820152602260248201527f45524332303a206275726e20616d6f756e7420657863656564732062616c616e604482015261636560f01b606482015260840161050d565b6001600160a01b038316600090815260208190526040812083830390556002805484929061106c90849061136e565b90915550506040518281526000906001600160a01b038516907fddf252ad1be2c89b69c2b068fc378daa952ba7f163c4a11628f55a4df523b3ef9060200160405180910390a3505050565b600580546001600160a01b03838116610100818102610100600160a81b031985161790945560405193909204169182907f8be0079c531659141344cd1fd0a4f28419497f9722a3daafe3b4186f6b6457e090600090a35050565b611119610e2c565b6005805460ff191660011790557f62e78cea01bee320cd4e420270b5ea74000d11b0c9f74754ebdbfc544b05a258610e0f3390565b61059b610e2c565b60055460ff166106705760405162461bcd60e51b815260206004820152601460248201527314185d5cd8589b194e881b9bdd081c185d5cd95960621b604482015260640161050d565b600060208083528351808285015260005b818110156111cc578581018301518582016040015282016111b0565b818111156111de576000604083870101525b50601f01601f1916929092016040019392505050565b80356001600160a01b038116811461120b57600080fd5b919050565b6000806040838503121561122357600080fd5b61122c836111f4565b946020939093013593505050565b60008060006060848603121561124f57600080fd5b611258846111f4565b9250611266602085016111f4565b9150604084013590509250925092565b60006020828403121561128857600080fd5b8135801515811461129857600080fd5b9392505050565b6000602082840312156112b157600080fd5b611298826111f4565b6000602082840312156112cc57600080fd5b5035919050565b600080604083850312156112e657600080fd5b6112ef836111f4565b91506112fd602084016111f4565b90509250929050565b600181811c9082168061131a57607f821691505b60208210810361133a57634e487b7160e01b600052602260045260246000fd5b50919050565b634e487b7160e01b600052601160045260246000fd5b6000821982111561136957611369611340565b500190565b60008282101561138057611380611340565b50039056fea26469706673582212204981881cc3e988bf650a29b5df479095af3b5b5a081becdb59f136b7bd7777bc64736f6c634300080e0033",
    "linkReferences": {}
  },
  "methodIdentifiers": {
    "addContractAddress(address)": "b11ce2db",
    "addTeamAddress(address)": "765dd7a0",
    "allowance(address,address)": "dd62ed3e",
    "approve(address,uint256)": "095ea7b3",
    "balanceOf(address)": "70a08231",
    "burn(uint256)": "42966c68",
    "burnFrom(address,uint256)": "79cc6790",
    "contractAccess(address)": "2955323c",
    "decimals()": "313ce567",
    "decreaseAllowance(address,uint256)": "a457c2d7",
    "increaseAllowance(address,uint256)": "39509351",
    "mint(address,uint256)": "40c10f19",
    "mintForContract(address,uint256)": "cd748abb",
    "name()": "06fdde03",
    "owner()": "8da5cb5b",
    "pause()": "8456cb59",
    "paused()": "5c975abb",
    "removeMemberAddress(address)": "d7992d4d",
    "renounceOwnership()": "715018a6",
    "setNativeFunctionality(bool)": "24a38063",
    "symbol()": "95d89b41",
    "teamAccessRecord(address)": "a6c75fa2",
    "totalSupply()": "18160ddd",
    "transfer(address,uint256)": "a9059cbb",
    "transferFrom(address,address,uint256)": "23b872dd",
    "transferFunds(address,address,uint256)": "1501bf03",
    "transferOwnership(address)": "f2fde38b",
    "unpause()": "3f4ba83a"
  },
  "id": 18
}