{
  "abi": [
    {
      "anonymous": false,
      "inputs": [
        {
          "indexed": false,
          "internalType": "uint256",
          "name": "loyaltyPercentageBefore",
          "type": "uint256"
        },
        {
          "indexed": false,
          "internalType": "uint256",
          "name": "loyaltyPercentageAfter",
          "type": "uint256"
        }
      ],
      "name": "LoyaltyUpdated",
      "type": "event"
    },
    {
      "anonymous": false,
      "inputs": [
        {
          "indexed": true,
          "internalType": "address",
          "name": "previousOwner",
          "type": "address"
        },
        {
          "indexed": true,
          "internalType": "address",
          "name": "newOwner",
          "type": "address"
        }
      ],
      "name": "OwnershipTransferred",
      "type": "event"
    },
    {
      "inputs": [],
      "name": "getLoyaltyPercentage",
      "outputs": [
        {
          "internalType": "uint256",
          "name": "",
          "type": "uint256"
        }
      ],
      "stateMutability": "view",
      "type": "function"
    },
    {
      "inputs": [],
      "name": "owner",
      "outputs": [
        {
          "internalType": "address",
          "name": "",
          "type": "address"
        }
      ],
      "stateMutability": "view",
      "type": "function"
    },
    {
      "inputs": [],
      "name": "renounceOwnership",
      "outputs": [],
      "stateMutability": "nonpayable",
      "type": "function"
    },
    {
      "inputs": [
        {
          "internalType": "uint256",
          "name": "_loyaltyPercentage",
          "type": "uint256"
        }
      ],
      "name": "setLoyaltyPercentage",
      "outputs": [],
      "stateMutability": "nonpayable",
      "type": "function"
    },
    {
      "inputs": [
        {
          "internalType": "address",
          "name": "newOwner",
          "type": "address"
        }
      ],
      "name": "transferOwnership",
      "outputs": [],
      "stateMutability": "nonpayable",
      "type": "function"
    }
  ],
  "bytecode": {
    "object": "0x60806040526103e860015534801561001657600080fd5b5061002033610025565b610075565b600080546001600160a01b038381166001600160a01b0319831681178455604051919092169283917f8be0079c531659141344cd1fd0a4f28419497f9722a3daafe3b4186f6b6457e09190a35050565b6102c1806100846000396000f3fe608060405234801561001057600080fd5b50600436106100575760003560e01c8063715018a61461005c5780637f42266914610066578063864879bb1461007c5780638da5cb5b1461008f578063f2fde38b146100aa575b600080fd5b6100646100bd565b005b6001546040519081526020015b60405180910390f35b61006461008a366004610242565b6100d1565b6000546040516001600160a01b039091168152602001610073565b6100646100b836600461025b565b61011a565b6100c5610198565b6100cf60006101f2565b565b6100d9610198565b600181905560408051828152602081018390527f6a83cc218b6e35f4b68868b8cf2a7968201acfd91f619cd387fb092745e5b8dc910160405180910390a150565b610122610198565b6001600160a01b03811661018c5760405162461bcd60e51b815260206004820152602660248201527f4f776e61626c653a206e6577206f776e657220697320746865207a65726f206160448201526564647265737360d01b60648201526084015b60405180910390fd5b610195816101f2565b50565b6000546001600160a01b031633146100cf5760405162461bcd60e51b815260206004820181905260248201527f4f776e61626c653a2063616c6c6572206973206e6f7420746865206f776e65726044820152606401610183565b600080546001600160a01b038381166001600160a01b0319831681178455604051919092169283917f8be0079c531659141344cd1fd0a4f28419497f9722a3daafe3b4186f6b6457e09190a35050565b60006020828403121561025457600080fd5b5035919050565b60006020828403121561026d57600080fd5b81356001600160a01b038116811461028457600080fd5b939250505056fea2646970667358221220e3cc8932732fe326434b5080c9eb75e95069acdc6679b23828c9eb3f52706b7364736f6c634300080e0033",
    "linkReferences": {}
  },
  "methodIdentifiers": {
    "getLoyaltyPercentage()": "7f422669",
    "owner()": "8da5cb5b",
    "renounceOwnership()": "715018a6",
    "setLoyaltyPercentage(uint256)": "864879bb",
    "transferOwnership(address)": "f2fde38b"
  },
  "id": 17
}