{
  "abi": [
    {
      "inputs": [
        {
          "internalType": "address",
          "name": "_contract",
          "type": "address"
        }
      ],
      "stateMutability": "nonpayable",
      "type": "constructor"
    },
    {
      "inputs": [],
      "name": "AddressAndAmountLengthInvalid",
      "type": "error"
    },
    {
      "inputs": [],
      "name": "AlreadyAdded",
      "type": "error"
    },
    {
      "inputs": [],
      "name": "CannotBeAddressZero",
      "type": "error"
    },
    {
      "inputs": [],
      "name": "CannotSendToAddressZero",
      "type": "error"
    },
    {
      "inputs": [],
      "name": "NotEnoughBalance",
      "type": "error"
    },
    {
      "inputs": [],
      "name": "ThisAintAllowedYet",
      "type": "error"
    },
    {
      "inputs": [],
      "name": "cannotBeContract",
      "type": "error"
    },
    {
      "inputs": [],
      "name": "valueCannotBeZero",
      "type": "error"
    },
    {
      "anonymous": false,
      "inputs": [
        {
          "indexed": false,
          "internalType": "uint256",
          "name": "loyaltyPercentageBefore",
          "type": "uint256"
        },
        {
          "indexed": false,
          "internalType": "uint256",
          "name": "loyaltyPercentageAfter",
          "type": "uint256"
        }
      ],
      "name": "LoyaltyUpdated",
      "type": "event"
    },
    {
      "anonymous": false,
      "inputs": [
        {
          "indexed": true,
          "internalType": "address",
          "name": "previousOwner",
          "type": "address"
        },
        {
          "indexed": true,
          "internalType": "address",
          "name": "newOwner",
          "type": "address"
        }
      ],
      "name": "OwnershipTransferred",
      "type": "event"
    },
    {
      "anonymous": false,
      "inputs": [
        {
          "indexed": false,
          "internalType": "address",
          "name": "account",
          "type": "address"
        }
      ],
      "name": "Paused",
      "type": "event"
    },
    {
      "anonymous": false,
      "inputs": [
        {
          "indexed": false,
          "internalType": "address",
          "name": "to",
          "type": "address"
        },
        {
          "indexed": false,
          "internalType": "uint256",
          "name": "amount",
          "type": "uint256"
        }
      ],
      "name": "TokenRewarded",
      "type": "event"
    },
    {
      "anonymous": false,
      "inputs": [
        {
          "indexed": false,
          "internalType": "uint256",
          "name": "amount",
          "type": "uint256"
        },
        {
          "indexed": false,
          "internalType": "address",
          "name": "user",
          "type": "address"
        }
      ],
      "name": "TokensBurned",
      "type": "event"
    },
    {
      "anonymous": false,
      "inputs": [
        {
          "indexed": false,
          "internalType": "address",
          "name": "account",
          "type": "address"
        }
      ],
      "name": "Unpaused",
      "type": "event"
    },
    {
      "anonymous": false,
      "inputs": [
        {
          "indexed": false,
          "internalType": "uint256",
          "name": "feeBefore",
          "type": "uint256"
        },
        {
          "indexed": false,
          "internalType": "uint256",
          "name": "feeAfter",
          "type": "uint256"
        }
      ],
      "name": "feeUpdated",
      "type": "event"
    },
    {
      "inputs": [
        {
          "internalType": "address",
          "name": "_owner",
          "type": "address"
        },
        {
          "internalType": "address",
          "name": "_spender",
          "type": "address"
        }
      ],
      "name": "allowance",
      "outputs": [
        {
          "internalType": "uint256",
          "name": "",
          "type": "uint256"
        }
      ],
      "stateMutability": "view",
      "type": "function"
    },
    {
      "inputs": [
        {
          "internalType": "address[]",
          "name": "_addresses",
          "type": "address[]"
        },
        {
          "internalType": "uint256[]",
          "name": "_amounts",
          "type": "uint256[]"
        }
      ],
      "name": "batchMinting",
      "outputs": [],
      "stateMutability": "nonpayable",
      "type": "function"
    },
    {
      "inputs": [
        {
          "internalType": "uint256",
          "name": "amount",
          "type": "uint256"
        }
      ],
      "name": "burn",
      "outputs": [],
      "stateMutability": "nonpayable",
      "type": "function"
    },
    {
      "inputs": [
        {
          "internalType": "address",
          "name": "_user",
          "type": "address"
        },
        {
          "internalType": "uint256",
          "name": "_amount",
          "type": "uint256"
        }
      ],
      "name": "burnOnPurchase",
      "outputs": [],
      "stateMutability": "nonpayable",
      "type": "function"
    },
    {
      "inputs": [
        {
          "internalType": "address",
          "name": "_user",
          "type": "address"
        }
      ],
      "name": "getBalance",
      "outputs": [
        {
          "internalType": "uint256",
          "name": "",
          "type": "uint256"
        }
      ],
      "stateMutability": "view",
      "type": "function"
    },
    {
      "inputs": [],
      "name": "getLoyaltyPercentage",
      "outputs": [
        {
          "internalType": "uint256",
          "name": "",
          "type": "uint256"
        }
      ],
      "stateMutability": "view",
      "type": "function"
    },
    {
      "inputs": [],
      "name": "getTaxCollectorAddress",
      "outputs": [
        {
          "internalType": "address",
          "name": "",
          "type": "address"
        }
      ],
      "stateMutability": "view",
      "type": "function"
    },
    {
      "inputs": [],
      "name": "getfee",
      "outputs": [
        {
          "internalType": "uint256",
          "name": "",
          "type": "uint256"
        }
      ],
      "stateMutability": "view",
      "type": "function"
    },
    {
      "inputs": [],
      "name": "owner",
      "outputs": [
        {
          "internalType": "address",
          "name": "",
          "type": "address"
        }
      ],
      "stateMutability": "view",
      "type": "function"
    },
    {
      "inputs": [],
      "name": "paused",
      "outputs": [
        {
          "internalType": "bool",
          "name": "",
          "type": "bool"
        }
      ],
      "stateMutability": "view",
      "type": "function"
    },
    {
      "inputs": [],
      "name": "renounceOwnership",
      "outputs": [],
      "stateMutability": "nonpayable",
      "type": "function"
    },
    {
      "inputs": [
        {
          "internalType": "uint256",
          "name": "_fee",
          "type": "uint256"
        }
      ],
      "name": "setFee",
      "outputs": [],
      "stateMutability": "nonpayable",
      "type": "function"
    },
    {
      "inputs": [
        {
          "internalType": "uint256",
          "name": "_loyaltyPercentage",
          "type": "uint256"
        }
      ],
      "name": "setLoyaltyPercentage",
      "outputs": [],
      "stateMutability": "nonpayable",
      "type": "function"
    },
    {
      "inputs": [
        {
          "internalType": "address",
          "name": "_taxCollector",
          "type": "address"
        }
      ],
      "name": "setTaxCollector",
      "outputs": [],
      "stateMutability": "nonpayable",
      "type": "function"
    },
    {
      "inputs": [
        {
          "internalType": "address",
          "name": "_to",
          "type": "address"
        },
        {
          "internalType": "uint256",
          "name": "_amount",
          "type": "uint256"
        }
      ],
      "name": "simpleMint",
      "outputs": [],
      "stateMutability": "nonpayable",
      "type": "function"
    },
    {
      "inputs": [],
      "name": "taxCollector",
      "outputs": [
        {
          "internalType": "address",
          "name": "",
          "type": "address"
        }
      ],
      "stateMutability": "view",
      "type": "function"
    },
    {
      "inputs": [
        {
          "internalType": "address",
          "name": "to",
          "type": "address"
        },
        {
          "internalType": "uint256",
          "name": "amount",
          "type": "uint256"
        }
      ],
      "name": "transfer",
      "outputs": [],
      "stateMutability": "nonpayable",
      "type": "function"
    },
    {
      "inputs": [
        {
          "internalType": "address",
          "name": "from",
          "type": "address"
        },
        {
          "internalType": "address",
          "name": "to",
          "type": "address"
        },
        {
          "internalType": "uint256",
          "name": "amount",
          "type": "uint256"
        }
      ],
      "name": "transferFrom",
      "outputs": [],
      "stateMutability": "nonpayable",
      "type": "function"
    },
    {
      "inputs": [
        {
          "internalType": "address",
          "name": "newOwner",
          "type": "address"
        }
      ],
      "name": "transferOwnership",
      "outputs": [],
      "stateMutability": "nonpayable",
      "type": "function"
    },
    {
      "inputs": [
        {
          "internalType": "address",
          "name": "_to",
          "type": "address"
        },
        {
          "internalType": "uint256",
          "name": "_amount",
          "type": "uint256"
        }
      ],
      "name": "transferingTokensOutside",
      "outputs": [],
      "stateMutability": "nonpayable",
      "type": "function"
    }
  ],
  "bytecode": {
    "object": "0x60806040526107d06001556103e860025534801561001c57600080fd5b5060405161144c38038061144c83398101604081905261003b916100be565b6100443361006e565b600380546001600160a01b03909216610100026001600160a81b03199092169190911790556100ee565b600080546001600160a01b038381166001600160a01b0319831681178455604051919092169283917f8be0079c531659141344cd1fd0a4f28419497f9722a3daafe3b4186f6b6457e09190a35050565b6000602082840312156100d057600080fd5b81516001600160a01b03811681146100e757600080fd5b9392505050565b61134f806100fd6000396000f3fe608060405234801561001057600080fd5b506004361061012c5760003560e01c8063864879bb116100ad578063bea1dcf811610071578063bea1dcf81461024c578063dd62ed3e1461025f578063f2fde38b14610272578063f8b2cb4f14610285578063fddde2701461029857600080fd5b8063864879bb146101ef5780638da5cb5b14610202578063a9059cbb14610213578063af4d2e9114610226578063b54dd7101461023957600080fd5b80635c975abb116100f45780635c975abb1461019657806369fe0e2d146101ac578063715018a6146101bf5780637f1bee23146101c75780637f422669146101e757600080fd5b806308695b41146101315780630cda45c81461014657806323b872dd1461015d57806336b59bc41461017057806342966c6814610183575b600080fd5b61014461013f366004610fa7565b6102ab565b005b6001545b6040519081526020015b60405180910390f35b61014461016b366004610fc2565b6102f5565b61014461017e3660046110d4565b610414565b610144610191366004611194565b61067c565b60035460ff166040519015158152602001610154565b6101446101ba366004611194565b6106e1565b61014461072b565b6101cf61073f565b6040516001600160a01b039091168152602001610154565b60025461014a565b6101446101fd366004611194565b610759565b6000546001600160a01b03166101cf565b6101446102213660046111ad565b61079c565b6101446102343660046111ad565b6108ad565b6101446102473660046111ad565b610a85565b6004546101cf906001600160a01b031681565b61014a61026d3660046111d7565b610be0565b610144610280366004610fa7565b610c63565b61014a610293366004610fa7565b610cdc565b6101446102a63660046111ad565b610d56565b6102b3610e52565b803b156102d357604051632111dc4760e01b815260040160405180910390fd5b600480546001600160a01b0319166001600160a01b0392909216919091179055565b600360019054906101000a90046001600160a01b03166001600160a01b0316636e695ef56040518163ffffffff1660e01b8152600401602060405180830381865afa158015610348573d6000803e3d6000fd5b505050506040513d601f19601f8201168201806040525081019061036c919061120a565b6103895760405163e730524b60e01b815260040160405180910390fd5b6003546040516323b872dd60e01b81526001600160a01b038581166004830152848116602483015260448201849052610100909204909116906323b872dd906064016020604051808303816000875af11580156103ea573d6000803e3d6000fd5b505050506040513d601f19601f8201168201806040525081019061040e919061120a565b50505050565b600354604051635363afd160e11b81523360048201526101009091046001600160a01b03169063a6c75fa290602401602060405180830381865afa158015610460573d6000803e3d6000fd5b505050506040513d601f19601f82011682018060405250810190610484919061120a565b6104a95760405162461bcd60e51b81526004016104a09061122c565b60405180910390fd5b6104b1610eac565b80518251146104d357604051630c17582360e31b815260040160405180910390fd5b60005b82518110156106775760006001600160a01b03168382815181106104fc576104fc611263565b60200260200101516001600160a01b03160361052b576040516309f9845360e01b815260040160405180910390fd5b600360019054906101000a90046001600160a01b03166001600160a01b031663cd748abb84838151811061056157610561611263565b602002602001015184848151811061057b5761057b611263565b60200260200101516040518363ffffffff1660e01b81526004016105b49291906001600160a01b03929092168252602082015260400190565b600060405180830381600087803b1580156105ce57600080fd5b505af11580156105e2573d6000803e3d6000fd5b505050507fe6b392a485300aed5d0afd949a6e7bbb13d3dc1a15efa0a0c1630b48ae54ca4683828151811061061957610619611263565b602002602001015183838151811061063357610633611263565b602002602001015160405161065d9291906001600160a01b03929092168252602082015260400190565b60405180910390a18061066f8161128f565b9150506104d6565b505050565b600354604051630852cd8d60e31b8152600481018390526101009091046001600160a01b0316906342966c6890602401600060405180830381600087803b1580156106c657600080fd5b505af11580156106da573d6000803e3d6000fd5b5050505050565b6106e9610e52565b600181905560408051828152602081018390527fed28c14db89870da08d76b69e3f96d95cbb779778f62a9ea4d4d41dc082d088a91015b60405180910390a150565b610733610e52565b61073d6000610ef2565b565b6000610749610e52565b506004546001600160a01b031690565b610761610e52565b600281905560408051828152602081018390527f6a83cc218b6e35f4b68868b8cf2a7968201acfd91f619cd387fb092745e5b8dc9101610720565b600360019054906101000a90046001600160a01b03166001600160a01b0316636e695ef56040518163ffffffff1660e01b8152600401602060405180830381865afa1580156107ef573d6000803e3d6000fd5b505050506040513d601f19601f82011682018060405250810190610813919061120a565b6108305760405163e730524b60e01b815260040160405180910390fd5b60035460405163a9059cbb60e01b81526001600160a01b038481166004830152602482018490526101009092049091169063a9059cbb906044016020604051808303816000875af1158015610889573d6000803e3d6000fd5b505050506040513d601f19601f82011682018060405250810190610677919061120a565b600354604051635363afd160e11b81523360048201526101009091046001600160a01b03169063a6c75fa290602401602060405180830381865afa1580156108f9573d6000803e3d6000fd5b505050506040513d601f19601f8201168201806040525081019061091d919061120a565b6109395760405162461bcd60e51b81526004016104a09061122c565b610941610eac565b6003546040516370a0823160e01b81526001600160a01b0384811660048301528392610100900416906370a0823190602401602060405180830381865afa158015610990573d6000803e3d6000fd5b505050506040513d601f19601f820116820180604052508101906109b491906112a8565b10156109d35760405163569d45cf60e11b815260040160405180910390fd5b60035460405163079cc67960e41b81526001600160a01b03848116600483015260248201849052610100909204909116906379cc679090604401600060405180830381600087803b158015610a2757600080fd5b505af1158015610a3b573d6000803e3d6000fd5b5050604080518481526001600160a01b03861660208201527f63706707d038997d2210eb026bb1339397deab463921538a81bb98e69ee54ca8935001905060405180910390a15050565b6001600160a01b038216610aac57604051633415fd6160e11b815260040160405180910390fd5b60008111610acd5760405163114617e760e21b815260040160405180910390fd5b6000610ad882610f42565b90506000610ae583610f6e565b905060003360035460048054604051631501bf0360e01b81526001600160a01b03808616938201939093529082166024820152604481018690529293506101009091041690631501bf0390606401600060405180830381600087803b158015610b4d57600080fd5b505af1158015610b61573d6000803e3d6000fd5b5050600354604051631501bf0360e01b81526001600160a01b0385811660048301528981166024830152604482018890526101009092049091169250631501bf039150606401600060405180830381600087803b158015610bc157600080fd5b505af1158015610bd5573d6000803e3d6000fd5b505050505050505050565b600354604051636eb1769f60e11b81526001600160a01b03848116600483015283811660248301526000926101009004169063dd62ed3e90604401602060405180830381865afa158015610c38573d6000803e3d6000fd5b505050506040513d601f19601f82011682018060405250810190610c5c91906112a8565b9392505050565b610c6b610e52565b6001600160a01b038116610cd05760405162461bcd60e51b815260206004820152602660248201527f4f776e61626c653a206e6577206f776e657220697320746865207a65726f206160448201526564647265737360d01b60648201526084016104a0565b610cd981610ef2565b50565b6003546040516370a0823160e01b81526001600160a01b038381166004830152600092610100900416906370a0823190602401602060405180830381865afa158015610d2c573d6000803e3d6000fd5b505050506040513d601f19601f82011682018060405250810190610d5091906112a8565b92915050565b600354604051635363afd160e11b81523360048201526101009091046001600160a01b03169063a6c75fa290602401602060405180830381865afa158015610da2573d6000803e3d6000fd5b505050506040513d601f19601f82011682018060405250810190610dc6919061120a565b610de25760405162461bcd60e51b81526004016104a09061122c565b60035460405163cd748abb60e01b81526001600160a01b038481166004830152602482018490526101009092049091169063cd748abb90604401600060405180830381600087803b158015610e3657600080fd5b505af1158015610e4a573d6000803e3d6000fd5b505050505050565b6000546001600160a01b0316331461073d5760405162461bcd60e51b815260206004820181905260248201527f4f776e61626c653a2063616c6c6572206973206e6f7420746865206f776e657260448201526064016104a0565b60035460ff161561073d5760405162461bcd60e51b815260206004820152601060248201526f14185d5cd8589b194e881c185d5cd95960821b60448201526064016104a0565b600080546001600160a01b038381166001600160a01b0319831681178455604051919092169283917f8be0079c531659141344cd1fd0a4f28419497f9722a3daafe3b4186f6b6457e09190a35050565b600080600154612710610f5591906112c1565b9050612710610f6482856112d8565b610c5c91906112f7565b600061271060015483610f8191906112d8565b610d5091906112f7565b80356001600160a01b0381168114610fa257600080fd5b919050565b600060208284031215610fb957600080fd5b610c5c82610f8b565b600080600060608486031215610fd757600080fd5b610fe084610f8b565b9250610fee60208501610f8b565b9150604084013590509250925092565b634e487b7160e01b600052604160045260246000fd5b604051601f8201601f1916810167ffffffffffffffff8111828210171561103d5761103d610ffe565b604052919050565b600067ffffffffffffffff82111561105f5761105f610ffe565b5060051b60200190565b600082601f83011261107a57600080fd5b8135602061108f61108a83611045565b611014565b82815260059290921b840181019181810190868411156110ae57600080fd5b8286015b848110156110c957803583529183019183016110b2565b509695505050505050565b600080604083850312156110e757600080fd5b823567ffffffffffffffff808211156110ff57600080fd5b818501915085601f83011261111357600080fd5b8135602061112361108a83611045565b82815260059290921b8401810191818101908984111561114257600080fd5b948201945b838610156111675761115886610f8b565b82529482019490820190611147565b9650508601359250508082111561117d57600080fd5b5061118a85828601611069565b9150509250929050565b6000602082840312156111a657600080fd5b5035919050565b600080604083850312156111c057600080fd5b6111c983610f8b565b946020939093013593505050565b600080604083850312156111ea57600080fd5b6111f383610f8b565b915061120160208401610f8b565b90509250929050565b60006020828403121561121c57600080fd5b81518015158114610c5c57600080fd5b60208082526018908201527f596f7520617265206e6f742070617274206f66207465616d0000000000000000604082015260600190565b634e487b7160e01b600052603260045260246000fd5b634e487b7160e01b600052601160045260246000fd5b6000600182016112a1576112a1611279565b5060010190565b6000602082840312156112ba57600080fd5b5051919050565b6000828210156112d3576112d3611279565b500390565b60008160001904831182151516156112f2576112f2611279565b500290565b60008261131457634e487b7160e01b600052601260045260246000fd5b50049056fea2646970667358221220a8ceb847018f99c3a5524eaf42f0f5b691d4850536ee86b323505a22e8ab6f6164736f6c634300080e0033",
    "linkReferences": {}
  },
  "methodIdentifiers": {
    "allowance(address,address)": "dd62ed3e",
    "batchMinting(address[],uint256[])": "36b59bc4",
    "burn(uint256)": "42966c68",
    "burnOnPurchase(address,uint256)": "af4d2e91",
    "getBalance(address)": "f8b2cb4f",
    "getLoyaltyPercentage()": "7f422669",
    "getTaxCollectorAddress()": "7f1bee23",
    "getfee()": "0cda45c8",
    "owner()": "8da5cb5b",
    "paused()": "5c975abb",
    "renounceOwnership()": "715018a6",
    "setFee(uint256)": "69fe0e2d",
    "setLoyaltyPercentage(uint256)": "864879bb",
    "setTaxCollector(address)": "08695b41",
    "simpleMint(address,uint256)": "fddde270",
    "taxCollector()": "bea1dcf8",
    "transfer(address,uint256)": "a9059cbb",
    "transferFrom(address,address,uint256)": "23b872dd",
    "transferOwnership(address)": "f2fde38b",
    "transferingTokensOutside(address,uint256)": "b54dd710"
  },
  "id": 15
}