{
  "abi": [
    {
      "inputs": [
        {
          "internalType": "address",
          "name": "_contract",
          "type": "address"
        }
      ],
      "stateMutability": "nonpayable",
      "type": "constructor"
    },
    {
      "inputs": [],
      "name": "AddressAndAmountLengthInvalid",
      "type": "error"
    },
    {
      "inputs": [],
      "name": "AlreadyAdded",
      "type": "error"
    },
    {
      "inputs": [],
      "name": "CannotBeAddressZero",
      "type": "error"
    },
    {
      "inputs": [],
      "name": "CannotSendToAddressZero",
      "type": "error"
    },
    {
      "inputs": [],
      "name": "NotEnoughBalance",
      "type": "error"
    },
    {
      "inputs": [],
      "name": "cannotBeContract",
      "type": "error"
    },
    {
      "inputs": [],
      "name": "valueCannotBeZero",
      "type": "error"
    },
    {
      "anonymous": false,
      "inputs": [
        {
          "indexed": false,
          "internalType": "uint256",
          "name": "loyaltyPercentageBefore",
          "type": "uint256"
        },
        {
          "indexed": false,
          "internalType": "uint256",
          "name": "loyaltyPercentageAfter",
          "type": "uint256"
        }
      ],
      "name": "LoyaltyUpdated",
      "type": "event"
    },
    {
      "anonymous": false,
      "inputs": [
        {
          "indexed": true,
          "internalType": "address",
          "name": "previousOwner",
          "type": "address"
        },
        {
          "indexed": true,
          "internalType": "address",
          "name": "newOwner",
          "type": "address"
        }
      ],
      "name": "OwnershipTransferred",
      "type": "event"
    },
    {
      "anonymous": false,
      "inputs": [
        {
          "indexed": false,
          "internalType": "address",
          "name": "account",
          "type": "address"
        }
      ],
      "name": "Paused",
      "type": "event"
    },
    {
      "anonymous": false,
      "inputs": [
        {
          "indexed": false,
          "internalType": "address",
          "name": "to",
          "type": "address"
        },
        {
          "indexed": false,
          "internalType": "uint256",
          "name": "amount",
          "type": "uint256"
        }
      ],
      "name": "TokenRewarded",
      "type": "event"
    },
    {
      "anonymous": false,
      "inputs": [
        {
          "indexed": false,
          "internalType": "uint256",
          "name": "amount",
          "type": "uint256"
        },
        {
          "indexed": false,
          "internalType": "address",
          "name": "user",
          "type": "address"
        }
      ],
      "name": "TokensBurned",
      "type": "event"
    },
    {
      "anonymous": false,
      "inputs": [
        {
          "indexed": false,
          "internalType": "address",
          "name": "account",
          "type": "address"
        }
      ],
      "name": "Unpaused",
      "type": "event"
    },
    {
      "anonymous": false,
      "inputs": [
        {
          "indexed": false,
          "internalType": "uint256",
          "name": "feeBefore",
          "type": "uint256"
        },
        {
          "indexed": false,
          "internalType": "uint256",
          "name": "feeAfter",
          "type": "uint256"
        }
      ],
      "name": "feeUpdated",
      "type": "event"
    },
    {
      "inputs": [
        {
          "internalType": "address[]",
          "name": "_addresses",
          "type": "address[]"
        },
        {
          "internalType": "uint256[]",
          "name": "_amounts",
          "type": "uint256[]"
        }
      ],
      "name": "batchMinting",
      "outputs": [],
      "stateMutability": "nonpayable",
      "type": "function"
    },
    {
      "inputs": [
        {
          "internalType": "uint256",
          "name": "_amount",
          "type": "uint256"
        },
        {
          "internalType": "address",
          "name": "_user",
          "type": "address"
        }
      ],
      "name": "burnOnPurchase",
      "outputs": [],
      "stateMutability": "nonpayable",
      "type": "function"
    },
    {
      "inputs": [
        {
          "internalType": "address",
          "name": "_user",
          "type": "address"
        }
      ],
      "name": "getBalance",
      "outputs": [
        {
          "internalType": "uint256",
          "name": "",
          "type": "uint256"
        }
      ],
      "stateMutability": "view",
      "type": "function"
    },
    {
      "inputs": [],
      "name": "getLoyaltyPercentage",
      "outputs": [
        {
          "internalType": "uint256",
          "name": "",
          "type": "uint256"
        }
      ],
      "stateMutability": "view",
      "type": "function"
    },
    {
      "inputs": [],
      "name": "getTaxCollectorAddress",
      "outputs": [
        {
          "internalType": "address",
          "name": "",
          "type": "address"
        }
      ],
      "stateMutability": "view",
      "type": "function"
    },
    {
      "inputs": [],
      "name": "getfee",
      "outputs": [
        {
          "internalType": "uint256",
          "name": "",
          "type": "uint256"
        }
      ],
      "stateMutability": "view",
      "type": "function"
    },
    {
      "inputs": [],
      "name": "owner",
      "outputs": [
        {
          "internalType": "address",
          "name": "",
          "type": "address"
        }
      ],
      "stateMutability": "view",
      "type": "function"
    },
    {
      "inputs": [],
      "name": "paused",
      "outputs": [
        {
          "internalType": "bool",
          "name": "",
          "type": "bool"
        }
      ],
      "stateMutability": "view",
      "type": "function"
    },
    {
      "inputs": [],
      "name": "renounceOwnership",
      "outputs": [],
      "stateMutability": "nonpayable",
      "type": "function"
    },
    {
      "inputs": [
        {
          "internalType": "uint256",
          "name": "_fee",
          "type": "uint256"
        }
      ],
      "name": "setFee",
      "outputs": [],
      "stateMutability": "nonpayable",
      "type": "function"
    },
    {
      "inputs": [
        {
          "internalType": "uint256",
          "name": "_loyaltyPercentage",
          "type": "uint256"
        }
      ],
      "name": "setLoyaltyPercentage",
      "outputs": [],
      "stateMutability": "nonpayable",
      "type": "function"
    },
    {
      "inputs": [
        {
          "internalType": "address",
          "name": "_taxCollector",
          "type": "address"
        }
      ],
      "name": "setTaxCollector",
      "outputs": [],
      "stateMutability": "nonpayable",
      "type": "function"
    },
    {
      "inputs": [
        {
          "internalType": "address",
          "name": "_to",
          "type": "address"
        },
        {
          "internalType": "uint256",
          "name": "_amount",
          "type": "uint256"
        }
      ],
      "name": "simpleMint",
      "outputs": [],
      "stateMutability": "nonpayable",
      "type": "function"
    },
    {
      "inputs": [],
      "name": "taxCollector",
      "outputs": [
        {
          "internalType": "address",
          "name": "",
          "type": "address"
        }
      ],
      "stateMutability": "view",
      "type": "function"
    },
    {
      "inputs": [
        {
          "internalType": "address",
          "name": "newOwner",
          "type": "address"
        }
      ],
      "name": "transferOwnership",
      "outputs": [],
      "stateMutability": "nonpayable",
      "type": "function"
    },
    {
      "inputs": [
        {
          "internalType": "address",
          "name": "_to",
          "type": "address"
        },
        {
          "internalType": "uint256",
          "name": "_amount",
          "type": "uint256"
        }
      ],
      "name": "transferingTokensOutside",
      "outputs": [],
      "stateMutability": "nonpayable",
      "type": "function"
    }
  ],
  "bytecode": {
    "object": "0x60806040526107d06001556103e860025534801561001c57600080fd5b5060405161108038038061108083398101604081905261003b916100be565b6100443361006e565b600380546001600160a01b03909216610100026001600160a81b03199092169190911790556100ee565b600080546001600160a01b038381166001600160a01b0319831681178455604051919092169283917f8be0079c531659141344cd1fd0a4f28419497f9722a3daafe3b4186f6b6457e09190a35050565b6000602082840312156100d057600080fd5b81516001600160a01b03811681146100e757600080fd5b9392505050565b610f83806100fd6000396000f3fe608060405234801561001057600080fd5b50600436106101005760003560e01c80637f42266911610097578063bea1dcf811610066578063bea1dcf8146101e7578063f2fde38b146101fa578063f8b2cb4f1461020d578063fddde2701461022057600080fd5b80637f422669146101a8578063864879bb146101b05780638da5cb5b146101c3578063b54dd710146101d457600080fd5b80635c975abb116100d35780635c975abb1461015757806369fe0e2d1461016d578063715018a6146101805780637f1bee231461018857600080fd5b806308695b41146101055780630cda45c81461011a5780631b2903691461013157806336b59bc414610144575b600080fd5b610118610113366004610c1e565b610233565b005b6001545b6040519081526020015b60405180910390f35b61011861013f366004610c39565b61027d565b610118610152366004610d3b565b61045e565b60035460ff166040519015158152602001610128565b61011861017b366004610dfb565b6106bd565b610118610707565b61019061071b565b6040516001600160a01b039091168152602001610128565b60025461011e565b6101186101be366004610dfb565b610735565b6000546001600160a01b0316610190565b6101186101e2366004610e14565b610778565b600454610190906001600160a01b031681565b610118610208366004610c1e565b6108d3565b61011e61021b366004610c1e565b61094c565b61011861022e366004610e14565b6109c6565b61023b610ac2565b803b1561025b57604051632111dc4760e01b815260040160405180910390fd5b600480546001600160a01b0319166001600160a01b0392909216919091179055565b600354604051635363afd160e11b81523360048201526101009091046001600160a01b03169063a6c75fa290602401602060405180830381865afa1580156102c9573d6000803e3d6000fd5b505050506040513d601f19601f820116820180604052508101906102ed9190610e3e565b6103125760405162461bcd60e51b815260040161030990610e60565b60405180910390fd5b61031a610b1c565b6003546040516370a0823160e01b81526001600160a01b0383811660048301528492610100900416906370a0823190602401602060405180830381865afa158015610369573d6000803e3d6000fd5b505050506040513d601f19601f8201168201806040525081019061038d9190610e97565b10156103ac5760405163569d45cf60e11b815260040160405180910390fd5b60035460405163079cc67960e41b81526001600160a01b03838116600483015260248201859052610100909204909116906379cc679090604401600060405180830381600087803b15801561040057600080fd5b505af1158015610414573d6000803e3d6000fd5b5050604080518581526001600160a01b03851660208201527f63706707d038997d2210eb026bb1339397deab463921538a81bb98e69ee54ca8935001905060405180910390a15050565b600354604051635363afd160e11b81523360048201526101009091046001600160a01b03169063a6c75fa290602401602060405180830381865afa1580156104aa573d6000803e3d6000fd5b505050506040513d601f19601f820116820180604052508101906104ce9190610e3e565b6104ea5760405162461bcd60e51b815260040161030990610e60565b6104f2610b1c565b805182511461051457604051630c17582360e31b815260040160405180910390fd5b60005b82518110156106b85760006001600160a01b031683828151811061053d5761053d610eb0565b60200260200101516001600160a01b03160361056c576040516309f9845360e01b815260040160405180910390fd5b600360019054906101000a90046001600160a01b03166001600160a01b031663cd748abb8483815181106105a2576105a2610eb0565b60200260200101518484815181106105bc576105bc610eb0565b60200260200101516040518363ffffffff1660e01b81526004016105f59291906001600160a01b03929092168252602082015260400190565b600060405180830381600087803b15801561060f57600080fd5b505af1158015610623573d6000803e3d6000fd5b505050507fe6b392a485300aed5d0afd949a6e7bbb13d3dc1a15efa0a0c1630b48ae54ca4683828151811061065a5761065a610eb0565b602002602001015183838151811061067457610674610eb0565b602002602001015160405161069e9291906001600160a01b03929092168252602082015260400190565b60405180910390a1806106b081610edc565b915050610517565b505050565b6106c5610ac2565b600181905560408051828152602081018390527fed28c14db89870da08d76b69e3f96d95cbb779778f62a9ea4d4d41dc082d088a91015b60405180910390a150565b61070f610ac2565b6107196000610b62565b565b6000610725610ac2565b506004546001600160a01b031690565b61073d610ac2565b600281905560408051828152602081018390527f6a83cc218b6e35f4b68868b8cf2a7968201acfd91f619cd387fb092745e5b8dc91016106fc565b6001600160a01b03821661079f57604051633415fd6160e11b815260040160405180910390fd5b600081116107c05760405163114617e760e21b815260040160405180910390fd5b60006107cb82610bb2565b905060006107d883610be5565b905060003360035460048054604051631501bf0360e01b81526001600160a01b03808616938201939093529082166024820152604481018690529293506101009091041690631501bf0390606401600060405180830381600087803b15801561084057600080fd5b505af1158015610854573d6000803e3d6000fd5b5050600354604051631501bf0360e01b81526001600160a01b0385811660048301528981166024830152604482018890526101009092049091169250631501bf039150606401600060405180830381600087803b1580156108b457600080fd5b505af11580156108c8573d6000803e3d6000fd5b505050505050505050565b6108db610ac2565b6001600160a01b0381166109405760405162461bcd60e51b815260206004820152602660248201527f4f776e61626c653a206e6577206f776e657220697320746865207a65726f206160448201526564647265737360d01b6064820152608401610309565b61094981610b62565b50565b6003546040516370a0823160e01b81526001600160a01b038381166004830152600092610100900416906370a0823190602401602060405180830381865afa15801561099c573d6000803e3d6000fd5b505050506040513d601f19601f820116820180604052508101906109c09190610e97565b92915050565b600354604051635363afd160e11b81523360048201526101009091046001600160a01b03169063a6c75fa290602401602060405180830381865afa158015610a12573d6000803e3d6000fd5b505050506040513d601f19601f82011682018060405250810190610a369190610e3e565b610a525760405162461bcd60e51b815260040161030990610e60565b60035460405163cd748abb60e01b81526001600160a01b038481166004830152602482018490526101009092049091169063cd748abb90604401600060405180830381600087803b158015610aa657600080fd5b505af1158015610aba573d6000803e3d6000fd5b505050505050565b6000546001600160a01b031633146107195760405162461bcd60e51b815260206004820181905260248201527f4f776e61626c653a2063616c6c6572206973206e6f7420746865206f776e65726044820152606401610309565b60035460ff16156107195760405162461bcd60e51b815260206004820152601060248201526f14185d5cd8589b194e881c185d5cd95960821b6044820152606401610309565b600080546001600160a01b038381166001600160a01b0319831681178455604051919092169283917f8be0079c531659141344cd1fd0a4f28419497f9722a3daafe3b4186f6b6457e09190a35050565b600080600154612710610bc59190610ef5565b9050612710610bd48285610f0c565b610bde9190610f2b565b9392505050565b600061271060015483610bf89190610f0c565b6109c09190610f2b565b80356001600160a01b0381168114610c1957600080fd5b919050565b600060208284031215610c3057600080fd5b610bde82610c02565b60008060408385031215610c4c57600080fd5b82359150610c5c60208401610c02565b90509250929050565b634e487b7160e01b600052604160045260246000fd5b604051601f8201601f1916810167ffffffffffffffff81118282101715610ca457610ca4610c65565b604052919050565b600067ffffffffffffffff821115610cc657610cc6610c65565b5060051b60200190565b600082601f830112610ce157600080fd5b81356020610cf6610cf183610cac565b610c7b565b82815260059290921b84018101918181019086841115610d1557600080fd5b8286015b84811015610d305780358352918301918301610d19565b509695505050505050565b60008060408385031215610d4e57600080fd5b823567ffffffffffffffff80821115610d6657600080fd5b818501915085601f830112610d7a57600080fd5b81356020610d8a610cf183610cac565b82815260059290921b84018101918181019089841115610da957600080fd5b948201945b83861015610dce57610dbf86610c02565b82529482019490820190610dae565b96505086013592505080821115610de457600080fd5b50610df185828601610cd0565b9150509250929050565b600060208284031215610e0d57600080fd5b5035919050565b60008060408385031215610e2757600080fd5b610e3083610c02565b946020939093013593505050565b600060208284031215610e5057600080fd5b81518015158114610bde57600080fd5b60208082526018908201527f596f7520617265206e6f742070617274206f66207465616d0000000000000000604082015260600190565b600060208284031215610ea957600080fd5b5051919050565b634e487b7160e01b600052603260045260246000fd5b634e487b7160e01b600052601160045260246000fd5b600060018201610eee57610eee610ec6565b5060010190565b600082821015610f0757610f07610ec6565b500390565b6000816000190483118215151615610f2657610f26610ec6565b500290565b600082610f4857634e487b7160e01b600052601260045260246000fd5b50049056fea264697066735822122006813cb09d28e02594bbda5c724d1d74f2179183963dccc15133a54989c94e4464736f6c634300080e0033",
    "linkReferences": {}
  },
  "methodIdentifiers": {
    "batchMinting(address[],uint256[])": "36b59bc4",
    "burnOnPurchase(uint256,address)": "1b290369",
    "getBalance(address)": "f8b2cb4f",
    "getLoyaltyPercentage()": "7f422669",
    "getTaxCollectorAddress()": "7f1bee23",
    "getfee()": "0cda45c8",
    "owner()": "8da5cb5b",
    "paused()": "5c975abb",
    "renounceOwnership()": "715018a6",
    "setFee(uint256)": "69fe0e2d",
    "setLoyaltyPercentage(uint256)": "864879bb",
    "setTaxCollector(address)": "08695b41",
    "simpleMint(address,uint256)": "fddde270",
    "taxCollector()": "bea1dcf8",
    "transferOwnership(address)": "f2fde38b",
    "transferingTokensOutside(address,uint256)": "b54dd710"
  },
  "id": 15
}