{
  "abi": [
    {
      "inputs": [],
      "name": "AddressAndAmountLengthInvalid",
      "type": "error"
    },
    {
      "inputs": [],
      "name": "AlreadyAdded",
      "type": "error"
    },
    {
      "inputs": [],
      "name": "CannotBeAddressZero",
      "type": "error"
    },
    {
      "inputs": [],
      "name": "CannotSendToAddressZero",
      "type": "error"
    },
    {
      "inputs": [],
      "name": "NotEnoughBalance",
      "type": "error"
    },
    {
      "inputs": [],
      "name": "cannotBeContract",
      "type": "error"
    },
    {
      "inputs": [],
      "name": "valueCannotBeZero",
      "type": "error"
    },
    {
      "anonymous": false,
      "inputs": [
        {
          "indexed": false,
          "internalType": "uint256",
          "name": "loyaltyPercentageBefore",
          "type": "uint256"
        },
        {
          "indexed": false,
          "internalType": "uint256",
          "name": "loyaltyPercentageAfter",
          "type": "uint256"
        }
      ],
      "name": "LoyaltyUpdated",
      "type": "event"
    },
    {
      "anonymous": false,
      "inputs": [
        {
          "indexed": true,
          "internalType": "address",
          "name": "previousOwner",
          "type": "address"
        },
        {
          "indexed": true,
          "internalType": "address",
          "name": "newOwner",
          "type": "address"
        }
      ],
      "name": "OwnershipTransferred",
      "type": "event"
    },
    {
      "anonymous": false,
      "inputs": [
        {
          "indexed": false,
          "internalType": "address",
          "name": "account",
          "type": "address"
        }
      ],
      "name": "Paused",
      "type": "event"
    },
    {
      "anonymous": false,
      "inputs": [
        {
          "indexed": false,
          "internalType": "address",
          "name": "to",
          "type": "address"
        },
        {
          "indexed": false,
          "internalType": "uint256",
          "name": "amount",
          "type": "uint256"
        }
      ],
      "name": "TokenRewarded",
      "type": "event"
    },
    {
      "anonymous": false,
      "inputs": [
        {
          "indexed": false,
          "internalType": "uint256",
          "name": "amount",
          "type": "uint256"
        },
        {
          "indexed": false,
          "internalType": "address",
          "name": "user",
          "type": "address"
        }
      ],
      "name": "TokensBurned",
      "type": "event"
    },
    {
      "anonymous": false,
      "inputs": [
        {
          "indexed": false,
          "internalType": "address",
          "name": "account",
          "type": "address"
        }
      ],
      "name": "Unpaused",
      "type": "event"
    },
    {
      "anonymous": false,
      "inputs": [
        {
          "indexed": false,
          "internalType": "uint256",
          "name": "feeBefore",
          "type": "uint256"
        },
        {
          "indexed": false,
          "internalType": "uint256",
          "name": "feeAfter",
          "type": "uint256"
        }
      ],
      "name": "feeUpdated",
      "type": "event"
    },
    {
      "inputs": [
        {
          "internalType": "address[]",
          "name": "_addresses",
          "type": "address[]"
        },
        {
          "internalType": "uint256[]",
          "name": "_amounts",
          "type": "uint256[]"
        }
      ],
      "name": "batchMinting",
      "outputs": [],
      "stateMutability": "nonpayable",
      "type": "function"
    },
    {
      "inputs": [
        {
          "internalType": "uint256",
          "name": "_amount",
          "type": "uint256"
        },
        {
          "internalType": "address",
          "name": "_user",
          "type": "address"
        }
      ],
      "name": "burnOnPurchase",
      "outputs": [],
      "stateMutability": "nonpayable",
      "type": "function"
    },
    {
      "inputs": [],
      "name": "getLoyaltyPercentage",
      "outputs": [
        {
          "internalType": "uint256",
          "name": "",
          "type": "uint256"
        }
      ],
      "stateMutability": "view",
      "type": "function"
    },
    {
      "inputs": [],
      "name": "getTaxCollectorAddress",
      "outputs": [
        {
          "internalType": "address",
          "name": "",
          "type": "address"
        }
      ],
      "stateMutability": "view",
      "type": "function"
    },
    {
      "inputs": [],
      "name": "getfee",
      "outputs": [
        {
          "internalType": "uint256",
          "name": "",
          "type": "uint256"
        }
      ],
      "stateMutability": "view",
      "type": "function"
    },
    {
      "inputs": [],
      "name": "lockTIme",
      "outputs": [
        {
          "internalType": "uint256",
          "name": "",
          "type": "uint256"
        }
      ],
      "stateMutability": "view",
      "type": "function"
    },
    {
      "inputs": [],
      "name": "owner",
      "outputs": [
        {
          "internalType": "address",
          "name": "",
          "type": "address"
        }
      ],
      "stateMutability": "view",
      "type": "function"
    },
    {
      "inputs": [],
      "name": "paused",
      "outputs": [
        {
          "internalType": "bool",
          "name": "",
          "type": "bool"
        }
      ],
      "stateMutability": "view",
      "type": "function"
    },
    {
      "inputs": [],
      "name": "renounceOwnership",
      "outputs": [],
      "stateMutability": "nonpayable",
      "type": "function"
    },
    {
      "inputs": [
        {
          "internalType": "uint256",
          "name": "_fee",
          "type": "uint256"
        }
      ],
      "name": "setFee",
      "outputs": [],
      "stateMutability": "nonpayable",
      "type": "function"
    },
    {
      "inputs": [
        {
          "internalType": "uint256",
          "name": "_loyaltyPercentage",
          "type": "uint256"
        }
      ],
      "name": "setLoyaltyPercentage",
      "outputs": [],
      "stateMutability": "nonpayable",
      "type": "function"
    },
    {
      "inputs": [
        {
          "internalType": "address",
          "name": "_taxCollector",
          "type": "address"
        }
      ],
      "name": "setTaxCollector",
      "outputs": [],
      "stateMutability": "nonpayable",
      "type": "function"
    },
    {
      "inputs": [],
      "name": "taxCollector",
      "outputs": [
        {
          "internalType": "address",
          "name": "",
          "type": "address"
        }
      ],
      "stateMutability": "view",
      "type": "function"
    },
    {
      "inputs": [
        {
          "internalType": "address",
          "name": "newOwner",
          "type": "address"
        }
      ],
      "name": "transferOwnership",
      "outputs": [],
      "stateMutability": "nonpayable",
      "type": "function"
    },
    {
      "inputs": [
        {
          "internalType": "address",
          "name": "_to",
          "type": "address"
        },
        {
          "internalType": "uint256",
          "name": "_amount",
          "type": "uint256"
        }
      ],
      "name": "transferingTokensOutside",
      "outputs": [],
      "stateMutability": "nonpayable",
      "type": "function"
    }
  ],
  "bytecode": {
    "object": "0x60806040526107d06001556103e860025534801561001c57600080fd5b5061002633610035565b6003805460ff19169055610085565b600080546001600160a01b038381166001600160a01b0319831681178455604051919092169283917f8be0079c531659141344cd1fd0a4f28419497f9722a3daafe3b4186f6b6457e09190a35050565b610e03806100946000396000f3fe608060405234801561001057600080fd5b50600436106100f55760003560e01c80637f1bee2311610097578063b54dd71011610066578063b54dd710146101c9578063bea1dcf8146101dc578063ead7a1dc146101ef578063f2fde38b146101f857600080fd5b80637f1bee231461017d5780637f4226691461019d578063864879bb146101a55780638da5cb5b146101b857600080fd5b806336b59bc4116100d357806336b59bc4146101395780635c975abb1461014c57806369fe0e2d14610162578063715018a61461017557600080fd5b806308695b41146100fa5780630cda45c81461010f5780631b29036914610126575b600080fd5b61010d610108366004610ad5565b61020b565b005b6001545b6040519081526020015b60405180910390f35b61010d610134366004610af0565b610255565b61010d610147366004610bf2565b61045d565b60035460ff16604051901515815260200161011d565b61010d610170366004610cb2565b6106e7565b61010d610731565b610185610745565b6040516001600160a01b03909116815260200161011d565b600254610113565b61010d6101b3366004610cb2565b61075f565b6000546001600160a01b0316610185565b61010d6101d7366004610ccb565b6107a2565b600554610185906001600160a01b031681565b61011360045481565b61010d610206366004610ad5565b6108fa565b610213610973565b803b1561023357604051632111dc4760e01b815260040160405180910390fd5b600580546001600160a01b0319166001600160a01b0392909216919091179055565b600354604051635363afd160e11b81523360048201526101009091046001600160a01b03169063a6c75fa290602401602060405180830381865afa1580156102a1573d6000803e3d6000fd5b505050506040513d601f19601f820116820180604052508101906102c59190610cf5565b6103115760405162461bcd60e51b8152602060048201526018602482015277596f7520617265206e6f742070617274206f66207465616d60401b60448201526064015b60405180910390fd5b6103196109cd565b6003546040516370a0823160e01b81526001600160a01b0383811660048301528492610100900416906370a0823190602401602060405180830381865afa158015610368573d6000803e3d6000fd5b505050506040513d601f19601f8201168201806040525081019061038c9190610d17565b10156103ab5760405163569d45cf60e11b815260040160405180910390fd5b60035460405163079cc67960e41b81526001600160a01b03838116600483015260248201859052610100909204909116906379cc679090604401600060405180830381600087803b1580156103ff57600080fd5b505af1158015610413573d6000803e3d6000fd5b5050604080518581526001600160a01b03851660208201527f63706707d038997d2210eb026bb1339397deab463921538a81bb98e69ee54ca8935001905060405180910390a15050565b600354604051635363afd160e11b81523360048201526101009091046001600160a01b03169063a6c75fa290602401602060405180830381865afa1580156104a9573d6000803e3d6000fd5b505050506040513d601f19601f820116820180604052508101906104cd9190610cf5565b6105145760405162461bcd60e51b8152602060048201526018602482015277596f7520617265206e6f742070617274206f66207465616d60401b6044820152606401610308565b61051c6109cd565b805182511461053e57604051630c17582360e31b815260040160405180910390fd5b60005b82518110156106e25760006001600160a01b031683828151811061056757610567610d30565b60200260200101516001600160a01b031603610596576040516309f9845360e01b815260040160405180910390fd5b600360019054906101000a90046001600160a01b03166001600160a01b031663cd748abb8483815181106105cc576105cc610d30565b60200260200101518484815181106105e6576105e6610d30565b60200260200101516040518363ffffffff1660e01b815260040161061f9291906001600160a01b03929092168252602082015260400190565b600060405180830381600087803b15801561063957600080fd5b505af115801561064d573d6000803e3d6000fd5b505050507fe6b392a485300aed5d0afd949a6e7bbb13d3dc1a15efa0a0c1630b48ae54ca4683828151811061068457610684610d30565b602002602001015183838151811061069e5761069e610d30565b60200260200101516040516106c89291906001600160a01b03929092168252602082015260400190565b60405180910390a1806106da81610d5c565b915050610541565b505050565b6106ef610973565b600181905560408051828152602081018390527fed28c14db89870da08d76b69e3f96d95cbb779778f62a9ea4d4d41dc082d088a91015b60405180910390a150565b610739610973565b6107436000610a13565b565b600061074f610973565b506005546001600160a01b031690565b610767610973565b600281905560408051828152602081018390527f6a83cc218b6e35f4b68868b8cf2a7968201acfd91f619cd387fb092745e5b8dc9101610726565b6001600160a01b0382166107c957604051633415fd6160e11b815260040160405180910390fd5b600081116107ea5760405163114617e760e21b815260040160405180910390fd5b60006107f582610a63565b9050600061080283610a96565b9050600033600354600554604051631501bf0360e01b81526001600160a01b0380851660048301529182166024820152604481018690529293506101009091041690631501bf0390606401600060405180830381600087803b15801561086757600080fd5b505af115801561087b573d6000803e3d6000fd5b5050600354604051631501bf0360e01b81526001600160a01b0385811660048301528981166024830152604482018890526101009092049091169250631501bf039150606401600060405180830381600087803b1580156108db57600080fd5b505af11580156108ef573d6000803e3d6000fd5b505050505050505050565b610902610973565b6001600160a01b0381166109675760405162461bcd60e51b815260206004820152602660248201527f4f776e61626c653a206e6577206f776e657220697320746865207a65726f206160448201526564647265737360d01b6064820152608401610308565b61097081610a13565b50565b6000546001600160a01b031633146107435760405162461bcd60e51b815260206004820181905260248201527f4f776e61626c653a2063616c6c6572206973206e6f7420746865206f776e65726044820152606401610308565b60035460ff16156107435760405162461bcd60e51b815260206004820152601060248201526f14185d5cd8589b194e881c185d5cd95960821b6044820152606401610308565b600080546001600160a01b038381166001600160a01b0319831681178455604051919092169283917f8be0079c531659141344cd1fd0a4f28419497f9722a3daafe3b4186f6b6457e09190a35050565b600080600154612710610a769190610d75565b9050612710610a858285610d8c565b610a8f9190610dab565b9392505050565b600061271060015483610aa99190610d8c565b610ab39190610dab565b92915050565b80356001600160a01b0381168114610ad057600080fd5b919050565b600060208284031215610ae757600080fd5b610a8f82610ab9565b60008060408385031215610b0357600080fd5b82359150610b1360208401610ab9565b90509250929050565b634e487b7160e01b600052604160045260246000fd5b604051601f8201601f1916810167ffffffffffffffff81118282101715610b5b57610b5b610b1c565b604052919050565b600067ffffffffffffffff821115610b7d57610b7d610b1c565b5060051b60200190565b600082601f830112610b9857600080fd5b81356020610bad610ba883610b63565b610b32565b82815260059290921b84018101918181019086841115610bcc57600080fd5b8286015b84811015610be75780358352918301918301610bd0565b509695505050505050565b60008060408385031215610c0557600080fd5b823567ffffffffffffffff80821115610c1d57600080fd5b818501915085601f830112610c3157600080fd5b81356020610c41610ba883610b63565b82815260059290921b84018101918181019089841115610c6057600080fd5b948201945b83861015610c8557610c7686610ab9565b82529482019490820190610c65565b96505086013592505080821115610c9b57600080fd5b50610ca885828601610b87565b9150509250929050565b600060208284031215610cc457600080fd5b5035919050565b60008060408385031215610cde57600080fd5b610ce783610ab9565b946020939093013593505050565b600060208284031215610d0757600080fd5b81518015158114610a8f57600080fd5b600060208284031215610d2957600080fd5b5051919050565b634e487b7160e01b600052603260045260246000fd5b634e487b7160e01b600052601160045260246000fd5b600060018201610d6e57610d6e610d46565b5060010190565b600082821015610d8757610d87610d46565b500390565b6000816000190483118215151615610da657610da6610d46565b500290565b600082610dc857634e487b7160e01b600052601260045260246000fd5b50049056fea2646970667358221220929b587183e67a2e665b646b741b1223f950ab01d544fe4a9d89dc1409ce865864736f6c634300080e0033",
    "linkReferences": {}
  },
  "methodIdentifiers": {
    "batchMinting(address[],uint256[])": "36b59bc4",
    "burnOnPurchase(uint256,address)": "1b290369",
    "getLoyaltyPercentage()": "7f422669",
    "getTaxCollectorAddress()": "7f1bee23",
    "getfee()": "0cda45c8",
    "lockTIme()": "ead7a1dc",
    "owner()": "8da5cb5b",
    "paused()": "5c975abb",
    "renounceOwnership()": "715018a6",
    "setFee(uint256)": "69fe0e2d",
    "setLoyaltyPercentage(uint256)": "864879bb",
    "setTaxCollector(address)": "08695b41",
    "taxCollector()": "bea1dcf8",
    "transferOwnership(address)": "f2fde38b",
    "transferingTokensOutside(address,uint256)": "b54dd710"
  },
  "id": 18
}