{
  "abi": [
    {
      "inputs": [
        {
          "internalType": "address",
          "name": "_contract",
          "type": "address"
        }
      ],
      "stateMutability": "nonpayable",
      "type": "constructor"
    },
    {
      "inputs": [],
      "name": "AddressAndAmountLengthInvalid",
      "type": "error"
    },
    {
      "inputs": [],
      "name": "AlreadyAdded",
      "type": "error"
    },
    {
      "inputs": [],
      "name": "CannotBeAddressZero",
      "type": "error"
    },
    {
      "inputs": [],
      "name": "CannotSendToAddressZero",
      "type": "error"
    },
    {
      "inputs": [],
      "name": "NotEnoughBalance",
      "type": "error"
    },
    {
      "inputs": [],
      "name": "cannotBeContract",
      "type": "error"
    },
    {
      "inputs": [],
      "name": "valueCannotBeZero",
      "type": "error"
    },
    {
      "anonymous": false,
      "inputs": [
        {
          "indexed": false,
          "internalType": "uint256",
          "name": "loyaltyPercentageBefore",
          "type": "uint256"
        },
        {
          "indexed": false,
          "internalType": "uint256",
          "name": "loyaltyPercentageAfter",
          "type": "uint256"
        }
      ],
      "name": "LoyaltyUpdated",
      "type": "event"
    },
    {
      "anonymous": false,
      "inputs": [
        {
          "indexed": true,
          "internalType": "address",
          "name": "previousOwner",
          "type": "address"
        },
        {
          "indexed": true,
          "internalType": "address",
          "name": "newOwner",
          "type": "address"
        }
      ],
      "name": "OwnershipTransferred",
      "type": "event"
    },
    {
      "anonymous": false,
      "inputs": [
        {
          "indexed": false,
          "internalType": "address",
          "name": "account",
          "type": "address"
        }
      ],
      "name": "Paused",
      "type": "event"
    },
    {
      "anonymous": false,
      "inputs": [
        {
          "indexed": false,
          "internalType": "address",
          "name": "to",
          "type": "address"
        },
        {
          "indexed": false,
          "internalType": "uint256",
          "name": "amount",
          "type": "uint256"
        }
      ],
      "name": "TokenRewarded",
      "type": "event"
    },
    {
      "anonymous": false,
      "inputs": [
        {
          "indexed": false,
          "internalType": "uint256",
          "name": "amount",
          "type": "uint256"
        },
        {
          "indexed": false,
          "internalType": "address",
          "name": "user",
          "type": "address"
        }
      ],
      "name": "TokensBurned",
      "type": "event"
    },
    {
      "anonymous": false,
      "inputs": [
        {
          "indexed": false,
          "internalType": "address",
          "name": "account",
          "type": "address"
        }
      ],
      "name": "Unpaused",
      "type": "event"
    },
    {
      "anonymous": false,
      "inputs": [
        {
          "indexed": false,
          "internalType": "uint256",
          "name": "feeBefore",
          "type": "uint256"
        },
        {
          "indexed": false,
          "internalType": "uint256",
          "name": "feeAfter",
          "type": "uint256"
        }
      ],
      "name": "feeUpdated",
      "type": "event"
    },
    {
      "inputs": [
        {
          "internalType": "address[]",
          "name": "_addresses",
          "type": "address[]"
        },
        {
          "internalType": "uint256[]",
          "name": "_amounts",
          "type": "uint256[]"
        }
      ],
      "name": "batchMinting",
      "outputs": [],
      "stateMutability": "nonpayable",
      "type": "function"
    },
    {
      "inputs": [
        {
          "internalType": "uint256",
          "name": "_amount",
          "type": "uint256"
        },
        {
          "internalType": "address",
          "name": "_user",
          "type": "address"
        }
      ],
      "name": "burnOnPurchase",
      "outputs": [],
      "stateMutability": "nonpayable",
      "type": "function"
    },
    {
      "inputs": [
        {
          "internalType": "address",
          "name": "_user",
          "type": "address"
        }
      ],
      "name": "getBalance",
      "outputs": [
        {
          "internalType": "uint256",
          "name": "",
          "type": "uint256"
        }
      ],
      "stateMutability": "view",
      "type": "function"
    },
    {
      "inputs": [],
      "name": "getLoyaltyPercentage",
      "outputs": [
        {
          "internalType": "uint256",
          "name": "",
          "type": "uint256"
        }
      ],
      "stateMutability": "view",
      "type": "function"
    },
    {
      "inputs": [],
      "name": "getTaxCollectorAddress",
      "outputs": [
        {
          "internalType": "address",
          "name": "",
          "type": "address"
        }
      ],
      "stateMutability": "view",
      "type": "function"
    },
    {
      "inputs": [],
      "name": "getfee",
      "outputs": [
        {
          "internalType": "uint256",
          "name": "",
          "type": "uint256"
        }
      ],
      "stateMutability": "view",
      "type": "function"
    },
    {
      "inputs": [],
      "name": "owner",
      "outputs": [
        {
          "internalType": "address",
          "name": "",
          "type": "address"
        }
      ],
      "stateMutability": "view",
      "type": "function"
    },
    {
      "inputs": [],
      "name": "paused",
      "outputs": [
        {
          "internalType": "bool",
          "name": "",
          "type": "bool"
        }
      ],
      "stateMutability": "view",
      "type": "function"
    },
    {
      "inputs": [],
      "name": "renounceOwnership",
      "outputs": [],
      "stateMutability": "nonpayable",
      "type": "function"
    },
    {
      "inputs": [
        {
          "internalType": "uint256",
          "name": "_fee",
          "type": "uint256"
        }
      ],
      "name": "setFee",
      "outputs": [],
      "stateMutability": "nonpayable",
      "type": "function"
    },
    {
      "inputs": [
        {
          "internalType": "uint256",
          "name": "_loyaltyPercentage",
          "type": "uint256"
        }
      ],
      "name": "setLoyaltyPercentage",
      "outputs": [],
      "stateMutability": "nonpayable",
      "type": "function"
    },
    {
      "inputs": [
        {
          "internalType": "address",
          "name": "_taxCollector",
          "type": "address"
        }
      ],
      "name": "setTaxCollector",
      "outputs": [],
      "stateMutability": "nonpayable",
      "type": "function"
    },
    {
      "inputs": [],
      "name": "taxCollector",
      "outputs": [
        {
          "internalType": "address",
          "name": "",
          "type": "address"
        }
      ],
      "stateMutability": "view",
      "type": "function"
    },
    {
      "inputs": [
        {
          "internalType": "address",
          "name": "newOwner",
          "type": "address"
        }
      ],
      "name": "transferOwnership",
      "outputs": [],
      "stateMutability": "nonpayable",
      "type": "function"
    },
    {
      "inputs": [
        {
          "internalType": "address",
          "name": "_to",
          "type": "address"
        },
        {
          "internalType": "uint256",
          "name": "_amount",
          "type": "uint256"
        }
      ],
      "name": "transferingTokensOutside",
      "outputs": [],
      "stateMutability": "nonpayable",
      "type": "function"
    }
  ],
  "bytecode": {
    "object": "0x60806040526107d06001556103e860025534801561001c57600080fd5b50604051610f81380380610f8183398101604081905261003b916100be565b6100443361006e565b600380546001600160a01b03909216610100026001600160a81b03199092169190911790556100ee565b600080546001600160a01b038381166001600160a01b0319831681178455604051919092169283917f8be0079c531659141344cd1fd0a4f28419497f9722a3daafe3b4186f6b6457e09190a35050565b6000602082840312156100d057600080fd5b81516001600160a01b03811681146100e757600080fd5b9392505050565b610e84806100fd6000396000f3fe608060405234801561001057600080fd5b50600436106100f55760003560e01c80637f1bee2311610097578063b54dd71011610066578063b54dd710146101c9578063bea1dcf8146101dc578063f2fde38b146101ef578063f8b2cb4f1461020257600080fd5b80637f1bee231461017d5780637f4226691461019d578063864879bb146101a55780638da5cb5b146101b857600080fd5b806336b59bc4116100d357806336b59bc4146101395780635c975abb1461014c57806369fe0e2d14610162578063715018a61461017557600080fd5b806308695b41146100fa5780630cda45c81461010f5780631b29036914610126575b600080fd5b61010d610108366004610b56565b610215565b005b6001545b6040519081526020015b60405180910390f35b61010d610134366004610b71565b61025f565b61010d610147366004610c73565b610467565b60035460ff16604051901515815260200161011d565b61010d610170366004610d33565b6106f1565b61010d61073b565b61018561074f565b6040516001600160a01b03909116815260200161011d565b600254610113565b61010d6101b3366004610d33565b610769565b6000546001600160a01b0316610185565b61010d6101d7366004610d4c565b6107ac565b600454610185906001600160a01b031681565b61010d6101fd366004610b56565b610907565b610113610210366004610b56565b610980565b61021d6109fa565b803b1561023d57604051632111dc4760e01b815260040160405180910390fd5b600480546001600160a01b0319166001600160a01b0392909216919091179055565b600354604051635363afd160e11b81523360048201526101009091046001600160a01b03169063a6c75fa290602401602060405180830381865afa1580156102ab573d6000803e3d6000fd5b505050506040513d601f19601f820116820180604052508101906102cf9190610d76565b61031b5760405162461bcd60e51b8152602060048201526018602482015277596f7520617265206e6f742070617274206f66207465616d60401b60448201526064015b60405180910390fd5b610323610a54565b6003546040516370a0823160e01b81526001600160a01b0383811660048301528492610100900416906370a0823190602401602060405180830381865afa158015610372573d6000803e3d6000fd5b505050506040513d601f19601f820116820180604052508101906103969190610d98565b10156103b55760405163569d45cf60e11b815260040160405180910390fd5b60035460405163079cc67960e41b81526001600160a01b03838116600483015260248201859052610100909204909116906379cc679090604401600060405180830381600087803b15801561040957600080fd5b505af115801561041d573d6000803e3d6000fd5b5050604080518581526001600160a01b03851660208201527f63706707d038997d2210eb026bb1339397deab463921538a81bb98e69ee54ca8935001905060405180910390a15050565b600354604051635363afd160e11b81523360048201526101009091046001600160a01b03169063a6c75fa290602401602060405180830381865afa1580156104b3573d6000803e3d6000fd5b505050506040513d601f19601f820116820180604052508101906104d79190610d76565b61051e5760405162461bcd60e51b8152602060048201526018602482015277596f7520617265206e6f742070617274206f66207465616d60401b6044820152606401610312565b610526610a54565b805182511461054857604051630c17582360e31b815260040160405180910390fd5b60005b82518110156106ec5760006001600160a01b031683828151811061057157610571610db1565b60200260200101516001600160a01b0316036105a0576040516309f9845360e01b815260040160405180910390fd5b600360019054906101000a90046001600160a01b03166001600160a01b031663cd748abb8483815181106105d6576105d6610db1565b60200260200101518484815181106105f0576105f0610db1565b60200260200101516040518363ffffffff1660e01b81526004016106299291906001600160a01b03929092168252602082015260400190565b600060405180830381600087803b15801561064357600080fd5b505af1158015610657573d6000803e3d6000fd5b505050507fe6b392a485300aed5d0afd949a6e7bbb13d3dc1a15efa0a0c1630b48ae54ca4683828151811061068e5761068e610db1565b60200260200101518383815181106106a8576106a8610db1565b60200260200101516040516106d29291906001600160a01b03929092168252602082015260400190565b60405180910390a1806106e481610ddd565b91505061054b565b505050565b6106f96109fa565b600181905560408051828152602081018390527fed28c14db89870da08d76b69e3f96d95cbb779778f62a9ea4d4d41dc082d088a91015b60405180910390a150565b6107436109fa565b61074d6000610a9a565b565b60006107596109fa565b506004546001600160a01b031690565b6107716109fa565b600281905560408051828152602081018390527f6a83cc218b6e35f4b68868b8cf2a7968201acfd91f619cd387fb092745e5b8dc9101610730565b6001600160a01b0382166107d357604051633415fd6160e11b815260040160405180910390fd5b600081116107f45760405163114617e760e21b815260040160405180910390fd5b60006107ff82610aea565b9050600061080c83610b1d565b905060003360035460048054604051631501bf0360e01b81526001600160a01b03808616938201939093529082166024820152604481018690529293506101009091041690631501bf0390606401600060405180830381600087803b15801561087457600080fd5b505af1158015610888573d6000803e3d6000fd5b5050600354604051631501bf0360e01b81526001600160a01b0385811660048301528981166024830152604482018890526101009092049091169250631501bf039150606401600060405180830381600087803b1580156108e857600080fd5b505af11580156108fc573d6000803e3d6000fd5b505050505050505050565b61090f6109fa565b6001600160a01b0381166109745760405162461bcd60e51b815260206004820152602660248201527f4f776e61626c653a206e6577206f776e657220697320746865207a65726f206160448201526564647265737360d01b6064820152608401610312565b61097d81610a9a565b50565b6003546040516370a0823160e01b81526001600160a01b038381166004830152600092610100900416906370a0823190602401602060405180830381865afa1580156109d0573d6000803e3d6000fd5b505050506040513d601f19601f820116820180604052508101906109f49190610d98565b92915050565b6000546001600160a01b0316331461074d5760405162461bcd60e51b815260206004820181905260248201527f4f776e61626c653a2063616c6c6572206973206e6f7420746865206f776e65726044820152606401610312565b60035460ff161561074d5760405162461bcd60e51b815260206004820152601060248201526f14185d5cd8589b194e881c185d5cd95960821b6044820152606401610312565b600080546001600160a01b038381166001600160a01b0319831681178455604051919092169283917f8be0079c531659141344cd1fd0a4f28419497f9722a3daafe3b4186f6b6457e09190a35050565b600080600154612710610afd9190610df6565b9050612710610b0c8285610e0d565b610b169190610e2c565b9392505050565b600061271060015483610b309190610e0d565b6109f49190610e2c565b80356001600160a01b0381168114610b5157600080fd5b919050565b600060208284031215610b6857600080fd5b610b1682610b3a565b60008060408385031215610b8457600080fd5b82359150610b9460208401610b3a565b90509250929050565b634e487b7160e01b600052604160045260246000fd5b604051601f8201601f1916810167ffffffffffffffff81118282101715610bdc57610bdc610b9d565b604052919050565b600067ffffffffffffffff821115610bfe57610bfe610b9d565b5060051b60200190565b600082601f830112610c1957600080fd5b81356020610c2e610c2983610be4565b610bb3565b82815260059290921b84018101918181019086841115610c4d57600080fd5b8286015b84811015610c685780358352918301918301610c51565b509695505050505050565b60008060408385031215610c8657600080fd5b823567ffffffffffffffff80821115610c9e57600080fd5b818501915085601f830112610cb257600080fd5b81356020610cc2610c2983610be4565b82815260059290921b84018101918181019089841115610ce157600080fd5b948201945b83861015610d0657610cf786610b3a565b82529482019490820190610ce6565b96505086013592505080821115610d1c57600080fd5b50610d2985828601610c08565b9150509250929050565b600060208284031215610d4557600080fd5b5035919050565b60008060408385031215610d5f57600080fd5b610d6883610b3a565b946020939093013593505050565b600060208284031215610d8857600080fd5b81518015158114610b1657600080fd5b600060208284031215610daa57600080fd5b5051919050565b634e487b7160e01b600052603260045260246000fd5b634e487b7160e01b600052601160045260246000fd5b600060018201610def57610def610dc7565b5060010190565b600082821015610e0857610e08610dc7565b500390565b6000816000190483118215151615610e2757610e27610dc7565b500290565b600082610e4957634e487b7160e01b600052601260045260246000fd5b50049056fea2646970667358221220f04c44df43effa1728f062e1a095090a197f71b31394dff9e81f9cd61199917964736f6c634300080e0033",
    "linkReferences": {}
  },
  "methodIdentifiers": {
    "batchMinting(address[],uint256[])": "36b59bc4",
    "burnOnPurchase(uint256,address)": "1b290369",
    "getBalance(address)": "f8b2cb4f",
    "getLoyaltyPercentage()": "7f422669",
    "getTaxCollectorAddress()": "7f1bee23",
    "getfee()": "0cda45c8",
    "owner()": "8da5cb5b",
    "paused()": "5c975abb",
    "renounceOwnership()": "715018a6",
    "setFee(uint256)": "69fe0e2d",
    "setLoyaltyPercentage(uint256)": "864879bb",
    "setTaxCollector(address)": "08695b41",
    "taxCollector()": "bea1dcf8",
    "transferOwnership(address)": "f2fde38b",
    "transferingTokensOutside(address,uint256)": "b54dd710"
  },
  "id": 15
}