{
  "abi": [
    {
      "inputs": [
        {
          "internalType": "address",
          "name": "_contract",
          "type": "address"
        }
      ],
      "stateMutability": "nonpayable",
      "type": "constructor"
    },
    {
      "inputs": [],
      "name": "AddressAndAmountLengthInvalid",
      "type": "error"
    },
    {
      "inputs": [],
      "name": "AlreadyAdded",
      "type": "error"
    },
    {
      "inputs": [],
      "name": "CannotBeAddressZero",
      "type": "error"
    },
    {
      "inputs": [],
      "name": "CannotSendToAddressZero",
      "type": "error"
    },
    {
      "inputs": [],
      "name": "NotEnoughBalance",
      "type": "error"
    },
    {
      "inputs": [],
      "name": "ThisAintAllowedYet",
      "type": "error"
    },
    {
      "inputs": [],
      "name": "cannotBeContract",
      "type": "error"
    },
    {
      "inputs": [],
      "name": "valueCannotBeZero",
      "type": "error"
    },
    {
      "anonymous": false,
      "inputs": [
        {
          "indexed": false,
          "internalType": "uint256",
          "name": "loyaltyPercentageBefore",
          "type": "uint256"
        },
        {
          "indexed": false,
          "internalType": "uint256",
          "name": "loyaltyPercentageAfter",
          "type": "uint256"
        }
      ],
      "name": "LoyaltyUpdated",
      "type": "event"
    },
    {
      "anonymous": false,
      "inputs": [
        {
          "indexed": true,
          "internalType": "address",
          "name": "previousOwner",
          "type": "address"
        },
        {
          "indexed": true,
          "internalType": "address",
          "name": "newOwner",
          "type": "address"
        }
      ],
      "name": "OwnershipTransferred",
      "type": "event"
    },
    {
      "anonymous": false,
      "inputs": [
        {
          "indexed": false,
          "internalType": "address",
          "name": "account",
          "type": "address"
        }
      ],
      "name": "Paused",
      "type": "event"
    },
    {
      "anonymous": false,
      "inputs": [
        {
          "indexed": false,
          "internalType": "address",
          "name": "to",
          "type": "address"
        },
        {
          "indexed": false,
          "internalType": "uint256",
          "name": "amount",
          "type": "uint256"
        }
      ],
      "name": "TokenRewarded",
      "type": "event"
    },
    {
      "anonymous": false,
      "inputs": [
        {
          "indexed": false,
          "internalType": "uint256",
          "name": "amount",
          "type": "uint256"
        },
        {
          "indexed": false,
          "internalType": "address",
          "name": "user",
          "type": "address"
        }
      ],
      "name": "TokensBurned",
      "type": "event"
    },
    {
      "anonymous": false,
      "inputs": [
        {
          "indexed": false,
          "internalType": "address",
          "name": "account",
          "type": "address"
        }
      ],
      "name": "Unpaused",
      "type": "event"
    },
    {
      "anonymous": false,
      "inputs": [
        {
          "indexed": false,
          "internalType": "uint256",
          "name": "feeBefore",
          "type": "uint256"
        },
        {
          "indexed": false,
          "internalType": "uint256",
          "name": "feeAfter",
          "type": "uint256"
        }
      ],
      "name": "feeUpdated",
      "type": "event"
    },
    {
      "inputs": [
        {
          "internalType": "address",
          "name": "_owner",
          "type": "address"
        },
        {
          "internalType": "address",
          "name": "_spender",
          "type": "address"
        }
      ],
      "name": "allowance",
      "outputs": [
        {
          "internalType": "uint256",
          "name": "",
          "type": "uint256"
        }
      ],
      "stateMutability": "view",
      "type": "function"
    },
    {
      "inputs": [
        {
          "internalType": "address",
          "name": "_user",
          "type": "address"
        }
      ],
      "name": "balanceOf",
      "outputs": [
        {
          "internalType": "uint256",
          "name": "",
          "type": "uint256"
        }
      ],
      "stateMutability": "view",
      "type": "function"
    },
    {
      "inputs": [
        {
          "internalType": "address[]",
          "name": "_addresses",
          "type": "address[]"
        },
        {
          "internalType": "uint256[]",
          "name": "_amounts",
          "type": "uint256[]"
        }
      ],
      "name": "batchMinting",
      "outputs": [],
      "stateMutability": "nonpayable",
      "type": "function"
    },
    {
      "inputs": [
        {
          "internalType": "uint256",
          "name": "amount",
          "type": "uint256"
        }
      ],
      "name": "burn",
      "outputs": [],
      "stateMutability": "nonpayable",
      "type": "function"
    },
    {
      "inputs": [
        {
          "internalType": "address",
          "name": "_user",
          "type": "address"
        },
        {
          "internalType": "uint256",
          "name": "_amount",
          "type": "uint256"
        }
      ],
      "name": "burnOnPurchase",
      "outputs": [],
      "stateMutability": "nonpayable",
      "type": "function"
    },
    {
      "inputs": [
        {
          "internalType": "address",
          "name": "to",
          "type": "address"
        },
        {
          "internalType": "uint256",
          "name": "amount",
          "type": "uint256"
        }
      ],
      "name": "buyTokens",
      "outputs": [],
      "stateMutability": "payable",
      "type": "function"
    },
    {
      "inputs": [],
      "name": "getLoyaltyPercentage",
      "outputs": [
        {
          "internalType": "uint256",
          "name": "",
          "type": "uint256"
        }
      ],
      "stateMutability": "view",
      "type": "function"
    },
    {
      "inputs": [],
      "name": "getTaxCollectorAddress",
      "outputs": [
        {
          "internalType": "address",
          "name": "",
          "type": "address"
        }
      ],
      "stateMutability": "view",
      "type": "function"
    },
    {
      "inputs": [],
      "name": "getfee",
      "outputs": [
        {
          "internalType": "uint256",
          "name": "",
          "type": "uint256"
        }
      ],
      "stateMutability": "view",
      "type": "function"
    },
    {
      "inputs": [],
      "name": "owner",
      "outputs": [
        {
          "internalType": "address",
          "name": "",
          "type": "address"
        }
      ],
      "stateMutability": "view",
      "type": "function"
    },
    {
      "inputs": [],
      "name": "paused",
      "outputs": [
        {
          "internalType": "bool",
          "name": "",
          "type": "bool"
        }
      ],
      "stateMutability": "view",
      "type": "function"
    },
    {
      "inputs": [],
      "name": "renounceOwnership",
      "outputs": [],
      "stateMutability": "nonpayable",
      "type": "function"
    },
    {
      "inputs": [
        {
          "internalType": "uint256",
          "name": "_fee",
          "type": "uint256"
        }
      ],
      "name": "setFee",
      "outputs": [],
      "stateMutability": "nonpayable",
      "type": "function"
    },
    {
      "inputs": [
        {
          "internalType": "uint256",
          "name": "_loyaltyPercentage",
          "type": "uint256"
        }
      ],
      "name": "setLoyaltyPercentage",
      "outputs": [],
      "stateMutability": "nonpayable",
      "type": "function"
    },
    {
      "inputs": [
        {
          "internalType": "address",
          "name": "_taxCollector",
          "type": "address"
        }
      ],
      "name": "setTaxCollector",
      "outputs": [],
      "stateMutability": "nonpayable",
      "type": "function"
    },
    {
      "inputs": [
        {
          "internalType": "address",
          "name": "_to",
          "type": "address"
        },
        {
          "internalType": "uint256",
          "name": "_amount",
          "type": "uint256"
        }
      ],
      "name": "simpleMint",
      "outputs": [],
      "stateMutability": "nonpayable",
      "type": "function"
    },
    {
      "inputs": [],
      "name": "taxCollector",
      "outputs": [
        {
          "internalType": "address",
          "name": "",
          "type": "address"
        }
      ],
      "stateMutability": "view",
      "type": "function"
    },
    {
      "inputs": [
        {
          "internalType": "address",
          "name": "to",
          "type": "address"
        },
        {
          "internalType": "uint256",
          "name": "amount",
          "type": "uint256"
        }
      ],
      "name": "transfer",
      "outputs": [],
      "stateMutability": "nonpayable",
      "type": "function"
    },
    {
      "inputs": [
        {
          "internalType": "address",
          "name": "from",
          "type": "address"
        },
        {
          "internalType": "address",
          "name": "to",
          "type": "address"
        },
        {
          "internalType": "uint256",
          "name": "amount",
          "type": "uint256"
        }
      ],
      "name": "transferFrom",
      "outputs": [],
      "stateMutability": "nonpayable",
      "type": "function"
    },
    {
      "inputs": [
        {
          "internalType": "address",
          "name": "newOwner",
          "type": "address"
        }
      ],
      "name": "transferOwnership",
      "outputs": [],
      "stateMutability": "nonpayable",
      "type": "function"
    },
    {
      "inputs": [
        {
          "internalType": "address",
          "name": "_to",
          "type": "address"
        },
        {
          "internalType": "uint256",
          "name": "_amount",
          "type": "uint256"
        }
      ],
      "name": "transferingTokensOutside",
      "outputs": [],
      "stateMutability": "nonpayable",
      "type": "function"
    }
  ],
  "bytecode": {
    "object": "0x60806040526107d06001556103e860025534801561001c57600080fd5b5060405161169638038061169683398101604081905261003b916100be565b6100443361006e565b600380546001600160a01b03909216610100026001600160a81b03199092169190911790556100ee565b600080546001600160a01b038381166001600160a01b0319831681178455604051919092169283917f8be0079c531659141344cd1fd0a4f28419497f9722a3daafe3b4186f6b6457e09190a35050565b6000602082840312156100d057600080fd5b81516001600160a01b03811681146100e757600080fd5b9392505050565b611599806100fd6000396000f3fe60806040526004361061012a5760003560e01c80637f1bee23116100ab578063af4d2e911161006f578063af4d2e9114610300578063b54dd71014610320578063bea1dcf814610340578063dd62ed3e14610360578063f2fde38b14610380578063fddde270146103a057600080fd5b80637f1bee23146102605780637f4226691461028d578063864879bb146102a25780638da5cb5b146102c2578063a9059cbb146102e057600080fd5b806342966c68116100f257806342966c68146101c85780635c975abb146101e857806369fe0e2d1461020b57806370a082311461022b578063715018a61461024b57600080fd5b80630752881a1461012f57806308695b41146101445780630cda45c81461016457806323b872dd1461018857806336b59bc4146101a8575b600080fd5b61014261013d3660046111f1565b6103c0565b005b34801561015057600080fd5b5061014261015f36600461121b565b6104fe565b34801561017057600080fd5b506001545b6040519081526020015b60405180910390f35b34801561019457600080fd5b506101426101a3366004611236565b610548565b3480156101b457600080fd5b506101426101c3366004611348565b610667565b3480156101d457600080fd5b506101426101e3366004611408565b6108c6565b3480156101f457600080fd5b5060035460ff16604051901515815260200161017f565b34801561021757600080fd5b50610142610226366004611408565b61092b565b34801561023757600080fd5b5061017561024636600461121b565b610975565b34801561025757600080fd5b506101426109ef565b34801561026c57600080fd5b50610275610a03565b6040516001600160a01b03909116815260200161017f565b34801561029957600080fd5b50600254610175565b3480156102ae57600080fd5b506101426102bd366004611408565b610a1d565b3480156102ce57600080fd5b506000546001600160a01b0316610275565b3480156102ec57600080fd5b506101426102fb3660046111f1565b610a60565b34801561030c57600080fd5b5061014261031b3660046111f1565b610b71565b34801561032c57600080fd5b5061014261033b3660046111f1565b610d49565b34801561034c57600080fd5b50600454610275906001600160a01b031681565b34801561036c57600080fd5b5061017561037b366004611421565b610ea4565b34801561038c57600080fd5b5061014261039b36600461121b565b610f27565b3480156103ac57600080fd5b506101426103bb3660046111f1565b610fa0565b6000600360019054906101000a90046001600160a01b03166001600160a01b0316637ff9b5966040518163ffffffff1660e01b8152600401602060405180830381865afa158015610415573d6000803e3d6000fd5b505050506040513d601f19601f820116820180604052508101906104399190611454565b90506104458183611483565b34101561048d5760405162461bcd60e51b8152602060048201526011602482015270496e737566666369656e742066756e647360781b60448201526064015b60405180910390fd5b60035460405163068f8fc160e41b81526001600160a01b03858116600483015260248201859052610100909204909116906368f8fc1090604401600060405180830381600087803b1580156104e157600080fd5b505af11580156104f5573d6000803e3d6000fd5b50505050505050565b61050661109c565b803b1561052657604051632111dc4760e01b815260040160405180910390fd5b600480546001600160a01b0319166001600160a01b0392909216919091179055565b600360019054906101000a90046001600160a01b03166001600160a01b0316636e695ef56040518163ffffffff1660e01b8152600401602060405180830381865afa15801561059b573d6000803e3d6000fd5b505050506040513d601f19601f820116820180604052508101906105bf91906114a2565b6105dc5760405163e730524b60e01b815260040160405180910390fd5b6003546040516323b872dd60e01b81526001600160a01b038581166004830152848116602483015260448201849052610100909204909116906323b872dd906064016020604051808303816000875af115801561063d573d6000803e3d6000fd5b505050506040513d601f19601f8201168201806040525081019061066191906114a2565b50505050565b600354604051635363afd160e11b81523360048201526101009091046001600160a01b03169063a6c75fa290602401602060405180830381865afa1580156106b3573d6000803e3d6000fd5b505050506040513d601f19601f820116820180604052508101906106d791906114a2565b6106f35760405162461bcd60e51b8152600401610484906114c4565b6106fb6110f6565b805182511461071d57604051630c17582360e31b815260040160405180910390fd5b60005b82518110156108c15760006001600160a01b0316838281518110610746576107466114fb565b60200260200101516001600160a01b031603610775576040516309f9845360e01b815260040160405180910390fd5b600360019054906101000a90046001600160a01b03166001600160a01b031663cd748abb8483815181106107ab576107ab6114fb565b60200260200101518484815181106107c5576107c56114fb565b60200260200101516040518363ffffffff1660e01b81526004016107fe9291906001600160a01b03929092168252602082015260400190565b600060405180830381600087803b15801561081857600080fd5b505af115801561082c573d6000803e3d6000fd5b505050507fe6b392a485300aed5d0afd949a6e7bbb13d3dc1a15efa0a0c1630b48ae54ca46838281518110610863576108636114fb565b602002602001015183838151811061087d5761087d6114fb565b60200260200101516040516108a79291906001600160a01b03929092168252602082015260400190565b60405180910390a1806108b981611511565b915050610720565b505050565b600354604051630852cd8d60e31b8152600481018390526101009091046001600160a01b0316906342966c6890602401600060405180830381600087803b15801561091057600080fd5b505af1158015610924573d6000803e3d6000fd5b5050505050565b61093361109c565b600181905560408051828152602081018390527fed28c14db89870da08d76b69e3f96d95cbb779778f62a9ea4d4d41dc082d088a91015b60405180910390a150565b6003546040516370a0823160e01b81526001600160a01b038381166004830152600092610100900416906370a0823190602401602060405180830381865afa1580156109c5573d6000803e3d6000fd5b505050506040513d601f19601f820116820180604052508101906109e99190611454565b92915050565b6109f761109c565b610a01600061113c565b565b6000610a0d61109c565b506004546001600160a01b031690565b610a2561109c565b600281905560408051828152602081018390527f6a83cc218b6e35f4b68868b8cf2a7968201acfd91f619cd387fb092745e5b8dc910161096a565b600360019054906101000a90046001600160a01b03166001600160a01b0316636e695ef56040518163ffffffff1660e01b8152600401602060405180830381865afa158015610ab3573d6000803e3d6000fd5b505050506040513d601f19601f82011682018060405250810190610ad791906114a2565b610af45760405163e730524b60e01b815260040160405180910390fd5b60035460405163a9059cbb60e01b81526001600160a01b038481166004830152602482018490526101009092049091169063a9059cbb906044016020604051808303816000875af1158015610b4d573d6000803e3d6000fd5b505050506040513d601f19601f820116820180604052508101906108c191906114a2565b600354604051635363afd160e11b81523360048201526101009091046001600160a01b03169063a6c75fa290602401602060405180830381865afa158015610bbd573d6000803e3d6000fd5b505050506040513d601f19601f82011682018060405250810190610be191906114a2565b610bfd5760405162461bcd60e51b8152600401610484906114c4565b610c056110f6565b6003546040516370a0823160e01b81526001600160a01b0384811660048301528392610100900416906370a0823190602401602060405180830381865afa158015610c54573d6000803e3d6000fd5b505050506040513d601f19601f82011682018060405250810190610c789190611454565b1015610c975760405163569d45cf60e11b815260040160405180910390fd5b60035460405163079cc67960e41b81526001600160a01b03848116600483015260248201849052610100909204909116906379cc679090604401600060405180830381600087803b158015610ceb57600080fd5b505af1158015610cff573d6000803e3d6000fd5b5050604080518481526001600160a01b03861660208201527f63706707d038997d2210eb026bb1339397deab463921538a81bb98e69ee54ca8935001905060405180910390a15050565b6001600160a01b038216610d7057604051633415fd6160e11b815260040160405180910390fd5b60008111610d915760405163114617e760e21b815260040160405180910390fd5b6000610d9c8261118c565b90506000610da9836111b8565b905060003360035460048054604051631501bf0360e01b81526001600160a01b03808616938201939093529082166024820152604481018690529293506101009091041690631501bf0390606401600060405180830381600087803b158015610e1157600080fd5b505af1158015610e25573d6000803e3d6000fd5b5050600354604051631501bf0360e01b81526001600160a01b0385811660048301528981166024830152604482018890526101009092049091169250631501bf039150606401600060405180830381600087803b158015610e8557600080fd5b505af1158015610e99573d6000803e3d6000fd5b505050505050505050565b600354604051636eb1769f60e11b81526001600160a01b03848116600483015283811660248301526000926101009004169063dd62ed3e90604401602060405180830381865afa158015610efc573d6000803e3d6000fd5b505050506040513d601f19601f82011682018060405250810190610f209190611454565b9392505050565b610f2f61109c565b6001600160a01b038116610f945760405162461bcd60e51b815260206004820152602660248201527f4f776e61626c653a206e6577206f776e657220697320746865207a65726f206160448201526564647265737360d01b6064820152608401610484565b610f9d8161113c565b50565b600354604051635363afd160e11b81523360048201526101009091046001600160a01b03169063a6c75fa290602401602060405180830381865afa158015610fec573d6000803e3d6000fd5b505050506040513d601f19601f8201168201806040525081019061101091906114a2565b61102c5760405162461bcd60e51b8152600401610484906114c4565b60035460405163cd748abb60e01b81526001600160a01b038481166004830152602482018490526101009092049091169063cd748abb90604401600060405180830381600087803b15801561108057600080fd5b505af1158015611094573d6000803e3d6000fd5b505050505050565b6000546001600160a01b03163314610a015760405162461bcd60e51b815260206004820181905260248201527f4f776e61626c653a2063616c6c6572206973206e6f7420746865206f776e65726044820152606401610484565b60035460ff1615610a015760405162461bcd60e51b815260206004820152601060248201526f14185d5cd8589b194e881c185d5cd95960821b6044820152606401610484565b600080546001600160a01b038381166001600160a01b0319831681178455604051919092169283917f8be0079c531659141344cd1fd0a4f28419497f9722a3daafe3b4186f6b6457e09190a35050565b60008060015461271061119f919061152a565b90506127106111ae8285611483565b610f209190611541565b6000612710600154836111cb9190611483565b6109e99190611541565b80356001600160a01b03811681146111ec57600080fd5b919050565b6000806040838503121561120457600080fd5b61120d836111d5565b946020939093013593505050565b60006020828403121561122d57600080fd5b610f20826111d5565b60008060006060848603121561124b57600080fd5b611254846111d5565b9250611262602085016111d5565b9150604084013590509250925092565b634e487b7160e01b600052604160045260246000fd5b604051601f8201601f1916810167ffffffffffffffff811182821017156112b1576112b1611272565b604052919050565b600067ffffffffffffffff8211156112d3576112d3611272565b5060051b60200190565b600082601f8301126112ee57600080fd5b813560206113036112fe836112b9565b611288565b82815260059290921b8401810191818101908684111561132257600080fd5b8286015b8481101561133d5780358352918301918301611326565b509695505050505050565b6000806040838503121561135b57600080fd5b823567ffffffffffffffff8082111561137357600080fd5b818501915085601f83011261138757600080fd5b813560206113976112fe836112b9565b82815260059290921b840181019181810190898411156113b657600080fd5b948201945b838610156113db576113cc866111d5565b825294820194908201906113bb565b965050860135925050808211156113f157600080fd5b506113fe858286016112dd565b9150509250929050565b60006020828403121561141a57600080fd5b5035919050565b6000806040838503121561143457600080fd5b61143d836111d5565b915061144b602084016111d5565b90509250929050565b60006020828403121561146657600080fd5b5051919050565b634e487b7160e01b600052601160045260246000fd5b600081600019048311821515161561149d5761149d61146d565b500290565b6000602082840312156114b457600080fd5b81518015158114610f2057600080fd5b60208082526018908201527f596f7520617265206e6f742070617274206f66207465616d0000000000000000604082015260600190565b634e487b7160e01b600052603260045260246000fd5b6000600182016115235761152361146d565b5060010190565b60008282101561153c5761153c61146d565b500390565b60008261155e57634e487b7160e01b600052601260045260246000fd5b50049056fea2646970667358221220dcff87642ca43c9f36fc5f42dd3513ec7da5f97d25cacaf591339e2e1ee491d264736f6c634300080e0033",
    "linkReferences": {}
  },
  "methodIdentifiers": {
    "allowance(address,address)": "dd62ed3e",
    "balanceOf(address)": "70a08231",
    "batchMinting(address[],uint256[])": "36b59bc4",
    "burn(uint256)": "42966c68",
    "burnOnPurchase(address,uint256)": "af4d2e91",
    "buyTokens(address,uint256)": "0752881a",
    "getLoyaltyPercentage()": "7f422669",
    "getTaxCollectorAddress()": "7f1bee23",
    "getfee()": "0cda45c8",
    "owner()": "8da5cb5b",
    "paused()": "5c975abb",
    "renounceOwnership()": "715018a6",
    "setFee(uint256)": "69fe0e2d",
    "setLoyaltyPercentage(uint256)": "864879bb",
    "setTaxCollector(address)": "08695b41",
    "simpleMint(address,uint256)": "fddde270",
    "taxCollector()": "bea1dcf8",
    "transfer(address,uint256)": "a9059cbb",
    "transferFrom(address,address,uint256)": "23b872dd",
    "transferOwnership(address)": "f2fde38b",
    "transferingTokensOutside(address,uint256)": "b54dd710"
  },
  "id": 15
}